:020000040800F2
:10000000A806002039020008D11100083D080008A8
:10001000CD110008DB070008391A000800000000B5
:10002000000000000000000000000000A918000807
:10003000DF0700080000000089170008AB1800085F
:10004000530200085302000853020008530200083C
:10005000530200085302000853020008530200082C
:10006000530200085302000853020008530200081C
:10007000530200085302000853020008530200080C
:1000800053020008530200085302000853020008FC
:100090005302000853020008530200081108000828
:1000A00053020008530200085302000853020008DC
:1000B00053020008530200085302000853020008CC
:1000C00053020008530200085302000853020008BC
:1000D00053020008530200085302000853020008AC
:1000E000530200085302000853020008530200089C
:1000F000530200085302000853020008530200088C
:10010000530200085302000853020008530200087B
:10011000530200085302000853020008530200086B
:10012000530200085302000853020008530200085B
:10013000530200085302000853020008530200084B
:10014000530200085302000853020008530200083B
:10015000530200085302000853020008530200082B
:10016000530200085302000853020008530200081B
:100170005302000853020008530200080000000068
:10018000530200085302000800F002F800F044F89F
:100190000AA090E8000C82448344AAF10107DA45E2
:1001A00001D100F039F8AFF2090EBAE80F0013F0F0
:1001B000010F18BFFB1A43F001031847EC1B0000A6
:1001C0000C1C0000103A24BF78C878C1FAD8520736
:1001D00024BF30C830C144BF04680C6070470000C1
:1001E0000023002400250026103A28BF78C1FBD840
:1001F000520728BF30C148BF0B607047642900F028
:10020000EF80782900F02881002070471FB501F0A9
:100210009DFD1FBD10B510BD00F0A5FA1146FFF7FA
:10022000F5FF01F02FFC00F0C3FA03B4FFF7F2FF73
:1002300003BC00F0CBFA000009488047094800479A
:10024000FEE7FEE7FEE7FEE7FEE7FEE7FEE7FEE786
:10025000FEE7FEE704480549054A064B70470000E3
:10026000F519000889010008A8000020A806002050
:10027000A8020020A802002053EA020C00F06980C6
:100280002DE9F04B4FF00006002B1FBFB3FA83F5AA
:1002900003FA05F424FA05F65E4012BF1643B2FADB
:1002A00082F502FA05F4C5F120051EBF22FA05FC0D
:1002B00044EA0C04203556EA044C4FEA144418BFB3
:1002C000641C4FF000084FF00009904271EB030CE2
:1002D00039D3002919BFB1FA81F701FA07F6B0FA4C
:1002E00080F700FA07F6C7F120071EBF20FA07FCC7
:1002F00046EA0C062037B6FBF4FCA7EB0507103FD7
:1003000007F01F0BCBF120060CFA0BFB2CFA06F6BC
:1003100044BFB3460026202FA4BF5E464FF0000B1B
:100320005BEA060C08BF4FF0010B19EB0B09ABFBA6
:10033000027C48EB0608C01B06FB02CC0BFB03CC7F
:1003400071EB0C01C1E70B46024641464846BDE849
:10035000F08B13B54FF000004FF00001AFF30080B9
:10036000BDE81C40704700000FB41CB5074B06AA3F
:100370007B4469460090059800F0DDF9002069464D
:1003800000F0ECF91CBC5DF814FB0000E903000070
:1003900070B5044685690068C10601D5302600E0C5
:1003A0002026C00707D070BDD4E901213046904710
:1003B000206A401C20626D1EF6D570BD70B50446E3
:1003C00085690078C00707D170BDD4E901212020DC
:1003D0009047206A401C20626D1EF6D570BD00005B
:1003E0002DE9F0410646002410687529314616A50E
:1003F00010D0AFF30080002802DA404213A507E0D6
:1004000031688A0701D512A502E0490704D511A574
:10041000012401E0AFF3008000210A2206F1240745
:1004200009E0B0FBF2FCB0FBF2F302FB1C00303041
:1004300078541846491C0028F3D123462A463046F2
:10044000BDE8F04100F019B9000000002D000000E7
:100450002B0000002000000070B504460D46214628
:100460001068AFF300802188090502D50F4A7A444D
:1004700002E00E4A7A440E32002104F1240305E022
:1004800000F00F060009965D5E54491C0028F7D164
:1004900020780023000704D5702D02D009B1022373
:1004A00011322046BDE8704000F0E7B8FC180000AB
:1004B0002DE9F05F894604464FF0000ADFF824B1C9
:1004C000FB44C0F820A02046E168884700287DD082
:1004D000252806D0D4E901219047206A401C2062DB
:1004E000F1E700255F462046E16888472028064658
:1004F00007DB312E05D2B81910F8200C08B10543DE
:10050000F1E7A80701D525F00405C4F81CA00027D1
:10051000C4F818A02A2E09D0304601F0ABFA38B33F
:1005200004EB8708303EC8F8186019E059F8041B3E
:10053000204604EB87029161E1688847012F064657
:1005400018D1E069002820DA25F020051DE0D8F850
:10055000180000EB800006EB40003038C8F81800A7
:100560002046E1688847064601F084FA0028EED16B
:10057000012F0AD02E2E08D12046E16888477F1C23
:100580000646022F45F02005C4DBA069002803DAE7
:10059000404245F00105A061E80701D025F01005B3
:1005A000A6B1A6F14100192802D8203645F400650D
:1005B0004A463146204625604D46FFF71FFE60B192
:1005C000012807D0ED1D25F0070000E007E000F14D
:1005D000080978E705F1040975E730467AE7206AEB
:1005E000BDE8F09FD218000010B5431C02E010F8DF
:1005F000011B71B18107FAD14FF0013202C88C1A88
:100600008C4314EAC211F9D0C01A0A0603D0C01EE6
:1006100010BDC01A10BD0A0401D0801E10BD090211
:10062000FCD0401E10BD4FF0000200B513469446AA
:100630009646203922BFA0E80C50A0E80C50B1F13A
:100640002001BFF4F7AF090728BFA0E80C5048BF4E
:100650000CC05DF804EB890028BF40F8042B08BFEC
:10066000704748BF20F8022B11F0804F18BF00F8E8
:10067000012B70477047704770472DE9F0470D46D2
:1006800099469246044600F124080168880604D57C
:10069000E06921F01001216000E00120A84201DDA5
:1006A000471B00E00027A1697A1902EB0900081A2C
:1006B000A0612078C00602D42046FFF769FE00261C
:1006C00008E0D4E901211AF806009047206A401C8E
:1006D000761C20624E45F4DB2078C0060AD5204601
:1006E000FFF756FE06E0D4E9012130209047206A4A
:1006F000401C2062381EA7F10107F4DC07E0D4E9B2
:10070000012118F805009047206A401C2062281E2D
:10071000A5F10105F3DC2046FFF750FE2078000626
:1007200002D50220BDE8F0870120FBE701694A1CE1
:1007300002610878704700B58FB0CDE90131002122
:10074000059105497944CDE9031011466846FFF744
:10075000AFFE0FB000BD0000E5FFFFFF0A6802F822
:10076000010B0A607047754600F02CF8AE46050094
:100770006946534620F00700854618B020B5FFF7BC
:1007800069FDBDE820404FF000064FF000074FF034
:1007900000084FF0000B21F00701AC46ACE8C0099F
:1007A000ACE8C009ACE8C009ACE8C0098D467047A8
:1007B00010B50446AFF300802046BDE81040FFF7B7
:1007C00034BD000000487047440000200149182053
:1007D000ABBEFEE726000200704700BFFEE7704791
:1007E00001B5094800680949B0FBF1F00921B0FBE7
:1007F000F1F000994843009000BF0098411E00911D
:100800000028FAD108BD00001800002040420F0067
:1008100010B54FF48070084909680140814201D148
:10082000012100E0002131B14FF4807002490860DD
:1008300000BF00F005F810BD143C014000BFFEE70A
:1008400070B540211F4800F093F901240A20FFF7FA
:10085000C7FF072000F0AAFD044604F0400098B14D
:100860004021184800F084F9C4F3420505221649D6
:10087000612000F0D7FD144845714021072000F0A9
:1008800099FE01201149087004F0200068B1402150
:100890000C4800F06DF92021072000F08BFE00F0DD
:1008A00099FC01200A4908700AE004F0100038B1F0
:1008B0001021072000F07EFE00F04EFD00F08AFCC3
:1008C00070BD000000000240060000200C00002067
:1008D0000D00002008B5054909680143034A11606D
:1008E000114609680140009100BF08BD3038024040
:1008F00008B5054909680143034A116011460968B2
:100900000140009100BF08BD443802400249096817
:100910008143014A11607047043C01400249096863
:100920008143014A11607047003C01400249096857
:100930000143014A11607047043C014002490968C3
:100940000143014A116070470C3C014002490968AB
:100950000143014A11607047003C014002490968A7
:100960000143014A11607047083C014070B50446DC
:100970000025207900284DD02068002850D06079CB
:1009800020B1012809D0022815D10DE02068FFF719
:10099000BDFF2068FFF7DAFF0FE02068FFF7BEFF1A
:1009A0002068FFF7C3FF08E02068FFF7CFFF20684B
:1009B000FFF7BCFF01E0012500BF00BFA07940B3F5
:1009C000A079012804D002280DD003281FD117E0F8
:1009D0002068144909688143124A116000BF2068E9
:1009E000FFF7BCFF15E020680E49091F0968814325
:1009F0000C4A121F116000BF2068FFF79FFF08E03C
:100A00002068FFF7ABFF2068FFF798FF01E00125A2
:100A100000BF05E02068FFF781FF2068FFF776FF41
:100A2000284670BD0C3C0140F0B502460B46002440
:100A30000021186890FAA0F0B0FA80F48AE001254D
:100A4000A540186800EA050100297DD058680128F2
:100A500002D0586802281CD19868956891FAA1F6CE
:100A6000B6FA86F677000326BE40B54391FAA1F6A2
:100A7000B6FA86F6760000FA06F63543956000BFB2
:100A8000D86855688D4301FB00F63543556000BFBB
:100A900000BF1869D56891FAA1F6B6FA86F6770014
:100AA0000326BE40B54391FAA1F6B6FA86F6760063
:100AB00000FA06F63543D56000BF5868022831D1E8
:100AC00091FAA1F0B0FA80F0082814D25869156A9A
:100AD00091FAA1F6B6FA86F6B7000F26BE40B543E6
:100AE00091FAA1F6B6FA86F6B60000FA06F6354394
:100AF000156200BF16E05869556A0E0A96FAA6F606
:100B0000B6FA86F6B7000F26BE40B5430E0A96FA2F
:100B1000A6F6B6FA86F6B60000FA06F63543556232
:100B200000BF00BF5868156891FAA1F6B6FA86F6BC
:100B300077000326BE40B54391FAA1F6B6FA86F6D1
:100B4000760000FA06F600E003E03543156000BFCA
:100B500000BF641C1868E04000287FF470AFF0BD4F
:100B60000A04826170470A0482617047816170479C
:100B700010B5426921EA020302EA010443EA044390
:100B8000836110BD4FF47A71B0FBF1F2521E4FF049
:100B9000E0235A6100229A6105221A6100BF704762
:100BA00010B5044600F026FE2060206800F0EEFD3F
:100BB0006060606800F0FAFDA060606800F008FE08
:100BC000E06010BD02480068C0F388107047000064
:100BD0000438024030B50246012300BF1068C0F35C
:100BE000801038BBD1E9000420438C682043CC68D6
:100BF00020430C6920434C6920438C692043CC6915
:100C000020430C6A204314684FF6BF75AC43204361
:100C10001060506820F004004C6940EA14405060B5
:100C2000086AB0F5005F04D1486A84B2146100BF5D
:100C300000BF0023D06920F40060D061184630BDA9
:100C40000146886800F00100704701468868C0F3DB
:100C50004000704701737047014908607047000009
:100C600018000020C16841F40051C16070470000C5
:100C70002DE9FF4104460D4601270026204600F0DD
:100C800059F8002845D1E96868680843296908438C
:100C9000A9690843E16849F20C6291430843E060A6
:100CA000A868216921F440510143216100BF6869AE
:100CB000616921F440710143616100BF6846FFF73B
:100CC0006FFF1648844201D1039E17E01448844206
:100CD00001D1029E12E01348844201D1029E0DE030
:100CE0001148844201D1039E08E01048844201D19A
:100CF000029E03E00E48844200D1029E4EB1286855
:100D000038B10027314620462B68AA6900F017F851
:100D100000BF384604B0BDE8F0810000001001407B
:100D2000004400400048004000140140004C0040D6
:100D3000005000400146C868C0F3403070472DE9BC
:100D4000FC5F06460C4691461D46B9F5004F68D13A
:100D50000220A0FB057003461920A4FB00A0014659
:100D60003A465046FFF788FA6421B0FBF1F04FEAAB
:100D7000001A0220A0FB05710B461920A4FB00B14C
:100D80003A465846FFF778FA83460220A0FB0570E2
:100D900003461920A4FB00013A46CDE90001FFF704
:100DA0006BFA6421B0FBF1F000EBC00101EB001025
:100DB000ABEB8000322101EBC0006421B0FBF1F00D
:100DC00000F0F8000AEB400A0220A0FB0570034681
:100DD0001920A4FB00B13A465846FFF74DFA834666
:100DE0000220A0FB057003461920A4FB00013A462F
:100DF000CDE90001FFF740FA6421B0FBF1F000EB10
:100E0000C00101EB0010ABEB8000322101EBC00010
:100E10006421B0FBF1F000F00700504480B2B060F4
:100E200067E00420A0FB057003461920A4FB00A086
:100E300001463A465046FFF71FFA82460420A0FBBF
:100E400005711920A4FB00B084463A460B4658466B
:100E50006146FFF711FA6421B0FBF1F000EBC0012D
:100E600001EB0010AAEB8000322101EB001064219D
:100E7000B0FBF1F000F0F00A0420A0FB057003467F
:100E80001920A4FB00B001463A465846FFF7F4F992
:100E90006421B0FBF1F00AEB001A0420A0FB0570FE
:100EA00003461920A4FB00B13A465846FFF7E4F97F
:100EB00083460420A0FB057003461920A4FB000113
:100EC0003A46CDE90001FFF7D7F96421B0FBF1F014
:100ED00000EBC00101EB0010ABEB8000322101EB15
:100EE00000106421B0FBF1F000F00F00504480B21C
:100EF000B060BDE8FC9F000030B589B000200790CD
:100F00000890182101A8FFF78EFB1020FFF7E2FCE4
:100F10008020FFF7DFFC0120FFF7DCFC0220FFF759
:100F2000D9FCC0214A48FFF71EFEC0214948FFF7FF
:100F30001AFE1820019000200290059001A9464851
:100F4000FFF772FDC0200190012002900020039065
:100F50000490059001A93E48FFF766FDC02001906E
:100F600001200290002003900490059001A93948C7
:100F7000FFF75AFD01213948394AC3B252F82320FC
:100F800022EA1042030C93FAA3F3B3FA83F301FAB3
:100F900003F31A43324BC4B243F8242000BF0802C3
:100FA000079001208DF8200000208DF821000220FC
:100FB0008DF8220007A8FFF7D9FC4FF480700021BC
:100FC000244AD26890FAA0F3B3FA83F35C000323B7
:100FD000A3409A4390FAA0F3B3FA83F35B0001FABB
:100FE00003F31A431B4BDA6000BF00BF1A461268B6
:100FF00090FAA0F3B3FA83F35C000323A3409A436F
:1010000090FAA0F3B3FA83F35B0001FA03F31A43F7
:10101000104B1A6000BF00F011FD0546002211467A
:1010200000F092FB04462146172000F00FFD172028
:10103000002809DB00F01F020121914042099200C3
:1010400002F1E022C2F8001100BF09B030BD00007B
:1010500000000240000402400010024002000F00A5
:101060000838014000BF4CF6CC401149086000BF71
:1010700000BF45F25550086000BF0620486000BF21
:1010800040F6FF70886000BF00BF00BF0848C0681E
:1010900000F0030008B9012000E000200128F4D18D
:1010A00000BF4AF6AA200249086000BF704700004E
:1010B0000030004000B591B0282107A8FFF7B3FA2F
:1010C000182101A8FFF7AFFA4FF48050FFF710FC8A
:1010D0000220FFF7FFFB38200190022002900390CE
:1010E0000020049005900520069001A91248FFF702
:1010F0009BFC002007904FF482700890002009901C
:101100000A900B904FF400700C9018200D90002066
:101110000E900F900A20109007A90848FFF75AFD7B
:1011200000200649496821F010010143034A51603B
:1011300000BF11B000BD00000004024000300140BB
:1011400000B58DB01C2106A8FFF76DFA182168467E
:10115000FFF769FA1020FFF7CBFB0120FFF7BAFB7E
:101160004FF4C06000900220019003200290002004
:10117000039004900720059069461248FFF754FC3D
:101180004FF4E130069000200790089009900C2061
:101190000A9000200B900C9006A90B48FFF768FD01
:1011A00000BF0948006920F49040074908610846DB
:1011B000406920F02A00486100BF0846FFF752FD51
:1011C0000DB000BD000002400010014000BFFEE76E
:1011D00000BFFEE710B50024002000F0E7F8044649
:1011E00044F003042146002000F0E4F903220A49F8
:1011F000102000F015FA032207490A2000F010FA27
:1012000040210648FFF7B2FC9620FFF7E9FA00F00C
:1012100079F800F0A1F810BD03000020000402409E
:1012200010B50E480078012817D10D4802780DA19D
:101230001048FFF799F80F48FFF7D6F984B2214616
:101240000C4800F0E1FB06480078022802D101209A
:101250000949087000200149087010BD0C000020E9
:101260000600002072656365697665643A2025642E
:101270000D0A00001C0000201500002070B5054676
:101280000024284600F024F8002000F08FF80446DF
:1012900044F0020424F001042146002000F08AF901
:1012A0009620FFF79DFA05222946A02000F03AF982
:1012B00040210648FFF75AFC0F20FFF791FA402122
:1012C0000248FFF74DFC002070BD00000004024002
:1012D00010B5044603220949102000F0A1F90322A9
:1012E00006490A2000F09CF940210548FFF738FC28
:1012F00000F008F800F030F810BD000000000020F9
:101300000004024008B511A0006800908021104838
:10131000FFF726FC00BF0F48FFF797FC0028FAD024
:101320009DF800100B48FFF795FC00BF0948FFF738
:1013300087FC0028FAD00748C0680120FFF750FA60
:1013400080210348FFF712FC08BD0000E200000006
:10135000000402400030014008B511A00068009070
:1013600080211048FFF7FCFB00BF0F48FFF76DFC22
:101370000028FAD09DF800100B48FFF76BFC00BF67
:101380000948FFF75DFC0028FAD00748C068012033
:10139000FFF726FA80210348FFF7E8FB08BD0000AD
:1013A000E1000000000402400030014070B5044636
:1013B000002680211948FFF7D3FB00BF1848FFF72C
:1013C00044FC0028FAD021461548FFF743FC00BF33
:1013D0001348FFF735FC0028FAD000BF1048007B07
:1013E0000646072C14D0FF2500BF0D48FFF72DFC43
:1013F0000028FAD029460A48FFF72CFC00BF08480D
:10140000FFF71EFC0028FAD000BF0548007B064607
:1014100080210248FFF7AAFB304670BD000402405D
:10142000003001402DE9F04105460E461746802167
:101430001B48FFF795FB00BF1A48FFF706FC002882
:10144000FAD029461748FFF705FC00BF1548FFF7FB
:10145000F7FB0028FAD01348C0680120FFF7C0F955
:10146000002415E000BF0F48FFF7EFFB0028FAD07B
:1014700029460C48FFF7EEFB00BF0A48FFF7E0FBE8
:101480000028FAD000BF0748007B3055601CC4B26A
:10149000BC42E7DB80210248FFF768FBBDE8F08132
:1014A000000402400030014008B51BA00068009015
:1014B00080211A48FFF754FB00BF1948FFF7C5FB0E
:1014C0000028FAD09DF800101548FFF7C3FB00BFB5
:1014D0001348FFF7B5FB0028FAD01148C068012077
:1014E000FFF77EF97320009000BF0D48FFF7ADFBBA
:1014F0000028FAD09DF800100948FFF7ABFB00BFA9
:101500000748FFF79DFB0028FAD00548C0688021F6
:101510000248FFF72BFB08BD50000000000402400A
:10152000003001402DE9F04105460E4617464021A6
:101530001E48FFF715FB80211C48FFF711FB00BF79
:101540001B48FFF782FB0028FAD029461848FFF70E
:1015500081FB00BF1648FFF773FB0028FAD0144840
:10156000C0680120FFF73CF9002413E000BF1048D9
:10157000FFF76BFB0028FAD0315D0D48FFF76AFBDF
:1015800000BF0B48FFF75CFB0028FAD00848C06892
:10159000601CC4B2BC42E9DB80210448FFF7E6FAD4
:1015A00040210248FFF7E2FABDE8F0810004024062
:1015B0000030014070B504460D4644F020048021FF
:1015C0001548FFF7CDFA00BF1448FFF73EFB00288F
:1015D000FAD021461148FFF73DFB00BF0F48FFF747
:1015E0002FFB0028FAD00D48C06800BF0B48FFF75A
:1015F0002CFB0028FAD029460848FFF72BFB00BF38
:101600000648FFF71DFB0028FAD00448C068802177
:101610000148FFF7ABFA70BD000402400030014002
:101620002DE9F04104460E46174644F0200480217F
:101630001A48FFF795FA00BF1948FFF706FB002884
:10164000FAD021461648FFF705FB00BF1448FFF704
:10165000F7FA0028FAD01248C0680120FFF7C0F856
:10166000002513E000BF0E48FFF7EFFA0028FAD07C
:10167000715D0B48FFF7EEFA00BF0948FFF7E0FA8B
:101680000028FAD00648C068681CC5B2BD42E9DB34
:1016900080210248FFF76AFABDE8F08100040240A9
:1016A0000030014010B540212448FFF759FA41F2BB
:1016B0008830FFF795F80A210020FFF77BFF41F201
:1016C0008830FFF78DF801210846FFF773FF0121ED
:1016D0000220FFF76FFF01210320FFF76BFF5F215F
:1016E0000420FFF767FFFFF7DFFE00211D20FFF753
:1016F00061FF00211C20FFF75DFF70210720FFF72D
:1017000059FF4C210520FFF755FF06210846FFF73A
:1017100051FF03220A491020FFF782FF03220849E4
:101720000B20FFF77DFF05211120FFF743FFFFF797
:1017300051FD40210348FFF719FA10BD0004024093
:101740000000002000000240F0B503460C4603F004
:101750000701C1F10700042801D9042001E0C1F10B
:1017600007000646081D072801D2002000E0C81E19
:1017700005460120B040401E2040A8400127AF4050
:101780007F1E17403843F0BD70470000014600BF80
:101790000448006800F0F0000009034A125C21FAD6
:1017A00002F0704708380240561D0008014600BF8D
:1017B0000548006800F4E050044A02EB90200278EB
:1017C00021FA02F07047000008380240661D000848
:1017D000014600BF0548006800F46040044A02EB7F
:1017E0005030027821FA02F07047000008380240B9
:1017F000661D000810B5002400BF0C48006800F00A
:101800000C0020B1042804D0082809D103E0084CBA
:1018100008E0084C06E0082000F00EF8044601E05D
:10182000034C00BF00BF204610BD00000838024036
:101830000024F40000127A002DE9F041044600254E
:101840000026002700BF1548006800F48000064607
:101850001EB1B6F5800F04D101E0114D03E0114D2A
:1018600001E00F4D00BF00BF082C14D100BF0B4892
:10187000006800F03F00B5FBF0F8FFF7A3F908FBA4
:1018800000F80648006800F44030012101EB1040E8
:101890004000B8FBF0F73846BDE8F081043802405C
:1018A0000024F40000127A007047704770B50220DF
:1018B0004B49096821F007010143494A116000BF03
:1018C00000BF00BF4648006800F007000228F8D1BA
:1018D00040034449096821F480410143414A1160B1
:1018E00000BF00BF4048006840F480303E490860B7
:1018F00000BF00BF00BF3C480068C0F34040002864
:10190000F8D000BF38487430006840F00100364914
:101910007431086000BF00BF00BF334874300068F6
:10192000C0F340000028F7D04FF480000421482283
:10193000002340EA010444EA82142B4D2D1D2D683A
:101940002A4E35402C43284D2D1D2C602C462468F2
:1019500024F440341C432C6000BF00BF281F0068E3
:1019600040F08070291F086000BF00BF00BF1E4804
:101970000068C0F340600028F8D000201A49083100
:10198000096821F0F0010143174A0832116000BFD5
:1019900090141146096821F4E0510143116000BF21
:1019A00000201146096821F460410143116000BF25
:1019B00002201146096821F003010143116000BFB4
:1019C00000BF00BF08480830006800F00C0008287D
:1019D000F7D10748FFF7D6F80548FFF73DF970BD86
:1019E000003C024000700040003802400080BFFF11
:1019F00000A24A040348006840F4700001490860EE
:101A00007047000088ED00E010B5024600200DE0B0
:101A100000BF00BF074B1B68C3F3C013002BF8D0F7
:101A2000135C044C636000BF431C98B28842EFDB38
:101A300010BD00000010014000BFFEE70248006832
:101A4000C0F30220704700000CED00E010B5002844
:101A500004DB0A07130E054A135406E00A07140EA6
:101A6000034A00F00F031B1FD45410BD00E400E034
:101A700018ED00E030380A2801D20120704700201C
:101A80007047000008B54FF48040FEF731FF4FF07B
:101A90008050764909680143744A1160114609680B
:101AA0000140009100BF00BF03200246704B19683F
:101AB0004FF6FF0319406F4B0B4343EA02216C4B77
:101AC000196000BFFFF7BAFF054600220F21FFF79C
:101AD0003BFE044621464FF0FF30FFF7B7FFFFF70C
:101AE000E5FEFFF709FAFFF7BDFAFFF7E3FAFFF7A4
:101AF00027FB00BF6048006840F040005E49086076
:101B000000BF5E48FFF7AEF8FFF7CCFD5CA15F4871
:101B1000FEF72AFC5D48FEF767FD84B221465B486C
:101B2000FFF772FF0020FFF741FC59490870084693
:101B3000027858A15548FEF717FC5448FEF754FDAB
:101B400084B221465148FFF75FFF0120FFF72EFCCA
:101B50004F4908700846027853A14C48FEF704FC30
:101B60004A48FEF741FD84B221464848FFF74CFF42
:101B70000220FFF71BFC46490870084602784EA178
:101B80004248FEF7F1FB4148FEF72EFD84B22146A4
:101B90003E48FFF739FF0720FFF708FC3C49087073
:101BA0000846027849A13948FEF7DEFB3748FEF7C0
:101BB0001BFD84B221463548FFF726FF0620FFF7BC
:101BC000F5FB334908700846027845A12F48FEF717
:101BD000CBFB2E48FEF708FD84B221462B48FFF7C9
:101BE00013FF032243491020FFF71CFC4148807873
:101BF00000904048437802783FA12448FEF7B4FBA8
:101C00002248FEF7F1FC84B221462048FFF7FCFE93
:101C1000032238490B20FFF705FC364880780090F6
:101C20003448437802783DA11848FEF79DFB1748D9
:101C3000FEF7DAFC84B221461448FFF7E5FE14E013
:101C4000FFF7EEFA3E48007840B103203D490870A6
:101C50000846FFF713FB00203949087000BF4AF619
:101C6000AA203949086000BF00BFE9E740380240B8
:101C70000CED00E00000FA050030014000100140CA
:101C80000D0A53544152540D0A0D0A001C00002045
:101C900016000020434F4E4649473A203078253001
:101CA00032580D0A00000000454E5F41413A203095
:101CB00078253032580D0A00454E5F525841444451
:101CC000523A203078253032580D0A00535441548E
:101CD00055533A203078253032580D0A0000000064
:101CE00052465F53455455503A203078253032588B
:101CF0000D0A00003000002054585F414444523A1D
:101D0000203078253032582C203078253032582C2D
:101D1000203078253032580D0A00000052585F41BB
:101D20004444523A203078253032582C20307825DF
:101D30003032582C203078253032580D0A000000FF
:101D40001500002010000020003000404FF04070CF
:101D5000E1EE100A704700000000000000000102E0
:101D600003040607080900000000010203043031E3
:101D700032333435363738394142434445464030B2
:101D80005800303132333435363738396162636464
:101D90006566403078000400000800000000000084
:101DA0000002000100001000C81D00080000002013
:101DB0001C000000C4010008E41D00081C000020F5
:101DC0008C060000E0010008B7B5A1B5B5A1000080
:101DD0000000000000000000000000000000000003
:041DE0000024F400E7
:040000050800018965
:00000001FF
