:1000000012C06FC091C02AC029C028C0B6C026C087
:1000100025C024C023C05BC021C020C01FC01EC09B
:100020001DC01CC01BC011241FBECFE5D4E0DEBF25
:10003000CDBF10E0A0E6B0E0E0E0F7E002C0059040
:100040000D92AC36B107D9F720E0ACE6B0E001C0C4
:100050001D92A93BB207E1F7DAD050C3D1CF8DE2B0
:1000600087BB81E088BB14BA15BA80EC81BB88E8F5
:1000700082BB08951FBC8BE08EBD1DBC1CBC17BC91
:1000800016BC1BBC8CE78ABD19BC18BC089580EE59
:1000900087B987E886B910BE08958BB7806C8BBF8F
:1000A0008AE085BF80EC8ABF81E189BF0895806EB8
:1000B00087B98AE18A95F1F700C086B1806486B974
:1000C000349BFECF86B1806186B985B108951F92B9
:1000D0000F920FB60F9211240F900FBE0F901F902A
:1000E00018951F920F920FB60F9211242F933F93E2
:1000F0004F935F936F937F938F939F93AF93BF9330
:10010000EF93FF936DD2FF91EF91BF91AF919F91CC
:100110008F917F916F915F914F913F912F910F90B0
:100120000FBE0F901F9018951F920F920FB60F924F
:1001300011248F939F93AF93BF938091720081118D
:1001400013C081E0809372008091730090917400DD
:10015000A0917500B091760080936E0090936F002F
:10016000A0937000B0937100BF91AF919F918F9158
:100170000F900FBE0F901F9018951F920F920FB601
:100180000F9211242F933F934F935F936F937F931D
:100190008F939F93AF93BF93EF93FF9380917300DF
:1001A00090917400A0917500B09176000196A11D08
:1001B000B11D8093730090937400A0937500B09369
:1001C0007600609173007091740080917500909139
:1001D000760024E630E040E050E06ED2672B682BDA
:1001E000692B21F486E063DF80936C00FF91EF912F
:1001F000BF91AF919F918F917F916F915F914F913F
:100200003F912F910F900FBE0F901F90189545DFD3
:1002100026DF30DF0DD288E090E01CD2A1D137DF9D
:10022000789486E690E027D285E019C092B3906476
:1002300092BB2FE738E391E0215030409040E1F746
:1002400000C0000092B39F7B92BB2FE738E391E0A0
:10025000215030409040E1F700C0000081508111F2
:10026000E5CF9BE088E10FB6F894A89581BD0FBE5D
:1002700091BD08D180916D008111FBCFA895F9CF78
:10028000CF93C82F82B38F7782BB8C2FDED1C7303C
:1002900011F08FEFDAD192B3906892BBCF910895AD
:1002A000CF93C62F92B39F7792BB8062CAD18C2F17
:1002B000C8D182B3806882BBCF91089582B38F7713
:1002C00082BB80E5BED182E08A95F1F700C083E76A
:1002D000B8D182B3806882BB0895CF92DF92FF923B
:1002E0000F931F93CF93DF93D82F6B01F42E82B31C
:1002F0008F7782BB8D2FA5D1C0E008C086010C0F7F
:10030000111D8D2FA2D1F8018083CF5FCF15B0F3DF
:1003100082B3806882BBDF91CF911F910F91FF90D4
:10032000DF90CF9008950F931F93CF93DF938B01AE
:10033000D42F92B39F7792BB806283D182E08A955B
:10034000F1F700C0C0E006C0F801EC0FF11D80819C
:1003500078D1CF5FCD17C0F382B3806882BBDF91C5
:10036000CF911F910F91089582B38F7782BB82EE58
:1003700068D182E08A95F1F700C082B3806882BBC1
:10038000089582B38F7782BB81EE5BD182E08A953C
:10039000F1F700C082B3806882BB089580E070DF0F
:1003A000682F636080E07CDF43E060E670E080E11E
:1003B000BADF43E060E670E08AE0B5DF88B38160D1
:1003C00088BB8BE291E00197F1F700C00000CCDF21
:1003D000D8DF089543E063E670E080E1A4DF43E006
:1003E00063E670E08AE09FDF88B38E7F88BBBCDF66
:1003F000C8DF08950F931F93CF93DF938B01D42F02
:1004000098B39E7F98BB92B39F7792BB1AD182E03C
:100410008A95F1F700C0C0E006C0F801EC0FF11DAD
:1004200080810FD1CF5FCD17C0F382B3806882BBCC
:1004300088B3816088BBDF91CF911F910F910895A0
:10044000CF93DF93EC01C6DF80E01ADF8E7F682F49
:10045000626080E025DF8BE291E00197F1F700C058
:10046000000040E2BE0180EAC5DF88B3816088BB3E
:1004700098E29A95F1F788B38E7F88BB80E0DF9190
:10048000CF910895CF9380917800813009F066C0B4
:1004900080916D00811101C0A895CFB7F89410929A
:1004A0007800809199008F3FC1F481E080936D00C6
:1004B0001092720010926E0010926F0010927000F5
:1004C00010927100109273001092740010927500D7
:1004D0001092760082B38F7B82BB80919900873027
:1004E000E1F5809172008823B1F0E9E7F0E087E060
:1004F000808380916E0090916F00A0917000B09108
:10050000710081839283A383B48380916C0085837F
:10051000CF0196DF10C0E9E7F0E087E080838FEF3E
:100520009FEFDC0181839283A383B48380916C006D
:100530008583CF0185DF80919A00813071F48091AD
:100540009B00813019F482B3806482BB80919B0050
:10055000811103C082B38F7B82BBCFBFCF9108953F
:1005600088B38E7F88BB8FE097E20197F1F700C0D8
:1005700000006AE080E094DE8FE097E20197F1F7F7
:1005800000C0000060E081E08BDE61E082E088DE98
:1005900061E083E085DE60E084E082DE8FDE67E09C
:1005A0008DE17EDE60E08CE17BDE60E787E078DE77
:1005B0006CE485E075DE66E086E072DE43E063E6CB
:1005C00070E080E1B0DE43E063E670E08BE0ABDE3C
:1005D00060E281E165DEE2DE82B38F7B82BB08955B
:1005E000CF938AE18A95F1F700C087E049DEC82FF2
:1005F00086FF0BC040E269E970E081E66EDE60E4F0
:1006000087E04EDE81E080937800C5FF08C060E29D
:1006100087E046DEC3DE81E08093770007C0C4FF39
:1006200005C060E187E03CDEACDEB8DECF91089526
:1006300087B38C6287BB88B3837D88BB80E58DB927
:1006400008958FB9779BFECF08958FB9779BFECF22
:100650008FB1089590BD89B988E18AB98AB180685F
:100660008AB98BB182608BB98EE880BD08955D9B9D
:10067000FECF8CB908950F931F93CF93DF938C0116
:10068000C0E0D0E006C0F801EC0FFD1F8081EFDF75
:100690002196F80101900020E9F73197E01BF10B5A
:1006A000CE17DF0780F38DE0E2DF8AE0E0DFDF9145
:1006B000CF911F910F910895A1E21A2EAA1BBB1B87
:1006C000FD010DC0AA1FBB1FEE1FFF1FA217B3071E
:1006D000E407F50720F0A21BB30BE40BF50B661F34
:1006E000771F881F991F1A9469F7609570958095F8
:1006F00090959B01AC01BD01CF010895F894FFCF07
:0C070000B7B5A1B5B5A1737461727400A7
:00000001FF
