:020000040800F2
:100000003007002091010008E9140008BF13000820
:10001000E51400080B050008D518000800000000D2
:10002000000000000000000000000000F5160008BD
:100030000F05000800000000ED140008F716000886
:10004000AB010008AB010008AB010008AB010008E0
:10005000AB010008AB010008AB010008AB010008D0
:10006000AB010008AB010008AB010008AB010008C0
:10007000AB010008AB010008AB010008AB010008B0
:10008000AB010008AB010008AB010008AB010008A0
:10009000AB010008AB010008AB010008AB01000890
:1000A000AB010008AB010008AB010008AB01000880
:1000B000AB010008AB010008AB010008AB01000870
:1000C000AB010008AB010008AB010008AB01000860
:1000D000AB010008AB010008AB010008AB01000850
:1000E00011050008AB010008AB01000800F002F8A0
:1000F00000F03FF80AA090E8000C82448344AAF183
:100100000107DA4501D100F034F8AFF2090EBAE880
:100110000F0013F0010F18BFFB1A43F0010318473B
:100120007819000098190000103A24BF78C878C1E7
:10013000FAD8520724BF30C830C144BF04680C60ED
:10014000704700000023002400250026103A28BF35
:1001500078C1FBD8520728BF30C148BF0B60704739
:10016000782900F08380002070471FB51FBD10B5AF
:1001700010BD00F090F91146FFF7F7FF01F0C8FB42
:1001800000F0AEF903B4FFF7F2FF03BC00F0B6F9DC
:100190000948804709480047FEE7FEE7FEE7FEE71B
:1001A000FEE7FEE7FEE7FEE7FEE7FEE70448054957
:1001B000054A064B7047000069170008ED0000086B
:1001C00030010020300700203003002030030020E1
:1001D0000FB41CB50C0007AA009001D02044401EAB
:1001E000074B7B4469460190069800F034F9002CD7
:1001F00003D06946002000F041F91CBC5DF814FBF7
:10020000A10200002DE9F0410E46044600202062C4
:100210002046E168884730B3252805D0D4E901217C
:100220009047206A401CF2E7E16820460027884793
:10023000050018D0A5F14100192802D820354FF447
:1002400000673246294620462760FFF789FF40B104
:10025000012804D0F61D26F007060836D8E7361D1B
:10026000D6E72846DAE7206ABDE8F08170B5044693
:100270000D4621461068AFF300802188090502D59C
:100280000F4A7A4402E00E4A7A440E32002104F109
:10029000240305E000F00F060009965D5E54491C3A
:1002A0000028F7D120780023000704D5702D02D054
:1002B00009B1022311322046BDE8704000F06DB84C
:1002C000EA17000010B5431C02E010F8011B71B1E1
:1002D0008107FAD14FF0013202C88C1A8C4314EA1C
:1002E000C211F9D0C01A0A0603D0C01E10BDC01A30
:1002F00010BD0A0401D0801E10BD0902FCD0401EB2
:1003000010BD4FF000020429C0F0128010F0030C61
:1003100000F01B80CCF1040CBCF1020F18BF00F8F8
:10032000012BA8BF20F8022BA1EB0C0100F00DB8A7
:100330005FEAC17C24BF00F8012B00F8012B48BF05
:1003400000F8012B70474FF0000200B513469446A9
:100350009646203922BFA0E80C50A0E80C50B1F11D
:100360002001BFF4F7AF090728BFA0E80C5048BF31
:100370000CC05DF804EB890028BF40F8042B08BFCF
:10038000704748BF20F8022B11F0804F18BF00F8CB
:10039000012B70477047704770472DE9F0470D46B5
:1003A00099469246044600F124080168880604D55F
:1003B000E06921F01001216000E00120A84201DD88
:1003C000471B00E00027A1697A1902EB0900081A0F
:1003D000A0612078C00602D42046AFF3008000263A
:1003E00008E0D4E901211AF806009047206A401C71
:1003F000761C20624E45F4DB2078C0060AD52046E4
:10040000AFF3008006E0D4E9012130209047206A54
:10041000401C2062381EA7F10107F4DC07E0D4E994
:10042000012118F805009047206A401C2062281E10
:10043000A5F10105F3DC2046AFF30080207800062B
:1004400002D50220BDE8F0870120FBE701694A1CC4
:1004500002610878704700B58FB0CDE90131002105
:10046000059105497944CDE9031011466846FFF727
:10047000C9FE0FB000BD0000E5FFFFFF0A6802F8EB
:10048000010B0A607047D1E900239A4202D2531C43
:100490000B6010707047754600F02CF8AE460500F2
:1004A0006946534620F00700854618B020B5FFF78F
:1004B0007DFEBDE820404FF000064FF000074FF0F2
:1004C00000084FF0000B21F00701AC46ACE8C00972
:1004D000ACE8C009ACE8C009ACE8C0098D4670477B
:1004E00010B50446AFF300802046BDE81040FFF78A
:1004F00049BE000000487047D00000200149182084
:10050000ABBEFEE726000200704700BFFEE7704763
:1005100010B54FF4004000F00DF810BD72B600BFEA
:10052000FEE710B50446B4F5004F01D100F0F4FF2A
:1005300010BD000010B5044604480068204020B1FA
:10054000024804602046FFF7ECFF10BD1404014090
:100550002DE9F8470346002294466EE14FF001086A
:1005600008FA02F4D1F8008008EA0400A0427DD124
:10057000DFF8DCA2D1F80480A8EB0A09D0453AD014
:1005800014DCB8F1030F50D009DCB8F1000F31D002
:10059000B8F1010F1CD0B8F1020F49D120E0B8F139
:1005A000110F18D0B8F1120F42D11EE0B9F5881F13
:1005B00025D006DCB9F5803F20D0B9F5801F37D1B2
:1005C0001AE0B9F5001F18D0B9F5041F30D117E0B3
:1005D000D1F80CC02DE0D1F80C8008F1040C28E013
:1005E000D1F80C8008F1080C23E0D1F80C8008F158
:1005F0000C0C1EE000BF00BF00BF00BF00BF00BF6B
:10060000D1F80880B8F1000F02D14FF0040C0BE0D4
:10061000D1F80880B8F1010F03D14FF0080C1C612C
:1006200002E04FF0080C5C6103E04FF0000C00E0CA
:1006300000BF00BFFF2801D8984601E003F104087D
:100640004646FF2802D84FEA820803E0A2F10808D4
:100650004FEA88084746D6F800804FF00F0909FA9C
:1006600007F928EA09080CFA07F900E088E048EAE7
:100670000908C6F80080D1F8048008F08058B8F165
:10068000805F7DD100BFDFF8CC81D8F8188048F0BA
:100690000108DFF8C091C9F81880C846D8F818805A
:1006A00008F00108CDF8008000BF00BF4FEAB9385C
:1006B0004FEA920958F829504FEA82784FEA1879A0
:1006C0004FF00F0808FA09F825EA0805DFF88881D5
:1006D000434502D14FF0000816E0DFF88081434522
:1006E00002D14FF001080FE0DFF87481434502D1D9
:1006F0004FF0020808E0DFF86C81434502D14FF06B
:10070000030801E04FF004084FEA82794FEA1979B3
:1007100008FA09F848EA0505DFF84C814FEA920922
:1007200048F82950D1F8048008F48038B8F5803FA3
:100730000AD1DFF83881D8F8008048EA0008DFF8ED
:100740002C91C9F8008009E0DFF82081D8F80080FA
:1007500028EA0008DFF81491C9F80080D1F8048075
:1007600008F40038B8F5003F10D1DFF8008108F137
:100770000408D8F8008048EA0008DFF8F09000E0AC
:100780005AE009F10409C9F800800DE0DFF8DC80C7
:1007900008F10408D8F8008028EA0008DFF8CC90B7
:1007A00009F10409C9F80080D1F8048008F4801820
:1007B000B8F5801F0ED1DFF8B48008F10808D8F82A
:1007C000008048EA0008DFF8A49009F10809C9F898
:1007D00000800DE0DFF8948008F10808D8F8008068
:1007E00028EA0008DFF8849009F10809C9F80080B8
:1007F000D1F8048008F40018B8F5001F0ED1DFF816
:100800006C8008F10C08D8F8008048EA0008DFF88E
:100810005C9009F10C09C9F800800DE0DFF84C800C
:1008200008F10C08D8F8008028EA0008DFF83C90AE
:1008300009F10C09C9F80080521CD1F8008028FA8F
:1008400002F8B8F1000F7FF489AEBDE8F887000028
:10085000000011100010024000080140000C01408F
:100860000010014000140140080001400004014054
:10087000024693680B400BB1012000E00020704756
:100880000AB1016101E00B0403617047014800688F
:10089000704700001000002070B504460CB901201C
:1008A00070BD4CF6CC402168086045F25550216877
:1008B0000860D4E9001048602168A0688860FFF7EC
:1008C000E5FF05460BE0FFF7E1FF401B272806D9AF
:1008D0002068C06800F0030008B10320E0E720684A
:1008E000C06800F003000028EDD14AF6AA20216874
:1008F00008600020D4E701464AF6AA200A68106082
:1009000000207047034800680349097808440149FA
:1009100008607047100000201800002010B508483B
:10092000006840F0100006490860032000F0CAF893
:100930000F2000F007F800F02BF8002010BD000099
:100940000020024070B504460E4800784FF47A71DA
:10095000B1FBF0F00C490968B1FBF0F5284600F056
:100960002DFC08B1012070BD102C07D200222146B9
:10097000501E00F069F80548046001E00120F2E72C
:100980000020F0E7180000201C00002014000020C8
:1009900008B500BF1148806940F001000F49886127
:1009A0000846806900F00100009000BF00BF00BF52
:1009B0000846C06940F08050C8610846C06900F030
:1009C0008050009000BF00BF00BF0549486820F07C
:1009D000E06040F00070486000BF08BD00100240B9
:1009E0000000014010B501460846002817DB00F062
:1009F0001F0301229A400B4B440943F8242000BFF7
:100A000000BF00BFBFF34F8F00BF00BF00BF00BFDC
:100A100000BF00BFBFF36F8F00BF00BF00BF00BFAC
:100A200010BD000080E100E001460846002809DB17
:100A300000F01F0301229A4043099B0003F1E023C9
:100A4000C3F8002100BF70472DE9F05F80460D46D6
:100A50001646002700F040FF074639462A4633462F
:100A600001F00700C0F1070ABAF1040F02D94FF0F4
:100A7000040A01E0C0F1070AD14600F1040ABAF104
:100A8000070F02D24FF0000A01E0A0F1030AD4469A
:100A90004FF0010A0AFA09FAAAF1010A0AEA020A5F
:100AA0000AFA0CFA4FF0010B0BFA0CFBABF1010B3D
:100AB0000BEA030B4AEA0B042146404600F014FF00
:100AC000BDE8F09F00BF00F00702064B19684FF623
:100AD000FF031940044B0B4343EA0221014B196009
:100AE00000BF70470CED00E00000FA0570B5044649
:100AF0000D460CB9012070BD5A48006800F007008F
:100B0000A8420ED25748006820F0070028435549F4
:100B100008600846006800F00700A84201D00120E4
:100B2000E9E7207800F0020002281DD1207800F0CB
:100B30000400042805D14C48406840F4E0604A496C
:100B40004860207800F00800082805D14648406831
:100B500040F46050444948604348406820F0F00049
:100B6000A168084340494860207800F0010078B34C
:100B70006068012806D13C48006800F4003090B954
:100B80000120B8E76068022806D13748006800F005
:100B9000007040B90120AEE73348006800F0020061
:100BA00008B90120A7E73048406820F003006168D9
:100BB00008432D494860FFF769FE064609E0FFF744
:100BC00065FE801B41F28831884202D9032092E7FA
:100BD00007E02548406800F00C006168B0EB810F29
:100BE000EDD12048006800F00700A8420ED91D484A
:100BF000006820F0070028431A490860084600688A
:100C000000F00700A84201D0012074E7207800F02E
:100C10000400042807D11448406820F4E060E1682B
:100C2000084311494860207800F00800082808D1DE
:100C30000D48406820F46050216940EAC1000A492B
:100C4000486000F03FF808494968C1F30311074ABA
:100C5000515CC8400649086006480068FFF772FE0C
:100C6000002048E70020024000100240581A000807
:100C70001C0000201400002001480068704700009C
:100C80001C00002000B5FFF7F7FF04494968C1F3D5
:100C90000221034A515CC84000BD00000010024020
:100CA000681A000800B5FFF7E7FF04494968C1F377
:100CB000C221034A515CC84000BD00000010024040
:100CC000681A0008F0B585B00FF26C0C9CE8E010D3
:100CD00001A8A0E8E0101CA52D68009500210022C5
:100CE000002300240020194D696801F00C05F5B1BE
:100CF000042D02D0082D19D101E0154819E001ADED
:100D0000C1F38346AC5D01F4803555B10F4D6D687C
:100D1000C5F340451DF805200D4D6543B5FBF2F3C5
:100D200002E00C4D04FB05F3184602E000BF084842
:100D300000BF00BF05B0F0BD0203040506070809A7
:100D40000A0B0C0D0E0F10100102000000100240E3
:100D500000127A0000093D00F8B504460CB90120E4
:100D6000F8BD207800F00100002878D0F8484068ED
:100D700000F00C0004280CD0F548406800F00C008E
:100D8000082811D1F248406800F48030B0F5803F67
:100D90000AD1EF48006800F4003000285FD0606896
:100DA00000285CD10120DBE700BF6068B0F5803F20
:100DB00006D1E748006840F48030E549086028E043
:100DC000606858B9E248006820F48030E049086063
:100DD0000846006820F4802008601AE06068B0F5DA
:100DE000A02F0BD1DA48006840F48020D849086071
:100DF0000846006840F4803008600AE0D448006883
:100E000020F48030D24908600846006820F4802031
:100E1000086000BF606888B1FFF738FD054606E04E
:100E2000FFF734FD401B642801D9032098E7C84828
:100E3000006800F400300028F2D010E0FFF726FD33
:100E4000054606E0FFF722FD401B642801D9032078
:100E500086E7BF48006800F400300028F2D120780F
:100E600000F00200022857D1B948406800F00C0099
:100E700050B1B748406800F00C00082818D1B448B9
:100E8000406800F4803098B9B148006800F0020072
:100E900020B12069012801D0012061E7AC48006839
:100EA00020F0F800616940EAC100A949086033E018
:100EB0002069E8B10120A7490860FFF7E7FC054673
:100EC00006E0FFF7E3FC401B022801D9032047E7B7
:100ED0009F48006800F002000028F2D09C4800689B
:100EE00020F0F800616940EAC1009949086013E008
:100EF000002098490860FFF7C9FC054606E0FFF7A7
:100F0000C5FC401B022801D9032029E7904800684E
:100F100000F002000028F2D1207800F00800082834
:100F20002DD1A069B8B101208B490860FFF7AEFC54
:100F3000054606E0FFF7AAFC401B022801D9032062
:100F40000EE78348406A00F002000028F2D001203A
:100F500000F0CEFA13E000207F490860FFF796FC0E
:100F6000054606E0FFF792FC401B022801D903204A
:100F7000F6E67748406A00F002000028F2D12078B7
:100F800000F00400042873D100277148C06900F004
:100F9000805070B900BF6E48C06940F080506C4905
:100FA000C8610846C06900F08050009000BF00BFD3
:100FB00001276A48006800F48070B0B9674800688B
:100FC00040F4807065490860FFF760FC054606E064
:100FD000FFF75CFC401B642801D90320C0E65F4892
:100FE000006800F480700028F2D000BFE06801289B
:100FF00006D15748006A40F001005549086227E0D1
:10100000E06858B95248006A20F00100504908626F
:101010000846006A20F00400086219E0E06805282C
:101020000BD14B48006A40F0040049490862084669
:10103000006A40F0010008620AE04548006A20F0BA
:101040000100434908620846006A20F00400086273
:1010500000BFE068A0B1FFF719FC054609E0FFF703
:1010600015FC401B41F28831884202D9032077E603
:1010700022E03748006A00F002000028EFD012E0BA
:10108000FFF704FC054608E0FFF700FC401B41F2B7
:101090008831884201D9032062E62D48006A00F0B9
:1010A00002000028F0D1012F05D12948C06920F0A5
:1010B00080502749C86100BFE069C8B32448406830
:1010C00000F00C00082860D0E069022848D1002018
:1010D00020490866FFF7DAFB054606E0FFF7D6FB76
:1010E000401B022801D903203AE61948006800F0A5
:1010F00000700028F2D1206AB0F5803F07D1144873
:10110000406820F40030A168084311494860D4E9E0
:10111000080108430E49496821F4741108430C4939
:10112000486001200B490866FFF7B0FB054607E061
:101130003DE0FFF7ABFB401B022801D903200FE67F
:101140000348006800F000700028F2D02FE0000093
:101150000010024000004242800442420070004001
:10116000002014490866FFF791FB054606E0FFF7EB
:101170008DFB401B022801D90320F1E50E480068D1
:1011800000F000700028F2D111E0E069012800D1E0
:10119000E6E50948466806F48031206A814204D1B8
:1011A00006F47011606A814201D00120D8E5002068
:1011B000D6E50000000042420010024070B504462F
:1011C0002546681EB0F1807F01D301200FE0681E24
:1011D0004FF0E02148610F214FF0FF3000F084FB19
:1011E00000204FF0E021886107200861002070BDD9
:1011F00010B504460CB9012010BDA06900B100E093
:1012000000BF94F83D0028B9002084F83C00204637
:1012100000F028F8242084F83D002068C06820F4FD
:1012200000502168C860204600F0A0FA20680069DC
:1012300020F49040216808612068406920F02A006D
:10124000216848612068C06840F400502168C86087
:1012500000202064202084F83D0084F83E00002017
:10126000CAE7000010B586B0044600200290039043
:10127000049005901A49206888422ED100BF194871
:10128000806940F48040174988610846806900F40D
:101290008040019000BF00BF00BF0846806940F059
:1012A000040088610846806900F00400019000BFD6
:1012B00000BF48150290022003900320059002A968
:1012C0000948FFF745F94FF4806002900020039031
:1012D000049002A90448FFF73BF906B010BD0000D6
:1012E0000038014000100240000801402DE9F84F8D
:1012F00004460E46174699464FF0000A94F83D0002
:1013000020285AD106B117B90120BDE8F88F00BFD7
:1013100094F83C00012801D10220F6E7012084F86E
:101320003C0000BF00202064212084F83D00FFF72E
:10133000ADFA8246A784E784A068B0F5805F04D147
:10134000206910B90025B04602E035464FF000088C
:1013500000BF002084F83C0000BF1BE05346002281
:1013600080212046CDF8009000F07EFA08B10320DD
:10137000CBE745B9B8F80000C0F308002168486021
:1013800008F1020803E02878216848606D1CE08CB1
:10139000401EE084E08C0028E0D15346002240212A
:1013A0002046CDF8009000F05FFA08B10320ACE7CA
:1013B000202084F83D000020A7E70220A5E700BF19
:1013C000FEE7000000B585B0002001900290039078
:1013D000049000BF2748806940F0100025498861CB
:1013E0000846806900F01000009000BF00BF00BFF9
:1013F0000846806940F0200088610846806900F056
:101400002000009000BF00BF00BF0846806940F088
:10141000040088610846806900F00400009000BF65
:1014200000BF00224FF400511348FFF729FA4FF490
:1014300000500190012002900020039002200490AF
:1014400001A90D48FFF784F84FF4004001900B48C4
:1014500002900020039001A90948FFF779F80022C3
:1014600011462820FFF7F0FA2820FFF7DDFA05B033
:1014700000BD0000001002400010014000003110CB
:101480000008014010B5074807490860042048607B
:1014900040F6FF7104488160FFF7FEF908B1FFF7DD
:1014A0003DF810BD003000404000002010B50B4852
:1014B0000B4908604FF4E130486000210848816022
:1014C000C16001610C21416100218161C161FFF7AF
:1014D0008FFE08B1FFF722F810BD00000038014070
:1014E0004C00002000BFFEE700BFFEE77047000091
:1014F00008B508490968C9084FF47A72B1FBF2F1DE
:101500004143009100BF00BF00994A1E009200298C
:10151000F9D108BD1C0000202DE9F04100BF68484A
:1015200000686849B0FBF1F067494968B1FBF0F029
:1015300005464FF400416548FFF79AF906466448AE
:1015400000682C1A6248056062480078102826DA84
:10155000012E0DD1B4F5487F02D9B4F5966F1ED394
:101560005C480078D8B100205A490870BDE8F08185
:10157000B4F5487F0FD9B4F5966F0CD25548007872
:10158000401C5449087008460078102807D10020F4
:1015900051490870EAE700204E490870E6E74D48D7
:1015A000007810287ED1012E0DD1B4F5487F02D9E4
:1015B000B4F5966F76D34848007800287ED0002096
:1015C00044490870D2E7B4F5487F73D9B4F5486F41
:1015D00070D2B4F5FA6F01D3012000E000203F493A
:1015E0003D4A127888543C480078401C3A490870BB
:1015F00008460078202861D100200BE0C0F10701E7
:10160000364A515C364A127801EB4201344A117075
:10161000411CC8B20828F1DB08200BE0C0F117011B
:101620002E4A515C2F4A127801EB42012D4A11706B
:10163000411CC8B21028F1DB10200BE0C0F12701DB
:10164000264A515C284A127801EB4201264A117061
:10165000411CC8B21828F1DB18200BE0C0F137019B
:101660001E4A515C214A127801EB42011F4A117057
:10167000411CC8B22028F1DB00271948007819491D
:1016800009780844184909780844C7B2F843401C4F
:10169000C7B200200F49087014480078B84205D13D
:1016A000012001E00AE005E0114908702820FFF759
:1016B00099F903E000200749087057E700BF55E794
:1016C0001C00002040420F00001000E00008014014
:1016D00008000020040000200C0000202000002052
:1016E0000000002001000020020000200300002074
:1016F0000D000020704710B5FFF704F910BD00B5CC
:101700008FB0282105A8FEF71EFE14216846FEF7BB
:101710001AFE092005904FF48030069000200790B3
:10172000012009900B9002200C90C1030D914FF401
:10173000E0110E9105A8FFF70FFB08B1FEF7EEFED2
:101740000F20009002200190002002904FF4806052
:1017500003900020049002216846FFF7C7F908B102
:10176000FEF7DCFE0FB000BD7047000070B5044608
:101770002168096921F44051E2681143226811612E
:101780002269A1681143626941EA02052168C968BA
:1017900041F20C62914329432268D1602168496972
:1017A00021F44071A2691143226851612D4A2168D8
:1017B000914202D1FFF776FA01E0FFF763FA00EBFE
:1017C000C00101EB001162689200B1FBF2F100EB85
:1017D000C00202EB001263689B00B2FBF3F26423C9
:1017E000B2FBF3F202EBC20303EB0212A1EB8201A4
:1017F000322202EB01116422B1FBF2F101F0F0019F
:1018000000EBC00202EB001263689B00B2FBF3F234
:101810006423B2FBF3F201EB021200EBC00101EB17
:10182000001163689B00B1FBF3F100EBC00303EB15
:1018300000136668B600B3FBF6F36426B3FBF6F359
:1018400003EBC30606EB0313A1EB8301322303EB87
:1018500001116423B1FBF3F101F00F01114422687F
:10186000916070BD003801402DE9F04104460D46FD
:1018700017469846069E21E0701CF8B12EB1FFF77E
:1018800005F8A0EB0800B04218D92068C06820F421
:10189000D0702168C8602068406920F0010021688C
:1018A0004861202084F83D0084F83E0000BF0020FD
:1018B00084F83C0000BF0320BDE8F0812068006888
:1018C0002840A84201D1012000E00020B842D3D036
:1018D0000020F1E700BFFEE702480068C0F30220E5
:1018E000704700000CED00E010B5002804DB0A078B
:1018F000130E054A135406E00A07140E034A00F0BB
:101900000F031B1FD45410BD00E400E018ED00E0ED
:101910000EB5FFF703F8FFF7F2FEFFF753FDFFF7F1
:10192000B1FDFFF7C3FD00BF2C48006840F0807098
:101930002A4908602A48006840F0010028490860E8
:1019400000BF4FF48053072226A12848FFF7CEFCA2
:1019500043E02748007801283CD1264800782649F2
:101960000978264A1278CDE90021029024480378AC
:1019700024A240213348FEF72BFC3248FEF7A2FC9C
:1019800084B24FF4805322462E491848FFF7AEFC2C
:1019900020212D48FEF7B5FC002019490870174991
:1019A00008701549087013490870114908704FF400
:1019B0000040264908602820002807DB00F01F02AD
:1019C00001219140224A430942F8231000BF2820F8
:1019D000FFF72AF81F48FEF78EFFBAE7FCED00E09C
:1019E000001000E053544152540D0A004C000020F6
:1019F0000D00002003000020020000200100002054
:101A000000000020616464723A20307825582C2050
:101A1000092074785F616464723A20307825582C0C
:101A2000200920636F6D6D616E643A20307825580F
:101A30002C200920637263203D20307825580D0A40
:101A4000000000009000002020000020140401404D
:101A500080E200E0400000200000000000000000E4
:101A60000102030406070809000000000102030444
:101A700030313233343536373839414243444546C4
:101A800040305800303132333435363738396162BE
:101A90006364656640307800B81A000800000020D2
:101AA0002000000028010008D81A000820000020AB
:101AB00010070000440100080000000000000000C2
:101AC0000000000000000000000000001000000006
:081AD000010000000024F400F5
:04000005080000ED02
:00000001FF
