:1000000012C024C023C022C021C020C01FC01EC0F7
:100010001DC01CC01BC01AC019C018C017C016C014
:1000200015C014C013C011241FBECFE5D4E0DEBF3D
:10003000CDBF12E0A0E6B0E0E8EDF1E002C005902F
:100040000D92AE35B107D9F7AAD0C4C0D9CF81304F
:1000500021F482B3806882BB03C082B38F7782BBF6
:1000600088B38B7F88BB6FB9779BFECF88B38460E2
:1000700088BB089581B3806C81BB87B38C6287BBDA
:1000800081E58DB982B38F7B82BB82B3806482BBF2
:1000900061E280E0DCDF6AEB80E0D9DF64E080E0F1
:1000A000D6DF64E180E0D3DF60E280E0D0DF6CE0A7
:1000B00080E0CDDF08951F93CF93DF9390EE980FEC
:1000C000913600F5182F60E081E0C1DFC0E0D0E09C
:1000D00013C0212F30E020523109F901EE0FFF1F2C
:1000E000EE0FFF1FE20FF31FE358FF4FEC0FFD1F52
:1000F000608181E0ACDF2196C530D10554F360E02A
:1001000081E0A5DFDF91CF911F910895CF93DF9319
:10011000C0E0D0E004C060E081E099DF2196C83FF4
:1001200081E0D807C4F3DF91CF910895CF939BEA84
:10013000899FC12D1124C695C695C6952C2F220FD7
:10014000C20F2C2F220F220FC82FC21B699F812D97
:10015000112486958695982F990F890F982F990FBE
:10016000862F891B60E4680F80E071DF6C2F660FBB
:10017000660F660F6C1B605880E069DFCF910895B1
:10018000CF93DF93EC01862F642FD0DF02C021963E
:1001900092DF88818111FBCFDF91CF9108956ADFD3
:1001A000B5DF40E061E080E690E0EADF42E061E058
:1001B0008BE690E0E5DF43E066E086E790E0E0DF95
:1001C0002FEF89E698E1215080409040E1F700C090
:0801D0000000F6CFF894FFCF08
:1001D8004E6F6B6961203333313000436F6E6E654B
:1001E8006374696E670050656F706C65000000008D
:1001F800000000005F00000007000700147F147F64
:1002080014242A7F2A12231308646236495522507F
:100218000005030000001C2241000041221C0014BC
:10022800083E081408083E08080050300000080876
:10023800080808006060000020100804023E5149C8
:10024800453E00427F400042615149462141454BAD
:10025800311814127F1027454545393C4A49493021
:1002680001710905033649494936064949291E00DD
:1002780036360000005636000008142241001414D7
:100288001414140041221408020151090632497954
:10029800413E7E1111117E7F494949363E41414117
:1002A800227F4141221C7F494949417F09090901AF
:1002B8003E4149497A7F0808087F00417F41002074
:1002C80040413F017F081422417F404040407F0267
:1002D8000C027F7F0408107F3E4141413E7F09099F
:1002E80009063E4151215E7F091929464649494977
:1002F8003101017F01013F4040403F1F2040201F46
:100308003F4038403F6314081463070870080761CA
:1003180051494543007F4141000204081020004133
:10032800417F0004020102044040404040000102B5
:10033800040020545454787F484444383844444492
:1003480020384444487F3854545418087E09010220
:100358000C5252523E7F0804047800447D4000202D
:1003680040443D007F1028440000417F40007C0449
:100378001804787C0804047838444444387C1414FD
:100388001408081414187C7C0804040848545454AD
:1003980020043F4440203C4040207C1C2040201C3E
:1003A8003C4030403C44281028440C5050503C44B9
:1003B80064544C44000836410000007F00000041AE
:0E03C8003608001008081008784641467800F4
:00000001FF
