:020000040800F2
:10000000C80700205102000889140008910A00085E
:10001000851400082B0A0008911E0008000000004B
:10002000000000000000000000000000411B00086C
:100030002F0A000800000000FD190008431B0008FB
:100040006B0200086B0200086B0200086B020008DC
:100050006B0200086B0200086B0200086B020008CC
:100060006B0200086B020008610A00086B020008BE
:100070006B0200086B0200086B0200086B020008AC
:100080006B0200086B0200086B0200086B0200089C
:100090006B0200086B0200086B020008770A000878
:1000A0006B0200086B0200086B0200086B0200087C
:1000B0006B0200086B0200086B0200086B0200086C
:1000C0006B0200086B0200086B0200086B0200085C
:1000D0006B020008A11C00086B0200086B020008FC
:1000E0006B0200086B0200086B0200086B0200083C
:1000F0006B0200086B0200086B0200086B0200082C
:100100006B0200086B0200086B0200086B0200081B
:100110006B0200086B0200086B0200086B0200080B
:100120006B0200086B0200086B0200086B020008FB
:100130006B0200086B0200086B0200086B020008EB
:100140006B0200086B0200086B0200086B020008DB
:100150006B0200086B0200086B0200086B020008CB
:100160006B0200086B0200086B0200086B020008BB
:100170006B0200086B0200086B0200080000000020
:100180006B0200086B02000800F002F800F050F863
:100190000AA090E8000C82448344AAF10107DA45E2
:1001A00001D100F045F8AFF2090EBAE80F0013F0E4
:1001B000010F18BFFB1A43F0010318475824000031
:1001C00078240000103A24BF78C878C1FAD85207C2
:1001D00024BF30C830C144BF04680C6070470000C1
:1001E0000023002400250026103A28BF78C1FBD840
:1001F000520728BF30C148BF0B607047642900F028
:10020000FB80752900F0F880782900F0318100200A
:1002100070471FB502F0D0F900F0A4FB04000020E5
:10022000002102F0B3F9401C60601FBD10B510BD85
:1002300000F073FB1146FFF7ECFF01F0C7FE00F082
:10024000A3FB03B4FFF7F2FF03BC00F0E7FB0000E1
:100250000948804709480047FEE7FEE7FEE7FEE75A
:10026000FEE7FEE7FEE7FEE7FEE7FEE70448054996
:10027000054A064B704700008D1C000889010008E4
:10028000C8010020C8070020C8030020C8030020C0
:1002900053EA020C00F069802DE9F04B4FF00006A4
:1002A000002B1FBFB3FA83F503FA05F424FA05F611
:1002B0005E4012BF1643B2FA82F502FA05F4C5F1A8
:1002C00020051EBF22FA05FC44EA0C04203556EA3C
:1002D000044C4FEA144418BF641C4FF000084FF060
:1002E0000009904271EB030C39D3002919BFB1FA10
:1002F00081F701FA07F6B0FA80F700FA07F6C7F1BE
:1003000020071EBF20FA07FC46EA0C062037B6FB82
:10031000F4FCA7EB0507103F07F01F0BCBF12006FD
:100320000CFA0BFB2CFA06F644BFB3460026202F2E
:10033000A4BF5E464FF0000B5BEA060C08BF4FF00F
:10034000010B19EB0B09ABFB027C48EB0608C01B49
:1003500006FB02CC0BFB03CC71EB0C01C1E70B4697
:10036000024641464846BDE8F08B13B54FF0000009
:100370004FF00001AFF30080BDE81C407047000063
:100380000FB41CB5074B06AA7B446946009005983C
:1003900000F017FA0020694600F026FA1CBC5DF850
:1003A00014FB00005D04000070B504468569006818
:1003B000C10601D5302600E02026C00707D070BD59
:1003C000D4E9012130469047206A401C20626D1E0E
:1003D000F6D570BD70B5044685690078C00707D1B1
:1003E00070BDD4E9012120209047206A401C206282
:1003F0006D1EF6D570BD00002DE9F04106460024C3
:1004000010687529314616A510D0AFF3008000287A
:1004100002DA404213A507E031688A0701D512A528
:1004200002E0490704D511A5012401E0AFF30080E3
:1004300000210A2206F1240709E0B0FBF2FCB0FB20
:10044000F2F302FB1C00303078541846491C002897
:10045000F3D123462A463046BDE8F04100F052B9B8
:10046000000000002D0000002B0000002000000014
:1004700070B504460D4621461068AFF30080218810
:10048000090502D50F4A7A4402E00E4A7A440E3238
:10049000002104F1240305E000F00F060009965D39
:1004A0005E54491C0028F7D120780023000704D5AA
:1004B000702D02D009B1022311322046BDE87040F0
:1004C00000F020B9502100002DE9F05F8946044674
:1004D0004FF0000ADFF874B1FB44C0F820A02046BA
:1004E000E1688847002874D0252806D0D4E9012186
:1004F0009047206A401C2062F1E700265F462046B4
:10050000E16888472028054607DB312D05D2781998
:1005100010F8200C08B10643F1E7B00701D526F02A
:100520000406C4F81CA00027C4F818A02A2D09D07E
:10053000284601F003FD38B304EB8708303DC8F8C6
:10054000185019E059F8041B204604EB870291610A
:10055000E1688847012F054618D1E069002820DAB4
:1005600026F020061DE0D8F8180000EB800005EB0F
:1005700040003038C8F818002046E1688847054632
:1005800001F0DCFC0028EED1012F0AD02E2D08D17D
:100590002046E16888477F1C0546022F46F020066A
:1005A000C4DBA069002803DA404246F00106A061DE
:1005B000F00701D026F010066C2D0BD0682D09D065
:1005C0004C2D39D06A2D35D0742D35D07A2D33D0BD
:1005D00016E038E0E1682F4620468847B8420546D5
:1005E00009D16C2F26D04FF48060E1680643204685
:1005F0008847054604E06C2F1AD04FF480700643FC
:100600000DB3A5F14100192802D8203546F4006643
:100610004A462946204626604E46FFF7EFFD80B148
:1006200001280BD0F61D26F0070000F1080956E757
:100630004020E4E78020D8E70020D6E706F104094F
:100640004DE7284652E7206ABDE8F09F26210000CA
:1006500070B5064600F052F80468054630460A2296
:10066000002100F0C6F82C6070BD10B5431C02E0FC
:1006700010F8011B71B18107FAD14FF0013202C8A5
:100680008C1A8C4314EAC211F9D0C01A0A0603D09E
:10069000C01E10BDC01A10BD0A0401D0801E10BDBE
:1006A0000902FCD0401E10BD4FF0000200B51346F9
:1006B00094469646203922BFA0E80C50A0E80C5082
:1006C000B1F12001BFF4F7AF090728BFA0E80C5033
:1006D00048BF0CC05DF804EB890028BF40F8042B2C
:1006E00008BF704748BF20F8022B11F0804F18BF99
:1006F00000F8012B704770477047704700487047FB
:10070000640100202DE9F0470D46994692460446C3
:1007100000F124080168880604D5E06921F0100181
:10072000216000E00120A84201DD471B00E0002716
:10073000A1697A1902EB0900081AA0612078C006A5
:1007400002D42046FFF730FE002608E0D4E901215C
:100750001AF806009047206A401C761C20624E451D
:10076000F4DB2078C0060AD52046FFF71DFE06E020
:10077000D4E9012130209047206A401C2062381EB5
:10078000A7F10107F4DC07E0D4E9012118F805001E
:100790009047206A401C2062281EA5F10105F3DC69
:1007A0002046FFF717FE2078000602D50220BDE89C
:1007B000F0870120FBE7000001694A1C026108780C
:1007C000704700B58FB0CDE9013100210591054991
:1007D0007944CDE9031011466846FFF775FE0FB066
:1007E00000BD0000E5FFFFFF0A6802F8010B0A6088
:1007F00070472DE9F04791460F4680460446002693
:1008000014F8015B2DB100F031F80068405DC007BD
:10081000F6D12B2D02D02D2D18D0641E4A46394614
:10082000204600F02BF827B13968A14201D1C7F862
:1008300000804FF0020471050BD54042002803DD13
:10084000FFF75CFF0460A007BDE8F08746F4806610
:10085000E4E70028F8DAFFF751FF04606FF000408A
:10086000F2E70000004870476401002010B500F076
:1008700079F8001D10BD00BF151D00002DE9F05FC7
:10088000824615468B4600270AF10104B9460078D6
:10089000302801D09DB113E014F8010B012778280E
:1008A00003D0582801D045B10AE00DB1102D07D171
:1008B000002714F8010B102502E0082500E00A25A6
:1008C0000026B0460EE005FB080005FB06F10127F7
:1008D0001FFA80F801EB1046B6F5803F00D3B94609
:1008E00014F8010B294600F041F80028EBDABBF1BF
:1008F000000F05D00FB1641E00E05446CBF8004055
:10090000B9F1000F06D0FFF7F9FE02210160C81E01
:10091000BDE8F09F48EA0640FAE77546FFF7A2FFF8
:10092000AE4605006946534620F00700854618B0DC
:1009300020B5FFF79BFCBDE820404FF000064FF0CC
:1009400000074FF000084FF0000B21F00701AC4604
:10095000ACE8C009ACE8C009ACE8C009ACE8C00923
:100960008D46704700487047840100203A2800D225
:10097000303820F02002412A01D3A2F1370088420A
:1009800001D34FF0FF30704710B50446AFF300803D
:100990002046BDE81040FFF754BC00004FF0013C7A
:1009A00050F8042B51F8043B9A4221D1A2EB0C03DE
:1009B000934313EACC1317D150F8042B51F8043B9E
:1009C0009A4215D1A2EB0C03934313EACC130BD13B
:1009D00050F8042B51F8043B9A4209D1A2EB0C03C6
:1009E000934313EACC13DBD04FF00000704700BFF5
:1009F000D01A01BAB1FA81F101F0180122FA01F01E
:100A0000CB40C1F12001DBB2C0B2C01A2CFA01F315
:100A1000D11A914311EAC311E6D170470149182058
:100A2000ABBEFEE726000200704700BFFEE770473E
:100A300001B5094800680949B0FBF1F00921B0FB94
:100A4000F1F000994843009000BF0098411E0091CA
:100A50000028FAD108BD0000AC00002040420F0081
:100A600010B5102000F0ECF820B1102000F054F880
:100A700001F054F810BD10B54FF4807000F0E0F8AC
:100A800028B14FF4807000F047F800F003F810BD73
:100A900000BFFEE710B501240A20FFF7C9FF0720B9
:100AA00000F0BEFD044604F0400058B120220A497F
:100AB000612000F0F1FD4021072000F0B5FE01208B
:100AC0000649087004F0200028B12021072000F01A
:100AD000ABFE00F0DBFC10BDB000002006000020E3
:100AE00008B5054909680143034A116011460968C0
:100AF0000140009100BF08BD3038024008B50549EB
:100B000009680143034A11601146096801400091D8
:100B100000BF08BD4438024001490860704700002A
:100B2000143C0140024909688143014A1160704741
:100B3000043C0140024909688143014A1160704741
:100B4000003C0140024909680143014A11607047B5
:100B5000043C0140024909680143014A11607047A1
:100B60000C3C0140024909680143014A1160704789
:100B7000003C0140024909680143014A1160704785
:100B8000083C014070B504460025207900284DD06E
:100B90002068002850D0607920B1012809D00228AF
:100BA00015D10DE02068FFF7BDFF2068FFF7DAFFE1
:100BB0000FE02068FFF7BEFF2068FFF7C3FF08E0E3
:100BC0002068FFF7CFFF2068FFF7BCFF01E0012599
:100BD00000BF00BFA07940B3A079012804D002284B
:100BE0000DD003281FD117E02068144909688143FC
:100BF000124A116000BF2068FFF7BCFF15E02068B3
:100C00000E49091F096881430C4A121F116000BF79
:100C10002068FFF79FFF08E02068FFF7ABFF206820
:100C2000FFF798FF01E0012500BF05E02068FFF70E
:100C300081FF2068FFF776FF284670BD0C3C01401D
:100C40000146044800680840884201D101207047ED
:100C50000020FCE7143C0140F0B502460B4600249E
:100C60000021186890FAA0F0B0FA80F48AE001251B
:100C7000A540186800EA050100297DD058680128C0
:100C800002D0586802281CD19868956891FAA1F69C
:100C9000B6FA86F677000326BE40B54391FAA1F670
:100CA000B6FA86F6760000FA06F63543956000BF80
:100CB000D86855688D4301FB00F63543556000BF89
:100CC00000BF1869D56891FAA1F6B6FA86F67700E2
:100CD0000326BE40B54391FAA1F6B6FA86F6760031
:100CE00000FA06F63543D56000BF5868022831D1B6
:100CF00091FAA1F0B0FA80F0082814D25869156A68
:100D000091FAA1F6B6FA86F6B7000F26BE40B543B3
:100D100091FAA1F6B6FA86F6B60000FA06F6354361
:100D2000156200BF16E05869556A0E0A96FAA6F6D3
:100D3000B6FA86F6B7000F26BE40B5430E0A96FAFD
:100D4000A6F6B6FA86F6B60000FA06F63543556200
:100D500000BF00BF5868156891FAA1F6B6FA86F68A
:100D600077000326BE40B54391FAA1F6B6FA86F69F
:100D7000760000FA06F600E003E03543156000BF98
:100D800000BF641C1868E04000287FF470AFF0BD1D
:100D90000A04826170470A0482617047816170476A
:100DA00030B5036891FAA1F4B4FA84F46500032421
:100DB000AC40A34391FAA1F4B4FA84F4640002FABB
:100DC00004F42343036030BD30B5C36891FAA1F445
:100DD000B4FA84F465000324AC40A34391FAA1F46F
:100DE000B4FA84F4640002FA04F42343C36030BD0F
:100DF0004FF47A71B0FBF1F2521E4FF0E0235A61CA
:100E000000229A6105221A6100BF704710B504469E
:100E100000F02AFE2060206800F0F2FD606060684B
:100E200000F0FEFDA060606800F00CFEE06010BD08
:100E300002480068C0F38810704700000438024080
:100E400030B50246012300BF1068C0F3801038BBE4
:100E5000D1E9000420438C682043CC6820430C690E
:100E600020434C6920438C692043CC6920430C6AA1
:100E7000204314684FF6BF75AC43204310605068A0
:100E800020F004004C6940EA14405060086AB0F554
:100E9000005F04D1486A84B2146100BF00BF002320
:100EA000D06920F40060D061184630BD01468868E2
:100EB00000F00100704701468868C0F340007047A9
:100EC0000173704710B5094ACBB252F8232022EAC9
:100ED00011420B0C93FAA3F3B3FA83F300FA03F372
:100EE0001A43024BCCB243F8242010BD083801400D
:100EF0000149086070470000AC000020C16841F45F
:100F00000051C160704700002DE9FF4104460D46C5
:100F100001270026204600F059F8002845D1E9684D
:100F20006868084329690843A9690843E16849F2E8
:100F30000C6291430843E060A868216921F44051A4
:100F40000143216100BF6869616921F44071014377
:100F5000616100BF6846FFF759FF1648844201D11E
:100F6000039E17E01448844201D1029E12E0134808
:100F7000844201D1029E0DE01148844201D1039EBA
:100F800008E01048844201D1029E03E00E488442EA
:100F900000D1029E4EB1286838B100273146204664
:100FA0002B68AA6900F017F800BF384604B0BDE806
:100FB000F081000000100140004400400048004063
:100FC00000140140004C0040005000400146C86839
:100FD000C0F3403070472DE9FC5F06460C46914651
:100FE0001D46B9F5004F68D10220A0FB05700346ED
:100FF0001920A4FB00A001463A465046FFF748F9E5
:101000006421B0FBF1F04FEA001A0220A0FB057149
:101010000B461920A4FB00B13A465846FFF738F9B1
:1010200083460220A0FB057003461920A4FB0001A3
:101030003A46CDE90001FFF72BF96421B0FBF1F04E
:1010400000EBC00101EB0010ABEB8000322101EBA3
:10105000C0006421B0FBF1F000F0F8000AEB400A98
:101060000220A0FB057003461920A4FB00B13A46FC
:101070005846FFF70DF983460220A0FB0570034692
:101080001920A4FB00013A46CDE90001FFF700F961
:101090006421B0FBF1F000EBC00101EB0010ABEB01
:1010A0008000322101EBC0006421B0FBF1F000F0C0
:1010B0000700504480B2B06067E00420A0FB0570D8
:1010C00003461920A4FB00A001463A465046FFF70C
:1010D000DFF882460420A0FB05711920A4FB00B0B4
:1010E00084463A460B4658466146FFF7D1F86421DC
:1010F000B0FBF1F000EBC00101EB0010AAEB8000A7
:10110000322101EB00106421B0FBF1F000F0F00A95
:101110000420A0FB057003461920A4FB00B0014683
:101120003A465846FFF7B4F86421B0FBF1F00AEBF9
:10113000001A0420A0FB057003461920A4FB00B18F
:101140003A465846FFF7A4F883460420A0FB0570F2
:1011500003461920A4FB00013A46CDE90001FFF740
:1011600097F86421B0FBF1F000EBC00101EB001037
:10117000ABEB8000322101EB00106421B0FBF1F0F9
:1011800000F00F00504480B2B060BDE8FC9F08B58D
:101190004FF0E0210969009100BF411C01B1401CE2
:1011A00006E04FF0E021096901F4803101B1401EF1
:1011B0000028F6D108BD000030B589B000200790A6
:1011C0000890182101A8FFF76FFA1020FFF788FC9C
:1011D0008020FFF785FC0120FFF782FC0220FFF74B
:1011E0007FFCC0214148FFF7D6FDC0214048FFF7F2
:1011F000D2FD0820019000200290059001A93D48F1
:10120000FFF72AFDC02001900120029000200390EA
:101210000490059001A93548FFF71EFDC0200190FC
:1012200001200290002003900490059001A930480D
:10123000FFF712FD30490420FFF744FE2E49491CF8
:101240000120FFF73FFE1020079001208DF82000BD
:1012500000208DF8210002208DF8220007A8FFF75A
:1012600091FC4FF48070079001208DF82000002041
:101270008DF8210002208DF8220007A8FFF782FCDC
:10128000012210211B48FFF79FFD00224FF48071BF
:101290001748FFF799FD002210211648FFF780FD3F
:1012A00000224FF480711248FFF77AFD00F02AFE09
:1012B00005460022012100F081FB044621460A2058
:1012C00000F028FE0A2000F010FE00F01BFE05468C
:1012D0000022114600F072FB04462146172000F060
:1012E00019FE172000F001FE09B030BD00000240D9
:1012F000000402400010024001000F0000BF4CF645
:10130000CC401149086000BF00BF45F2555008604D
:1013100000BF0620486000BF40F6FF70886000BF35
:1013200000BF00BF0848C06800F0030008B90120F2
:1013300000E000200128F4D100BF4AF6AA200249AB
:10134000086000BF704700000030004000B591B059
:10135000282107A8FFF7A8F9182101A8FFF7A4F989
:101360004FF48050FFF7CAFB0220FFF7B9FB38208B
:101370000190022002900390002004900590052027
:10138000069001A91248FFF767FC002007904FF470
:1013900082700890002009900A900B904FF4007022
:1013A0000C9018200D9000200E900F900A201090A5
:1013B00007A90848FFF744FD00200649496821F0C5
:1013C00010010143034A516000BF11B000BD00008D
:1013D000000402400030014030B58DB01C2106A849
:1013E000FFF762F918216846FFF75EF91020FFF752
:1013F00085FB0120FFF774FB4FF4C06000900220D2
:101400000190032002900020039004900720059093
:1014100069461A48FFF720FC00F074FD05460022DB
:10142000012100F0CBFA04462146252000F072FD90
:10143000252000F05AFD4FF4E1300690002007907F
:10144000089009900C200A9000200B900C9006A99F
:101450000B48FFF759FD00BF0948006920F4904090
:10146000074908610846406920F02A00486100BF2A
:101470000846FFF743FD0DB030BD000000000240FC
:101480000010014000BFFEE700BFFEE710B50024DA
:10149000002000F0C5F8044644F003042146002073
:1014A00000F0C2F903220A49102000F0F3F90322E8
:1014B00007490A2000F0EEF940210648FFF76EFCCC
:1014C0009620FFF7B5FA00F057F800F07FF810BD4E
:1014D000030000200004024070B505460A2000F019
:1014E000D9FC172000F0D6FC0024284600F02AF88A
:1014F000002000F095F8044644F0020424F00104B2
:101500002146002000F090F99620FFF791FA202262
:101510002946A02000F040F940210948FFF73EFC91
:101520000F20FFF785FA40210548FFF731FC0A201C
:1015300000F0CEFC172000F0CBFC002070BD0000B6
:101540000004024010B5044603220949102000F0AF
:10155000A1F9032206490A2000F09CF94021054820
:10156000FFF716FC00F008F800F030F810BD00009E
:10157000000000200004024008B511A0006800909F
:1015800080211048FFF704FC00BF0F48FFF793FCD1
:101590000028FAD09DF800100B48FFF791FC00BF1F
:1015A0000948FFF783FC0028FAD00748C0680120EB
:1015B000FFF73EFA80210348FFF7F0FB08BD00006B
:1015C000E2000000000402400030014008B511A014
:1015D0000068009080211048FFF7DAFB00BF0F4839
:1015E000FFF769FC0028FAD09DF800100B48FFF7C0
:1015F00067FC00BF0948FFF759FC0028FAD00748EC
:10160000C0680120FFF714FA80210348FFF7C6FBEA
:1016100008BD0000E100000000040240003001406D
:1016200070B50446002680211948FFF7B1FB00BFC2
:101630001848FFF740FC0028FAD021461548FFF76C
:101640003FFC00BF1348FFF731FC0028FAD000BF71
:101650001048007B0646072C14D0FF2500BF0D481C
:10166000FFF729FC0028FAD029460A48FFF728FC92
:1016700000BF0848FFF71AFC0028FAD000BF054851
:10168000007B064680210248FFF788FB304670BD8C
:1016900000040240003001402DE9F04105460E46AD
:1016A000174680211B48FFF773FB00BF1A48FFF75E
:1016B00002FC0028FAD029461748FFF701FC00BFBA
:1016C0001548FFF7F3FB0028FAD01348C068012043
:1016D000FFF7AEF9002415E000BF0F48FFF7EBFB62
:1016E0000028FAD029460C48FFF7EAFB00BF0A4859
:1016F000FFF7DCFB0028FAD000BF0748007B30551D
:10170000601CC4B2BC42E7DB80210248FFF746FB05
:10171000BDE8F081000402400030014008B51BA084
:101720000068009080211A48FFF732FB00BF19487B
:10173000FFF7C1FB0028FAD09DF800101548FFF70D
:10174000BFFB00BF1348FFF7B1FB0028FAD01148D8
:10175000C0680120FFF76CF97320009000BF0D48AE
:10176000FFF7A9FB0028FAD09DF800100948FFF701
:10177000A7FB00BF0748FFF799FB0028FAD00548F0
:10178000C06880210248FFF709FB08BD5000000037
:1017900000040240003001402DE9F04105460E46AC
:1017A000174640211E48FFF7F3FA80211C48FFF737
:1017B000EFFA00BF1B48FFF77EFB0028FAD029464E
:1017C0001848FFF77DFB00BF1648FFF76FFB0028A6
:1017D000FAD01448C0680120FFF72AF9002413E06A
:1017E00000BF1048FFF767FB0028FAD0315D0D48B5
:1017F000FFF766FB00BF0B48FFF758FB0028FAD045
:101800000848C068601CC4B2BC42E9DB80210448BF
:10181000FFF7C4FA40210248FFF7C0FABDE8F081A3
:10182000000402400030014070B504460D4644F00B
:10183000200480211548FFF7ABFA00BF1448FFF7DA
:101840003AFB0028FAD021461148FFF739FB00BFC8
:101850000F48FFF72BFB0028FAD00D48C06800BFE7
:101860000B48FFF728FB0028FAD029460848FFF765
:1018700027FB00BF0648FFF719FB0028FAD00448F1
:10188000C06880210148FFF789FA70BD000402405A
:10189000003001402DE9F04104460E46174644F061
:1018A000200480211A48FFF773FA00BF1948FFF798
:1018B00002FB0028FAD021461648FFF701FB00BFC3
:1018C0001448FFF7F3FA0028FAD01248C068012044
:1018D000FFF7AEF8002513E000BF0E48FFF7EBFA64
:1018E0000028FAD0715D0B48FFF7EAFA00BF0948FB
:1018F000FFF7DCFA0028FAD00648C068681CC5B2B9
:10190000BD42E9DB80210248FFF748FABDE8F081DB
:10191000000402400030014010B540212448FFF788
:1019200037FA41F28830FFF783F80A210020FFF7E9
:101930007BFF41F28830FFF77BF800210120FFF7A1
:1019400073FF01210220FFF76FFF01210320FFF742
:101950006BFF00210420FFF767FFFFF7DFFE072181
:101960001D20FFF761FF00211C20FFF75DFF7021A4
:101970000720FFF759FF4C210520FFF755FF0621EF
:101980000846FFF751FF03220A491020FFF782FFA4
:10199000032208490B20FFF77DFF20211120FFF7CC
:1019A00043FFFFF773FD40210348FFF7F7F910BD30
:1019B000000402400000002000000240F0B5034691
:1019C0000C4603F00701C1F10700042801D90420E7
:1019D00001E0C1F107000646081D072801D20020DA
:1019E00000E0C81E05460120B040401E2040A8402F
:1019F0000127AF407F1E17403843F0BD70470000FD
:101A0000014600BF0448006800F0F0000009034AE6
:101A1000125C21FA02F0704708380240C225000823
:101A2000014600BF0548006800F4E050044A02EB9C
:101A30009020027821FA02F0704700000838024036
:101A4000D2250008014600BF0548006800F4604048
:101A5000044A02EB5030027821FA02F0704700008D
:101A600008380240D225000810B5002400BF0C48F9
:101A7000006800F00C0020B1042804D0082809D127
:101A800003E0084C08E0084C06E0082000F00EF8DF
:101A9000044601E0034C00BF00BF204610BD00001B
:101AA000083802400024F40000127A002DE9F041C9
:101AB000044600250026002700BF1548006800F4F2
:101AC000800006461EB1B6F5800F04D101E0114D2D
:101AD00003E0114D01E00F4D00BF00BF082C14D1F1
:101AE00000BF0B48006800F03F00B5FBF0F8FFF7BF
:101AF0009FF908FB00F80648006800F44030012117
:101B000001EB10404000B8FBF0F73846BDE8F0812B
:101B1000043802400024F40000127A001020064924
:101B200009690140814201D1012100E0002111B980
:101B30000120024908707047001002408D0000200B
:101B40007047704770B502204B49096821F00701C2
:101B50000143494A116000BF00BF00BF464800680A
:101B600000F007000228F8D140034449096821F435
:101B700080410143414A116000BF00BF40480068F6
:101B800040F480303E49086000BF00BF00BF3C48C1
:101B90000068C0F340400028F8D000BF38487430D7
:101BA000006840F0010036497431086000BF00BF92
:101BB00000BF334874300068C0F340000028F7D0FD
:101BC0004FF4800004214822002340EA010444EA43
:101BD00082142B4D2D1D2D682A4E35402C43284D47
:101BE0002D1D2C602C46246824F440341C432C60AA
:101BF00000BF00BF281F006840F08070291F0860E8
:101C000000BF00BF00BF1E480068C0F3406000284E
:101C1000F8D000201A490831096821F0F001014389
:101C2000174A0832116000BF90141146096821F468
:101C3000E0510143116000BF00201146096821F402
:101C400060410143116000BF02201146096821F084
:101C500003010143116000BF00BF00BF0848083006
:101C6000006800F00C000828F7D10748FFF7C0F81B
:101C70000548FFF73DF970BD003C02400070004090
:101C8000003802400080BFFF00A24A0403480068F9
:101C900040F47000014908607047000088ED00E0E2
:101CA00038B500BF65480068C0F3401000287DD0FB
:101CB00000BF6248C068C0F340100028F7D05F48FA
:101CC00000BF00BF00BF00F10C0252E8002F22F05D
:101CD000200100F10C0242E80013002BF3D100BFF9
:101CE00000BF00BF55484068C4B200BF3A2C03D1C2
:101CF00000205349087008E052485149097844547B
:101D00004F480078401C4E4908703B2C09D10020F8
:101D10004C494B4A127888544949087001204A4975
:101D20000870232C05D100204849087044490870E8
:101D30003AE0302C0BDB392C09DC42484049097869
:101D400044543F480078401C3D4908702CE02C2C3E
:101D50002AD13E48007828B93A48FEF779FC3C4938
:101D6000086015E039480078012805D13548FEF7AC
:101D70006FFC384908600BE034480078022807D12E
:101D80003048FEF765FC344908600120334908708B
:101D90002E480078401C2D49087000202849087002
:101DA0002849087048708870244800E011E000BF9E
:101DB00000BF00BF00F10C0252E8002F42F02001EA
:101DC00000F10C0242E80013002BF3D100BF00BF6A
:101DD00032E000BF19480068C0F3C00050B100BF36
:101DE00016480068009000BF14484068009000BF8B
:101DF00000BF21E000BF11480068C0F3400050B1AF
:101E000000BF0E480068009000BF0C48406800907A
:101E100000BF00BF10E000BF08480068C0F38000AA
:101E200050B100BF05480068009000BF03484068FB
:101E3000009000BF00BF00BF38BD0000001001408F
:101E40009C000020240100209F0000209D00002015
:101E5000A8000020A0000020A40000209E00002078
:101E600010B5024600200DE000BF00BF074B1B6805
:101E7000C3F3C013002BF8D0135C044C636000BFA5
:101E8000431C98B28842EFDB10BD000000100140F7
:101E900000BFFEE7002817DB00F01F020121914080
:101EA0000A4A430942F8231000BF00BF00BFBFF336
:101EB0004F8F00BF00BF00BF00BF00BF00BFBFF318
:101EC0006F8F00BF00BF00BF7047000080E100E0DF
:101ED000002809DB00F01F02012191404209920015
:101EE00002F1E022C2F800117047002809DB00F07F
:101EF0001F02012191404209920002F1E022C2F842
:101F00000011704702480068C0F3022070470000CB
:101F10000CED00E010B5002804DB0A07130E054A9B
:101F2000135406E00A07140E034A00F00F031B1FA8
:101F3000D45410BD00E400E018ED00E030380A2869
:101F400001D20120704700207047000010B500202A
:101F50001DE0184951F820100022491C924111DA65
:101F6000144951F82010144A126891420DD21149B7
:101F700051F82010104A1160104908700121104AD0
:101F8000117002E000210F4A1154411CC8B21428FC
:101F9000DFDB0B48007858B101210A48074A127864
:101FA00081540948054A1278815400200449087078
:101FB00010BD0000280000209000002095000020A7
:101FC00094000020100100201100002008B54FF4FB
:101FD0008040FEF793FD4FF080509549096801431A
:101FE000934A1160114609680140009100BF00BF8B
:101FF000032002468F4B19684FF6FF0319408E4BA2
:102000000B4343EA02218B4B196000BFFFF77AFFB5
:10201000054600220F21FFF7D1FC044621464FF070
:10202000FF30FFF777FFFFF78DFDFFF7C5F8FFF7EC
:1020300065F9FFF78BF9FFF7CFF900BF7F4800681C
:1020400040F040007D49086000BF7D4800BF00BFF0
:1020500000BF00F10C0252E8002F42F0200100F115
:102060000C0242E80013002BF3D100BF00BF7448FC
:10207000FEF744FFFFF750FC72A17548FEF780F9A8
:102080007348FEF7F2FA84B221467148FFF7E8FE82
:102090000020FFF7C5FA6F490870084602786EA164
:1020A0006B48FEF76DF96A48FEF7DFFA84B2214605
:1020B0006748FFF7D5FE0120FFF7B2FA65490870BF
:1020C0000846027869A16248FEF75AF96048FEF7AF
:1020D000CCFA84B221465E48FFF7C2FE0220FFF729
:1020E0009FFA5C4908700846027864A15848FEF7D8
:1020F00047F95748FEF7B9FA84B221465448FFF72A
:10210000AFFE0720FFF78CFA5249087008460278A4
:102110005FA14F48FEF734F94D48FEF7A6FA84B2A6
:1021200021464B48FFF79CFE0620FFF779FA494904
:102130000870084602785BA14548FEF721F944483B
:10214000FEF793FA84B221464148FFF789FE032245
:1021500059491020FFF7A0FA574880780090564858
:102160004378027855A13A48FEF70AF93848FEF755
:102170007CFA84B221463648FFF772FE03224E49AC
:102180000B20FFF789FA4C48807800904A48437842
:10219000027853A12E48FEF7F3F82D48FEF765FAB2
:1021A00084B221462A48FFF75BFE402055498861EA
:1021B00000BFFF205449086039E000F0B5F800F096
:1021C0007DF95248007818B94F480068FF2802D1BD
:1021D00000F03CF91FE04E484E490978405C4E49FA
:1021E00008704E484B490978405C4B4948704C4850
:1021F00048490978405C484988700846FFF76CF9FF
:1022000044480078401C4349087008460078142868
:1022100001D100200870FFF799FE0520FEF7B7FFF7
:1022200000BF4AF6AA203F49086000BF00BFC4E7CC
:10223000403802400CED00E00000FA05003001409B
:10224000001001400D0A53544152540D0A0D0A006A
:10225000D000002010000020434F4E4649473A204E
:102260003078253032580D0A00000000454E5F419D
:10227000413A203078253032580D0A00454E5F52E1
:1022800058414444523A203078253032580D0A00E3
:102290005354415455533A203078253032580D0A62
:1022A0000000000052465F53455455503A203078A4
:1022B000253032580D0A00000B00002054585F41B1
:1022C0004444523A203078253032582C203078253A
:1022D0003032582C203078253032580D0A0000005A
:1022E00052585F414444523A203078253032582CBD
:1022F000203078253032582C203078253032580D57
:102300000A00000000000240A80000208D0000200C
:10231000780000208C000020080000201100002020
:10232000100100200030004070B53B4800780128C3
:1023300071D13A48D0F80100401C00283BD0374802
:10234000027837A13848FEF71BF83748FEF78DF9B9
:1023500085B229463448FFF783FD3048D0F8014064
:10236000224632A13048FEF70BF82F48FEF77DF9E0
:1023700085B229462C48FFF773FD284842792DA1E4
:102380002948FDF7FDFF2848FEF76FF985B2294679
:102390002548FFF765FD00200AE020490978274A13
:1023A000125C914202D1264941F82040411CC8B23A
:1023B0001428F2DB2CE01948027822A11A48FDF714
:1023C000DFFF1948FEF751F984B221461648FFF79E
:1023D00047FD1248427917A11348FDF7D1FF124873
:1023E000FEF743F984B221460F48FFF739FD00207C
:1023F0000CE00A490978114A125C914204D14FF06D
:10240000FF310F4A42F82010411CC8B21428F0DBFB
:1024100000200149087070BD06000020B0000020B7
:102420002025580900000000D0000020256C750907
:102430000000000025640D0A000000007800002064
:1024400028000020255809206E70090010B5FF20D3
:102450001249087001204870002088700846FFF774
:102460003BF800200BE001210D4A115400210D4AD8
:102470001154491E0C4A42F82010411CC8B21428BD
:10248000F1DB4FF0FF30094908600020084908607F
:10249000084908700849087010BD000008000020B5
:1024A00011000020100100202800002090000020D2
:1024B000A80000208D0000209400002010B52848BE
:1024C000007800284BD00A20FEF761FE25480078EE
:1024D00098B125480088401C234908800846028896
:1024E00022A12548FDF74CFF2348FEF7BEF884B231
:1024F00021462148FFF7B4FC2BE020480078A8B122
:102500001F480078212824D1012016490870164858
:10251000028816A11848FDF733FF1748FEF7A5F803
:1025200084B221461448FFF79BFC12E0144800785F
:1025300021280ED113A11048FDF722FF0E48FEF707
:1025400094F884B221460C48FFF78AFC01200B491D
:1025500008700A20FEF71BFE00200149087010BD1C
:102560009F00002097000020980000205A4E53251D
:102570003035750D0A000000D00000209A000020C0
:102580002401002052544C0D0A00000010B500290F
:102590000AD00878002807D005487844FEF7FEF9ED
:1025A000002801D0002010BD0248784410BD000072
:1025B0009A000000920000004FF04070E1EE100A17
:1025C000704700000000000000000102030406073D
:1025D00008090000000001020304303132333435B1
:1025E000363738394142434445464030580030314F
:1025F000323334353637383961626364656640306A
:102600007800040000080000000000000002000143
:10261000000010004427000800000020B000000067
:10262000C4010008F4270008B000002018070000CB
:10263000E00100081001000043000000F8FFFFFF68
:1026400000404040404040404040414141414140C5
:10265000404040404040404040404040404040407A
:102660004005020202020202020202020202020209
:10267000022020202020202020202002020202020E
:102680000202909090909090101010101010101066
:102690001010101010101010101010100202020272
:1026A00002028888888888880808080808080808B6
:1026B00008080808080808080808080802020202B2
:1026C00040000000000000000000000000000000CA
:1026D00000000000000000000000000000000000FA
:1026E00000000000000000000000000000000000EA
:1026F00000000000000000000000000000000000DA
:1027000000000000000000000000000000000000C9
:1027100000000000000000000000000000000000B9
:1027200000000000000000000000000000000000A9
:102730000000000000000000000000000000000099
:1027400000000000B7B5A1B5B5A100000000000071
:102750000000000000010000000000000000000078
:10276000000000000000000000000000FFFFFFFF6D
:102770000000000000000000000000000000000059
:102780000000000000000000000000000000000049
:102790000000000000000000000000000000000039
:1027A0000000000000000000000000000000000029
:1027B000000000000000000000000000010203040F
:1027C00005060708090A0B0C0D0E0F101112131441
:1027D00000000000FFFFFFFF0000000000000000FD
:1027E00000000000000000000000000000000000E9
:0427F0000024F400CD
:040000050800018965
:00000001FF
