:020000040800F2
:10000000880700204902000881140008890A0008B6
:100010007D140008230A0008351E000800000000B7
:10002000000000000000000000000000211B00088C
:10003000270A000800000000DD190008231B000843
:1000400063020008630200086302000863020008FC
:1000500063020008630200086302000863020008EC
:100060006302000863020008590A000863020008DE
:1000700063020008630200086302000863020008CC
:1000800063020008630200086302000863020008BC
:100090006302000863020008630200086F0A000898
:1000A000630200086302000863020008630200089C
:1000B000630200086302000863020008630200088C
:1000C000630200086302000863020008630200087C
:1000D00063020008811C0008630200086302000834
:1000E000630200086302000863020008630200085C
:1000F000630200086302000863020008630200084C
:10010000630200086302000863020008630200083B
:10011000630200086302000863020008630200082B
:10012000630200086302000863020008630200081B
:10013000630200086302000863020008630200080B
:1001400063020008630200086302000863020008FB
:1001500063020008630200086302000863020008EB
:1001600063020008630200086302000863020008DB
:100170006302000863020008630200080000000038
:10018000630200086302000800F002F800F04DF876
:100190000AA090E8000C82448344AAF10107DA45E2
:1001A00001D100F042F8AFF2090EBAE80F0013F0E7
:1001B000010F18BFFB1A43F001031847A0220000EB
:1001C000C0220000103A24BF78C878C1FAD852077C
:1001D00024BF30C830C144BF04680C6070470000C1
:1001E0000023002400250026103A28BF78C1FBD840
:1001F000520728BF30C148BF0B607047752900F017
:10020000F780782900F03081002070471FB502F098
:10021000F7F800F0A3FB04000020002102F0DAF858
:10022000401C60601FBD10B510BD00F072FB114690
:10023000FFF7ECFF01F072FE00F0A2FB03B4FFF742
:10024000F2FF03BC00F0E6FB09488047094800477D
:10025000FEE7FEE7FEE7FEE7FEE7FEE7FEE7FEE776
:10026000FEE7FEE704480549054A064B70470000D3
:100270006D1C000889010008880100208807002003
:10028000880300208803002053EA020C00F06980F4
:100290002DE9F04B4FF00006002B1FBFB3FA83F59A
:1002A00003FA05F424FA05F65E4012BF1643B2FACB
:1002B00082F502FA05F4C5F120051EBF22FA05FCFD
:1002C00044EA0C04203556EA044C4FEA144418BFA3
:1002D000641C4FF000084FF00009904271EB030CD2
:1002E00039D3002919BFB1FA81F701FA07F6B0FA3C
:1002F00080F700FA07F6C7F120071EBF20FA07FCB7
:1003000046EA0C062037B6FBF4FCA7EB0507103FC6
:1003100007F01F0BCBF120060CFA0BFB2CFA06F6AC
:1003200044BFB3460026202FA4BF5E464FF0000B0B
:100330005BEA060C08BF4FF0010B19EB0B09ABFB96
:10034000027C48EB0608C01B06FB02CC0BFB03CC6F
:1003500071EB0C01C1E70B46024641464846BDE839
:10036000F08B13B54FF000004FF00001AFF30080A9
:10037000BDE81C40704700000FB41CB5074B06AA2F
:100380007B4469460090059800F017FA0020694602
:1003900000F026FA1CBC5DF814FB00005D040000B0
:1003A00070B5044685690068C10601D5302600E0B5
:1003B0002026C00707D070BDD4E901213046904700
:1003C000206A401C20626D1EF6D570BD70B50446D3
:1003D00085690078C00707D170BDD4E901212020CC
:1003E0009047206A401C20626D1EF6D570BD00004B
:1003F0002DE9F0410646002410687529314616A5FE
:1004000010D0AFF30080002802DA404213A507E0C5
:1004100031688A0701D512A502E0490704D511A564
:10042000012401E0AFF3008000210A2206F1240735
:1004300009E0B0FBF2FCB0FBF2F302FB1C00303031
:1004400078541846491C0028F3D123462A463046E2
:10045000BDE8F04100F052B9000000002D0000009E
:100460002B0000002000000070B504460D46214618
:100470001068AFF300802188090502D50F4A7A443D
:1004800002E00E4A7A440E32002104F1240305E012
:1004900000F00F060009965D5E54491C0028F7D154
:1004A00020780023000704D5702D02D009B1022363
:1004B00011322046BDE8704000F020B9A01F0000B6
:1004C0002DE9F05F894604464FF0000ADFF874B169
:1004D000FB44C0F820A02046E1688847002874D07B
:1004E000252806D0D4E901219047206A401C2062CB
:1004F000F1E700265F462046E16888472028054648
:1005000007DB312D05D2781910F8200C08B106430D
:10051000F1E7B00701D526F00406C4F81CA00027B7
:10052000C4F818A02A2D09D0284601F0AFFC38B332
:1005300004EB8708303DC8F8185019E059F8041B3F
:10054000204604EB87029161E1688847012F054648
:1005500018D1E069002820DA26F020061DE0D8F83E
:10056000180000EB800005EB40003038C8F8180098
:100570002046E1688847054601F088FC0028EED156
:10058000012F0AD02E2D08D12046E16888477F1C14
:100590000546022F46F02006C4DBA069002803DAD6
:1005A000404246F00106A061F00701D026F0100697
:1005B0006C2D0BD0682D09D04C2D39D06A2D35D03B
:1005C000742D35D07A2D33D016E038E0E1682F460F
:1005D00020468847B842054609D16C2F26D04FF4F3
:1005E0008060E168064320468847054604E06C2F9A
:1005F0001AD04FF4807006430DB3A5F141001928BD
:1006000002D8203546F400664A4629462046266030
:100610004E46FFF7F3FD80B101280BD0F61D26F002
:10062000070000F1080956E74020E4E78020D8E7FA
:100630000020D6E706F104094DE7284652E7206A74
:10064000BDE8F09F761F000070B5064600F052F836
:100650000468054630460A22002100F0C6F82C60E6
:1006600070BD10B5431C02E010F8011B71B1810789
:10067000FAD14FF0013202C88C1A8C4314EAC2112D
:10068000F9D0C01A0A0603D0C01E10BDC01A10BD92
:100690000A0401D0801E10BD0902FCD0401E10BD0E
:1006A0004FF0000200B5134694469646203922BF0B
:1006B000A0E80C50A0E80C50B1F12001BFF4F7AF56
:1006C000090728BFA0E80C5048BF0CC05DF804EB38
:1006D000890028BF40F8042B08BF704748BF20F8A6
:1006E000022B11F0804F18BF00F8012B70477047A4
:1006F0007047704700487047280100202DE9F047F7
:100700000D4699469246044600F124080168880681
:1007100004D5E06921F01001216000E00120A84229
:1007200001DD471B00E00027A1697A1902EB0900EF
:10073000081AA0612078C00602D42046FFF730FED8
:10074000002608E0D4E901211AF806009047206A43
:10075000401C761C20624E45F4DB2078C0060AD58A
:100760002046FFF71DFE06E0D4E901213020904726
:10077000206A401C2062381EA7F10107F4DC07E064
:10078000D4E9012118F805009047206A401C206236
:10079000281EA5F10105F3DC2046FFF717FE20789F
:1007A000000602D50220BDE8F0870120FBE700002B
:1007B00001694A1C02610878704700B58FB0CDE925
:1007C00001310021059105497944CDE90310114615
:1007D0006846FFF775FE0FB000BD0000E5FFFFFFA4
:1007E0000A6802F8010B0A6070472DE9F04791464C
:1007F0000F4680460446002614F8015B2DB100F038
:1008000031F80068405DC007F6D12B2D02D02D2DA8
:1008100018D0641E4A463946204600F02BF827B10E
:100820003968A14201D1C7F800804FF00204710578
:100830000BD54042002803DDFFF75CFF0460A007F2
:10084000BDE8F08746F48066E4E70028F8DAFFF7B1
:1008500051FF04606FF00040F2E70000004870476D
:100860002801002010B500F079F8001D10BD00BF70
:10087000651B00002DE9F05F824615468B46002778
:100880000AF10104B9460078302801D09DB113E087
:1008900014F8010B0127782803D0582801D045B15E
:1008A0000AE00DB1102D07D1002714F8010B102517
:1008B00002E0082500E00A250026B0460EE005FB10
:1008C000080005FB06F101271FFA80F801EB10462E
:1008D000B6F5803F00D3B94614F8010B294600F065
:1008E00041F80028EBDABBF1000F05D00FB1641E10
:1008F00000E05446CBF80040B9F1000F06D0FFF7F6
:10090000F9FE02210160C81EBDE8F09F48EA0640DA
:10091000FAE77546FFF7A2FFAE4605006946534663
:1009200020F00700854618B020B5FFF79BFCBDE816
:1009300020404FF000064FF000074FF000084FF046
:10094000000B21F00701AC46ACE8C009ACE8C009D7
:10095000ACE8C009ACE8C0098D4670470048704754
:10096000480100203A2800D2303820F02002412AE5
:1009700001D3A2F13700884201D34FF0FF30704716
:1009800010B50446AFF300802046BDE81040FFF7E5
:1009900055BC00004FF0013C50F8042B51F8043BCB
:1009A0009A4221D1A2EB0C03934313EACC1317D143
:1009B00050F8042B51F8043B9A4215D1A2EB0C03DA
:1009C000934313EACC130BD150F8042B51F8043B9A
:1009D0009A4209D1A2EB0C03934313EACC13DBD068
:1009E0004FF00000704700BFD01A01BAB1FA81F190
:1009F00001F0180122FA01F0CB40C1F12001DBB275
:100A0000C0B2C01A2CFA01F3D11A914311EAC311F2
:100A1000E6D1704701491820ABBEFEE72600020070
:100A2000704700BFFEE7704701B5094800680949F3
:100A3000B0FBF1F00921B0FBF1F0009948430090C0
:100A400000BF0098411E00910028FAD108BD0000A7
:100A5000B000002040420F0010B5102000F0ECF86C
:100A600020B1102000F054F801F048F810BD10B586
:100A70004FF4807000F0E0F828B14FF4807000F07F
:100A800047F800F003F810BD00BFFEE710B50124E1
:100A90000A20FFF7C9FF072000F0B2FD044604F06A
:100AA000400058B105220A49612000F0E5FD4021CF
:100AB000072000F0A9FE01200649087004F020007C
:100AC00028B12021072000F09FFE00F0DBFC10BDC4
:100AD000060000200B00002008B505490968014305
:100AE000034A1160114609680140009100BF08BD2A
:100AF0003038024008B5054909680143034A1160CE
:100B0000114609680140009100BF08BD4438024009
:100B10000149086070470000143C0140024909681F
:100B20008143014A11607047043C01400249096851
:100B30008143014A11607047003C01400249096845
:100B40000143014A11607047043C014002490968B1
:100B50000143014A116070470C3C01400249096899
:100B60000143014A11607047003C01400249096895
:100B70000143014A11607047083C014070B50446CA
:100B80000025207900284DD02068002850D06079B9
:100B900020B1012809D0022815D10DE02068FFF707
:100BA000BDFF2068FFF7DAFF0FE02068FFF7BEFF08
:100BB0002068FFF7C3FF08E02068FFF7CFFF206839
:100BC000FFF7BCFF01E0012500BF00BFA07940B3E3
:100BD000A079012804D002280DD003281FD117E0E6
:100BE0002068144909688143124A116000BF2068D7
:100BF000FFF7BCFF15E020680E49091F0968814313
:100C00000C4A121F116000BF2068FFF79FFF08E029
:100C10002068FFF7ABFF2068FFF798FF01E0012590
:100C200000BF05E02068FFF781FF2068FFF776FF2F
:100C3000284670BD0C3C014001460448006808404D
:100C4000884201D1012070470020FCE7143C01409C
:100C5000F0B502460B4600240021186890FAA0F077
:100C6000B0FA80F48AE00125A540186800EA050181
:100C700000297DD05868012802D0586802281CD16C
:100C80009868956891FAA1F6B6FA86F67700032679
:100C9000BE40B54391FAA1F6B6FA86F6760000FAA0
:100CA00006F63543956000BFD86855688D4301FB53
:100CB00000F63543556000BF00BF1869D56891FA4A
:100CC000A1F6B6FA86F677000326BE40B54391FA40
:100CD000A1F6B6FA86F6760000FA06F63543D56038
:100CE00000BF5868022831D191FAA1F0B0FA80F023
:100CF000082814D25869156A91FAA1F6B6FA86F650
:100D0000B7000F26BE40B54391FAA1F6B6FA86F6B3
:100D1000B60000FA06F63543156200BF16E05869C2
:100D2000556A0E0A96FAA6F6B6FA86F6B7000F26A8
:100D3000BE40B5430E0A96FAA6F6B6FA86F6B60097
:100D400000FA06F63543556200BF00BF58681568C3
:100D500091FAA1F6B6FA86F677000326BE40B543AF
:100D600091FAA1F6B6FA86F6760000FA06F600E0E9
:100D700003E03543156000BF00BF641C1868E04005
:100D800000287FF470AFF0BD0A04826170470A0446
:100D9000826170478161704730B5036891FAA1F4B0
:100DA000B4FA84F465000324AC40A34391FAA1F49F
:100DB000B4FA84F4640002FA04F42343036030BDFF
:100DC00030B5C36891FAA1F4B4FA84F46500032441
:100DD000AC40A34391FAA1F4B4FA84F4640002FA9B
:100DE00004F42343C36030BD4FF47A71B0FBF1F2D9
:100DF000521E4FF0E0235A6100229A6105221A61C7
:100E000000BF704710B5044600F01EFE2060206849
:100E100000F0E6FD6060606800F0F2FDA0606068D0
:100E200000F000FEE06010BD02480068C0F38810CA
:100E3000704700000438024030B50246012300BF6D
:100E40001068C0F3801038BBD1E9000420438C68DF
:100E50002043CC6820430C6920434C6920438C69B3
:100E60002043CC6920430C6A204314684FF6BF75B9
:100E7000AC4320431060506820F004004C6940EA05
:100E800014405060086AB0F5005F04D1486A84B22B
:100E9000146100BF00BF0023D06920F40060D0615E
:100EA000184630BD0146886800F0010070470146D1
:100EB0008868C0F3400070470173704710B5094A55
:100EC000CBB252F8232022EA11420B0C93FAA3F37F
:100ED000B3FA83F300FA03F31A43024BCCB243F89C
:100EE000242010BD08380140014908607047000007
:100EF000B0000020C16841F40051C160704700009B
:100F00002DE9FF4104460D4601270026204600F04A
:100F100059F8002845D1E9686868084329690843F9
:100F2000A9690843E16849F20C6291430843E06013
:100F3000A868216921F440510143216100BF68691B
:100F4000616921F440710143616100BF6846FFF7A8
:100F500059FF1648844201D1039E17E01448844289
:100F600001D1029E12E01348844201D1029E0DE09D
:100F70001148844201D1039E08E01048844201D107
:100F8000029E03E00E48844200D1029E4EB12868C2
:100F900038B10027314620462B68AA6900F017F8BF
:100FA00000BF384604B0BDE8F081000000100140E9
:100FB000004400400048004000140140004C004044
:100FC000005000400146C868C0F3403070472DE92A
:100FD000FC5F06460C4691461D46B9F5004F68D1A8
:100FE0000220A0FB057003461920A4FB00A00146C7
:100FF0003A465046FFF748F96421B0FBF1F04FEA5A
:10100000001A0220A0FB05710B461920A4FB00B1B9
:101010003A465846FFF738F983460220A0FB057090
:1010200003461920A4FB00013A46CDE90001FFF771
:101030002BF96421B0FBF1F000EBC00101EB0010D3
:10104000ABEB8000322101EBC0006421B0FBF1F07A
:1010500000F0F8000AEB400A0220A0FB05700346EE
:101060001920A4FB00B13A465846FFF70DF9834614
:101070000220A0FB057003461920A4FB00013A469C
:10108000CDE90001FFF700F96421B0FBF1F000EBBE
:10109000C00101EB0010ABEB8000322101EBC0007E
:1010A0006421B0FBF1F000F00700504480B2B06062
:1010B00067E00420A0FB057003461920A4FB00A0F4
:1010C00001463A465046FFF7DFF882460420A0FB6F
:1010D00005711920A4FB00B084463A460B465846D9
:1010E0006146FFF7D1F86421B0FBF1F000EBC001DD
:1010F00001EB0010AAEB8000322101EB001064210B
:10110000B0FBF1F000F0F00A0420A0FB05700346EC
:101110001920A4FB00B001463A465846FFF7B4F840
:101120006421B0FBF1F00AEB001A0420A0FB05706B
:1011300003461920A4FB00B13A465846FFF7A4F82D
:1011400083460420A0FB057003461920A4FB000180
:101150003A46CDE90001FFF797F86421B0FBF1F0C2
:1011600000EBC00101EB0010ABEB8000322101EB82
:1011700000106421B0FBF1F000F00F00504480B289
:10118000B060BDE8FC9F08B54FF0E021096900910F
:1011900000BF411C01B1401C06E04FF0E02109698D
:1011A00001F4803101B1401E0028F6D108BD0000D5
:1011B00030B589B0002007900890182101A8FFF7EA
:1011C0006FFA1020FFF788FC8020FFF785FC0120D4
:1011D000FFF782FC0220FFF77FFCC0214148FFF7A8
:1011E000D6FDC0214048FFF7D2FD08200190002025
:1011F0000290059001A93D48FFF72AFDC02001900B
:1012000001200290002003900490059001A9354828
:10121000FFF71EFDC02001900120029000200390E6
:101220000490059001A93048FFF712FD30490420D1
:10123000FFF744FE2E49491C0120FFF73FFE102016
:10124000079001208DF8200000208DF82100022059
:101250008DF8220007A8FFF791FC4FF480700790EB
:1012600001208DF8200000208DF8210002208DF84B
:10127000220007A8FFF782FC012210211B48FFF77C
:101280009FFD00224FF480711748FFF799FD00225F
:1012900010211648FFF780FD00224FF4807112489C
:1012A000FFF77AFD00F0D6FD05460022012100F08F
:1012B00075FB044621460A2000F0D4FD0A2000F008
:1012C000BBFD00F0C7FD05460022114600F066FB9D
:1012D00004462146172000F0C5FD172000F0ACFDA4
:1012E00009B030BD0000024000040240001002407E
:1012F00001000F0000BF4CF6CC401149086000BF50
:1013000000BF45F25550086000BF0620486000BF8E
:1013100040F6FF70886000BF00BF00BF0848C0688B
:1013200000F0030008B9012000E000200128F4D1FA
:1013300000BF4AF6AA200249086000BF70470000BB
:101340000030004000B591B0282107A8FFF7A8F9A8
:10135000182101A8FFF7A4F94FF48050FFF7CAFB4A
:101360000220FFF7B9FB3820019002200290039081
:101370000020049005900520069001A91248FFF76F
:1013800067FC002007904FF48270089000200990BD
:101390000A900B904FF400700C9018200D900020D4
:1013A0000E900F900A20109007A90848FFF744FDFF
:1013B00000200649496821F010010143034A5160A9
:1013C00000BF11B000BD0000000402400030014029
:1013D00030B58DB01C2106A8FFF762F918216846C8
:1013E000FFF75EF91020FFF785FB0120FFF774FB84
:1013F0004FF4C06000900220019003200290002072
:10140000039004900720059069461A48FFF720FCD6
:1014100000F020FD05460022012100F0BFFA04463D
:101420002146252000F01EFD252000F005FD4FF48B
:10143000E130069000200790089009900C200A9057
:1014400000200B900C9006A90B48FFF759FD00BF38
:101450000948006920F4904007490861084640693E
:1014600020F02A00486100BF0846FFF743FD0DB099
:1014700030BD0000000002400010014000BFFEE748
:1014800000BFFEE710B50024002000F0B9F80446C4
:1014900044F003042146002000F0B6F903220A4973
:1014A000102000F0E7F9032207490A2000F0E2F9D2
:1014B00040210648FFF76EFC9620FFF7B5FA00F0D2
:1014C0004BF800F073F810BD030000200004024048
:1014D00070B505460024284600F024F8002000F0EE
:1014E0008FF8044644F0020424F001042146002051
:1014F00000F08AF99620FFF797FA05222946A020E6
:1015000000F03AF940210648FFF744FC0F20FFF7AE
:101510008BFA40210248FFF737FC002070BD000025
:101520000004024010B5044603220949102000F0CF
:10153000A1F9032206490A2000F09CF94021054840
:10154000FFF722FC00F008F800F030F810BD0000B2
:10155000000000200004024008B511A000680090BF
:1015600080211048FFF710FC00BF0F48FFF79FFCD9
:101570000028FAD09DF800100B48FFF79DFC00BF33
:101580000948FFF78FFC0028FAD00748C0680120FF
:10159000FFF74AFA80210348FFF7FCFB08BD000073
:1015A000E2000000000402400030014008B511A034
:1015B0000068009080211048FFF7E6FB00BF0F484D
:1015C000FFF775FC0028FAD09DF800100B48FFF7D4
:1015D00073FC00BF0948FFF765FC0028FAD00748F4
:1015E000C0680120FFF720FA80210348FFF7D2FBF3
:1015F00008BD0000E100000000040240003001408E
:1016000070B50446002680211948FFF7BDFB00BFD6
:101610001848FFF74CFC0028FAD021461548FFF780
:101620004BFC00BF1348FFF73DFC0028FAD000BF79
:101630001048007B0646072C14D0FF2500BF0D483C
:10164000FFF735FC0028FAD029460A48FFF734FC9A
:1016500000BF0848FFF726FC0028FAD000BF054865
:10166000007B064680210248FFF794FB304670BDA0
:1016700000040240003001402DE9F04105460E46CD
:10168000174680211B48FFF77FFB00BF1A48FFF772
:101690000EFC0028FAD029461748FFF70DFC00BFC2
:1016A0001548FFF7FFFB0028FAD01348C068012057
:1016B000FFF7BAF9002415E000BF0F48FFF7F7FB6A
:1016C0000028FAD029460C48FFF7F6FB00BF0A486D
:1016D000FFF7E8FB0028FAD000BF0748007B305531
:1016E000601CC4B2BC42E7DB80210248FFF752FB1A
:1016F000BDE8F081000402400030014008B51BA0A5
:101700000068009080211A48FFF73EFB00BF19488F
:10171000FFF7CDFB0028FAD09DF800101548FFF721
:10172000CBFB00BF1348FFF7BDFB0028FAD01148E0
:10173000C0680120FFF778F97320009000BF0D48C2
:10174000FFF7B5FB0028FAD09DF800100948FFF715
:10175000B3FB00BF0748FFF7A5FB0028FAD00548F8
:10176000C06880210248FFF715FB08BD500000004B
:1017700000040240003001402DE9F04105460E46CC
:10178000174640211E48FFF7FFFA80211C48FFF74B
:10179000FBFA00BF1B48FFF78AFB0028FAD0294656
:1017A0001848FFF789FB00BF1648FFF77BFB0028AE
:1017B000FAD01448C0680120FFF736F9002413E07E
:1017C00000BF1048FFF773FB0028FAD0315D0D48C9
:1017D000FFF772FB00BF0B48FFF764FB0028FAD04D
:1017E0000848C068601CC4B2BC42E9DB80210448E0
:1017F000FFF7D0FA40210248FFF7CCFABDE8F081AC
:10180000000402400030014070B504460D4644F02B
:10181000200480211548FFF7B7FA00BF1448FFF7EE
:1018200046FB0028FAD021461148FFF745FB00BFD0
:101830000F48FFF737FB0028FAD00D48C06800BFFB
:101840000B48FFF734FB0028FAD029460848FFF779
:1018500033FB00BF0648FFF725FB0028FAD00448F9
:10186000C06880210148FFF795FA70BD000402406E
:10187000003001402DE9F04104460E46174644F081
:10188000200480211A48FFF77FFA00BF1948FFF7AC
:101890000EFB0028FAD021461648FFF70DFB00BFCB
:1018A0001448FFF7FFFA0028FAD01248C068012058
:1018B000FFF7BAF8002513E000BF0E48FFF7F7FA6C
:1018C0000028FAD0715D0B48FFF7F6FA00BF09480F
:1018D000FFF7E8FA0028FAD00648C068681CC5B2CD
:1018E000BD42E9DB80210248FFF754FABDE8F081F0
:1018F000000402400030014010B540212448FFF7A9
:1019000043FA41F28830FFF78FF80A210020FFF7F1
:101910007BFF41F28830FFF787F800210120FFF7B5
:1019200073FF01210220FFF76FFF01210320FFF762
:101930006BFF00210420FFF767FFFFF7DFFE0721A1
:101940001D20FFF761FF00211C20FFF75DFF7021C4
:101950000720FFF759FF4C210520FFF755FF06210F
:101960000846FFF751FF03220A491020FFF782FFC4
:10197000032208490B20FFF77DFF05211120FFF707
:1019800043FFFFF77FFD40210348FFF703FA10BD37
:10199000000402400000002000000240F0B50346B1
:1019A0000C4603F00701C1F10700042801D9042007
:1019B00001E0C1F107000646081D072801D20020FA
:1019C00000E0C81E05460120B040401E2040A8404F
:1019D0000127AF407F1E17403843F0BD704700001D
:1019E000014600BF0448006800F0F0000009034A07
:1019F000125C21FA02F07047083802400A240008FD
:101A0000014600BF0548006800F4E050044A02EBBC
:101A10009020027821FA02F0704700000838024056
:101A20001A240008014600BF0548006800F4604021
:101A3000044A02EB5030027821FA02F070470000AD
:101A4000083802401A24000810B5002400BF0C48D2
:101A5000006800F00C0020B1042804D0082809D147
:101A600003E0084C08E0084C06E0082000F00EF8FF
:101A7000044601E0034C00BF00BF204610BD00003B
:101A8000083802400024F40000127A002DE9F041E9
:101A9000044600250026002700BF1548006800F412
:101AA000800006461EB1B6F5800F04D101E0114D4D
:101AB00003E0114D01E00F4D00BF00BF082C14D111
:101AC00000BF0B48006800F03F00B5FBF0F8FFF7DF
:101AD000ABF908FB00F80648006800F4403001212B
:101AE00001EB10404000B8FBF0F73846BDE8F0814C
:101AF000043802400024F40000127A001020064945
:101B000009690140814201D1012100E0002111B9A0
:101B10000120024908707047001002409500002023
:101B20007047704770B502204B49096821F00701E2
:101B30000143494A116000BF00BF00BF464800682A
:101B400000F007000228F8D140034449096821F455
:101B500080410143414A116000BF00BF4048006816
:101B600040F480303E49086000BF00BF00BF3C48E1
:101B70000068C0F340400028F8D000BF38487430F7
:101B8000006840F0010036497431086000BF00BFB2
:101B900000BF334874300068C0F340000028F7D01D
:101BA0004FF4800004214822002340EA010444EA63
:101BB00082142B4D2D1D2D682A4E35402C43284D67
:101BC0002D1D2C602C46246824F440341C432C60CA
:101BD00000BF00BF281F006840F08070291F086008
:101BE00000BF00BF00BF1E480068C0F3406000286F
:101BF000F8D000201A490831096821F0F0010143AA
:101C0000174A0832116000BF90141146096821F488
:101C1000E0510143116000BF00201146096821F422
:101C200060410143116000BF02201146096821F0A4
:101C300003010143116000BF00BF00BF0848083026
:101C4000006800F00C000828F7D10748FFF7CCF82F
:101C50000548FFF749F970BD003C024000700040A4
:101C6000003802400080BFFF00A24A040348006819
:101C700040F47000014908607047000088ED00E002
:101C800038B500BF57480068C0F34010002874D032
:101C900000BF5448C068C0F3401000286DD05148C0
:101CA00000BF00BF00BF00F10C0252E8002F22F07D
:101CB000200100F10C0242E80013002BF3D100BF19
:101CC00000BF00BF47484068C4B200BF232C05D105
:101CD000002045490870454908703AE0302C0BDB7C
:101CE000392C09DC42484149097844543F4800787E
:101CF000401C3E4908702CE02C2C2AD13A48007830
:101D000028B93B48FEF7A0FC3A49086015E0364880
:101D10000078012805D13648FEF796FC3649086060
:101D20000BE031480078022807D13148FEF78CFCDF
:101D3000324908600120324908702B480078401C65
:101D400029490870002029490870294908704870FD
:101D50008870244800BF00BF00BF00F10C0252E8A9
:101D6000002F42F0200100F10C0242E80013002B8A
:101D7000F3D100BF00BF33E0FFE700BF19480068A0
:101D8000C0F3C00050B100BF16480068009000BF0B
:101D900014484068009000BF00BF21E000BF114818
:101DA0000068C0F3400050B100BF0E4800680090CA
:101DB00000BF0C484068009000BF00BF10E000BFAB
:101DC00008480068C0F3800050B100BF05480068B3
:101DD000009000BF03484068009000BF00BF00BFF4
:101DE00038BD000000100140A1000020A00000202C
:101DF00008010020AC000020A4000020A800002062
:101E0000A200002010B5024600200DE000BF00BF78
:101E1000074B1B68C3F3C013002BF8D0135C044CB2
:101E2000636000BF431C98B28842EFDB10BD000026
:101E30000010014000BFFEE7002809DB00F01F0290
:101E4000012191404209920002F1E022C2F8001102
:101E50007047000002480068C0F30220704700008D
:101E60000CED00E010B5002804DB0A07130E054A4C
:101E7000135406E00A07140E034A00F00F031B1F59
:101E8000D45410BD00E400E018ED00E030380A281A
:101E900001D20120704700207047000010B50020DB
:101EA0001DE0184951F820100022491C924111DA16
:101EB000144951F82010144A126891420DD2114968
:101EC00051F82010104A1160104908700121104A81
:101ED000117002E000210F4A1154411CC8B21428AD
:101EE000DFDB0B48007858B101210A48074A127815
:101EF00081540948054A1278815400200449087029
:101F000010BD000030000020980000209D0000203F
:101F10009C000020F40000201900002008B54FF4B8
:101F20008040FEF7E7FD4FF0805096490968014375
:101F3000944A1160114609680140009100BF00BF3A
:101F400003200246904B19684FF6FF0319408F4B50
:101F50000B4343EA02218C4B196000BFFFF77AFF65
:101F6000054600220F21FFF719FD044621464FF0D8
:101F7000FF30FFF777FFFFF7D5FDFFF719F9FFF700
:101F8000B9F9FFF7DFF9FFF723FA00BF80480068CF
:101F900040F040007E49086000BF7E4800BF00BF9F
:101FA00000BF00F10C0252E8002F42F0200100F1C6
:101FB0000C0242E80013002BF3D100BF00BF7548AC
:101FC000FEF798FFFFF798FC73A17648FEF7D4F967
:101FD0007448FEF746FB84B221467248FFF712FFB1
:101FE0000020FFF70DFB70490870084602786FA1CA
:101FF0006C48FEF7C1F96B48FEF733FB84B221460B
:102000006848FFF7FFFE0120FFF7FAFA66490870FB
:10201000084602786AA16348FEF7AEF96148FEF708
:1020200020FB84B221465F48FFF7ECFE0220FFF759
:10203000E7FA5D4908700846027865A15948FEF73D
:102040009BF95848FEF70DFB84B221465548FFF72F
:10205000D9FE0720FFF7D4FA5349087008460278E2
:1020600060A15048FEF788F94E48FEF7FAFA84B2AC
:1020700021464C48FFF7C6FE0620FFF7C1FA4A4941
:102080000870084602785CA14648FEF775F9454895
:10209000FEF7E7FA84B221464248FFF7B3FE032277
:1020A0005A491020FFF7E8FA5848807800905748BE
:1020B0004378027856A13B48FEF75EF93948FEF7AF
:1020C000D0FA84B221463748FFF79CFE03224F49DD
:1020D0000B20FFF7D1FA4D48807800904B484378A9
:1020E000027854A12F48FEF747F92E48FEF7B9FAB7
:1020F00084B221462B48FFF785FE4020564988616F
:1021000000BFFF20554908603AE000F0B7F8544896
:10211000007818B951480068FF2802D100F020F972
:1021200022E0504850490978405C504908705048B6
:102130004D490978405C4D4948704E484A490978F4
:10214000405C4A4988700846FFF7C2F90120FFF752
:102150001AF845480078401C434908700846007842
:10216000142801D100200870FFF798FE0220FFF725
:102170000AF800BF4AF6AA203F49086000BF00BF26
:10218000C3E70000403802400CED00E00000FA0513
:1021900000300140001001400D0A53544152540DCB
:1021A0000A0D0A00B400002018000020434F4E46DC
:1021B00049473A203078253032580D0A0000000097
:1021C000454E5F41413A203078253032580D0A00A3
:1021D000454E5F5258414444523A203078253032BF
:1021E000580D0A005354415455533A203078253045
:1021F00032580D0A0000000052465F5345545550B6
:102200003A203078253032580D0A000013000020A3
:1022100054585F414444523A203078253032582C8B
:10222000203078253032582C203078253032580D27
:102230000A00000052585F414444523A2030782549
:102240003032582C203078253032582C20307825E8
:102250003032580D0A00000000000240AC0000209F
:102260009500002080000020940000201000002035
:1022700019000020F40000200030004070B52D4807
:102280000078012855D12C48D0F80100401C0028C6
:102290002DD02948027829A12948FEF76DF8284851
:1022A000FEF7DFF985B229462548FFF7ABFD224846
:1022B000D0F80140224623A12148FEF75DF82048CE
:1022C000FEF7CFF985B229461D48FFF79BFD002098
:1022D0000AE0194909781D4A125C914202D11C4951
:1022E00041F82040411CC8B21428F2DB1EE012481D
:1022F000027818A11248FEF73FF81148FEF7B1F92D
:1023000084B221460E48FFF77DFD00200CE00A490B
:1023100009780E4A125C914204D14FF0FF310C4A09
:1023200042F82010411CC8B21428F0DB00200149FB
:10233000087070BD0B000020060000202558090021
:10234000B4000020256C750D0A00000080000020FC
:1023500030000020255809206E700D0A0000000092
:1023600010B5FF20134908700120487000208870C4
:102370000846FFF7ADF80120FEF705FF00200BE04F
:1023800001210D4A115400210C4A1154491E0C4AD6
:1023900042F82010411CC8B21428F1DB4FF0FF3086
:1023A0000849086000200849086008490870084981
:1023B000087010BD1000002019000020F40000205B
:1023C0003000002098000020AC0000209500002084
:1023D0009C00002010B500290AD00878002807D0FA
:1023E00005487844FEF7D6FA002801D0002010BD39
:1023F0000248784410BD00009A00000092000000DE
:102400004FF04070E1EE100A70470000000000003D
:102410000000010203040607080900000000010291
:10242000030430313233343536373839414243448E
:10243000454640305800303132333435363738393C
:102440006162636465664030780004000008000043
:102450000000000000020001000010008C250008B0
:1024600000000020B4000000C4010008402600085D
:10247000B4000020D4060000E001000810010000B4
:1024800043000000F8FFFFFF004040404040404054
:102490004040414141414140404040404040404037
:1024A00040404040404040404005020202020202DB
:1024B000020202020202020202202020202020202A
:1024C000202020020202020202029090909090903E
:1024D00010101010101010101010101010101010FC
:1024E0001010101002020202020288888888888870
:1024F000080808080808080808080808080808085C
:102500000808080802020202400000000000000063
:1025100000000000000000000000000000000000BB
:1025200000000000000000000000000000000000AB
:10253000000000000000000000000000000000009B
:10254000000000000000000000000000000000008B
:10255000000000000000000000000000000000007B
:10256000000000000000000000000000000000006B
:10257000000000000000000000000000000000005B
:10258000000000000000000000000000B7B5A1B589
:10259000B5A10000000000000000000000000000E5
:1025A000000000000001000000000000000000002A
:1025B000000000000000000000000000FFFFFFFF1F
:1025C000000000000000000000000000000000000B
:1025D00000000000000000000000000000000000FB
:1025E00000000000000000000000000000000000EB
:1025F00000000000000000000000000000000000DB
:1026000000000000000000000000000001020304C0
:1026100005060708090A0B0C0D0E0F1011121314F2
:1026200000000000FFFFFFFF0000000000000000AE
:102630000000000000000000000000000024F40082
:040000050800018965
:00000001FF
