:100000000AC019C096C117C016C015C014C013C0CD
:1000100012C011C010C011271FBFCFE5D0E0DEBF56
:10002000CDBF20E0A0E4B0E001C01D93A134B20731
:10003000E1F7ADD1C3C1E4CF42B1446042B94BEB6B
:1000400052E041505040E9F700C0000042B14B7F00
:1000500042B94FE153E041505040E9F700C0000081
:1000600042B1446042B94BEB52E041505040E9F795
:1000700000C0000042B14B7F42B94FE153E0415014
:100080005040E9F700C0000042B1446042B94BEB78
:1000900052E041505040E9F700C0000042B14B7FB0
:1000A00042B94FE153E041505040E9F700C0000031
:1000B00042B1446042B94BEB52E041505040E9F745
:1000C00000C0000042B14B7F42B94FE153E04150C4
:1000D0005040E9F700C0000042B1446042B94BEB28
:1000E00052E041505040E9F700C0000042B14B7F60
:1000F00042B94FE153E041505040E9F700C00000E1
:1001000042B1446042B94BEB52E041505040E9F7F4
:1001100000C0000042B14B7F42B94FE153E0415073
:100120005040E9F700C0000042B1446042B94BEBD7
:1001300052E041505040E9F700C0000042B14B7F0F
:1001400042B94FE153E041505040E9F700C0000090
:1001500042B1446042B94BEB52E041505040E9F7A4
:1001600000C0000042B14B7F42B94FE153E0415023
:100170005040E9F700C0000042B1446042B94BEB87
:1001800052E041505040E9F700C0000042B14B7FBF
:1001900042B94FE153E041505040E9F700C0000040
:1001A00042B1446042B94BEB52E041505040E9F754
:1001B00000C0000042B14B7F42B94FE153E04150D3
:1001C0005040E9F700C0000042B1446042B94BEB37
:1001D00052E041505040E9F700C0000042B14B7F6F
:1001E00042B94FE153E041505040E9F700C00000F0
:1001F00042B1446042B94BEB52E041505040E9F704
:1002000000C0000042B14B7F42B94FE153E0415082
:100210005040E9F700C00000089542B1446042B97F
:100220004BED55E041505040E9F700C0000042B1AD
:100230004B7F42B94FE153E041505040E9F700C0D5
:100240000000089542B1446042B94FE153E041508B
:100250005040E9F700C0000042B14B7F42B94FE384
:1002600056E041505040E9F700C0000008954FE1CA
:100270005EE441505040E9F700C00000DDDE4FE190
:100280005CE141505040E9F700C00000C6DFC5DF27
:10029000D9DFC3DFC2DFC1DFC0DFBFDFBEDFBDDF4D
:1002A000D1DFBBDFBADFCEDFB8DFB7DFB6DFB5DF68
:1002B000C9DFC8DFB2DFB1DFB0DFC4DFAEDFADDF83
:1002C000C1DFC0DFAADFA9DFBDDFA7DFA6DFBADF9E
:1002D000B9DFB8DFB7DFA1DFB5DFB4DF9EDFB2DFA4
:1002E0009CDFB0DFAFDF99DF98DF97DF96DFAADF13
:1002F00094DFA8DFA7DFA6DFA5DF8FDF8EDF8DDF2E
:10030000A1DF8BDF8ADF9EDF88DF87DF9BDF9ADF5D
:100310004FE15EE441505040E9F700C0000008950D
:100320004AB7417F44604ABF4AB741604ABF889597
:1003300008951F930F930FB70F9310E04F935F93A0
:100340006F937F938F939F93AF93BF93EF93FF939D
:10035000009909C042B1426042B910A901C087DFCB
:10036000009BFDCF05C042B14D7F42B941E040A99D
:10037000FF91EF91BF91AF919F918F917F916F917D
:100380005F914F910F910FBF0F911F91189548EDFD
:100390004CBF17BF4CBF16BF41E043B956E051B93F
:1003A00042B915BB13BB40BB42BB41BB7894B8DF1D
:1003B00040A14423E9F3B4DF10A9FACFF894FFCFAA
:00000001FF
