S00D000062735F6D382E737265633E
S113000012C059C07BC02AC029C028C0A0C026C0C5
S113001025C024C023C045C021C020C01FC01EC0AD
S11300201DC01CC01BC011241FBECFE5D4E0DEBF21
S1130030CDBF10E0A0E6B0E0EEE1F6E002C005902E
S11300400D92AC36B107D9F720E0ACE6B0E001C0C0
S11300501D92A138B207E1F79FD0DFC2D1CF8DE264
S113006087BB81E088BB14BA15BA80EC81BB88E8F1
S113007082BB08951FBC8BE08EBD1DBC1CBC17BC8D
S113008016BC1BBC8CE78ABD19BC18BC08958BB781
S1130090806C8BBF8AE085BF80EC8ABF81E189BF19
S11300A008951F920F920FB60F9211240F900FBE56
S11300B00F901F9018951F920F920FB60F92112454
S11300C02F933F934F935F936F937F938F939F935C
S11300D0AF93BF93EF93FF9334D2FF91EF91BF910E
S11300E0AF919F918F917F916F915F914F913F91CC
S11300F02F910F900FBE0F901F9018951F920F9283
S11301000FB60F9211248F939F93AF93BF93809157
S11301107000811113C081E08093700080917100A0
S113012090917200A0917300B091740080936C0060
S113013090936D00A0936E00B0936F00BF91AF9148
S11301409F918F910F900FBE0F901F9018951F9243
S11301500F920FB60F9211248F939F93AF93BF9377
S11301608091710090917200A0917300B09174001D
S11301700196A11DB11D8093710090937200A0930C
S11301807300B0937400BF91AF919F918F910F90C2
S11301900FBE0F901F9018957ADF61DF6BDFF9D1E6
S11301A088E090E008D28DD1789486E690E014D26D
S11301B085E019C092B3906492BB2FE738E391E0D5
S11301C0215030409040E1F700C0000092B39F7B83
S11301D092BB2FE738E391E0215030409040E1F7A3
S11301E000C0000081508111E5CF03D1FECFCF9331
S11301F0C82F82B38F7782BB8C2FD8D1C73011F030
S11302008FEFD4D192B3906892BBCF910895CF93DE
S1130210C62F92B39F7792BB8062C4D18C2FC2D178
S113022082B3806882BBCF91089582B38F7782BBFB
S113023080E5B8D182E08A95F1F700C083E7B2D1B6
S113024082B3806882BB0895CF92DF92FF920F93AE
S11302501F93CF93DF93D82F6B01F42E82B38F7744
S113026082BB8D2F9FD1C0E008C086010C0F111DE9
S11302708D2F9CD1F8018083CF5FCF15B0F382B36B
S1130280806882BBDF91CF911F910F91FF90DF9027
S1130290CF9008950F931F93CF93DF938B01D42FA7
S11302A092B39F7792BB80627DD182E08A95F1F709
S11302B000C0C0E006C0F801EC0FF11D808172D1CE
S11302C0CF5FCD17C0F382B3806882BBDF91CF913B
S11302D01F910F91089582B38F7782BB82EE62D112
S11302E082E08A95F1F700C082B3806882BB0895EA
S11302F082B38F7782BB81EE55D182E08A95F1F784
S113030000C082B3806882BB089580E070DF682FEC
S1130310636080E07CDF43E060E670E080E1BADFA8
S113032043E060E670E08AE0B5DF88B3816088BBB3
S11303308BE291E00197F1F700C00000CCDFD8DF39
S1130340089543E063E670E080E1A4DF43E063E600
S113035070E08AE09FDF88B38E7F88BBBCDFC8DF94
S113036008950F931F93CF93DF938B01D42F98B3EA
S11303709E7F98BB92B39F7792BB14D182E08A95FB
S1130380F1F700C0C0E006C0F801EC0FF11D808158
S113039009D1CF5FCD17C0F382B3806882BB88B325
S11303A0816088BBDF91CF911F910F910895CF9306
S11303B0DF93EC01C6DF80E01ADF8E7F682F626076
S11303C080E025DF8BE291E00197F1F700C00000A7
S11303D045E0BE0180EAC5DF88B3816088BB98E24E
S11303E09A95F1F788B38E7F88BB80E0DF91CF9137
S11303F0089580917600813009F062C010927600F1
S113040080917C008F3FA9F41092700010926C00D0
S113041010926D0010926E0010926F001092710095
S113042010927200109273001092740082B38F7B4A
S113043082BB80917C00853009F042C080917000BD
S11304408823C9F0E7E7F0E085E0808380916C00C1
S113045090916D00A0916E00B0916F0081839283A2
S1130460A383B48387EC90E00197F1F700C0000008
S1130470CF019DDF13C0E7E7F0E085E080838FEFD5
S11304809FEFDC0181839283A383B48387EC90E0A4
S11304900197F1F700C00000CF0189DF80917D0052
S11304A0813071F480917E00813019F482B38064CC
S11304B082BB80917E00811103C082B38F7B82BB9B
S11304C0089588B38E7F88BB8FE097E20197F1F798
S11304D000C000006AE080E09ADE8FE097E20197B6
S11304E0F1F700C0000060E081E091DE61E082E0AD
S11304F08EDE61E083E08BDE60E084E088DE95DE02
S113050067E08DE184DE60E08CE181DE60E787E016
S11305107EDE6CE485E07BDE66E086E078DE43E048
S113052063E670E080E1B6DE43E063E670E08BE012
S1130530B1DE65E081E16BDEE8DE82B38F7B82BBF6
S11305400895CF938AE18A95F1F700C087E04FDEE2
S1130550C82F86FF0BC045E06CE770E081E674DECF
S113056060E487E054DE81E080937600C5FF08C034
S113057060E287E04CDEC9DE81E08093750007C04D
S1130580C4FF05C060E187E042DEB2DEBEDECF918B
S1130590089587B38C6287BB88B3837D88BB80E56D
S11305A08DB908958FB9779BFECF08958FB9779B46
S11305B0FECF8FB1089590BD89B988E18AB98AB117
S11305C080688AB98BB182608BB98EE880BD08954A
S11305D05D9BFECF8CB908950F931F93CF93DF9348
S11305E08C01C0E0D0E006C0F801EC0FFD1F808153
S11305F0EFDF2196F80101900020E9F73197E01B25
S1130600F10BCE17DF0780F38DE0E2DF8AE0E0DF55
S1110610DF91CF911F910F910895F894FFCFC1
S10F061EB7B5A1B5B5A173746172740086
S9030000FC
