S00D000062735F6D382E737265633E
S113000012C058C07AC02AC029C028C09FC026C0C8
S113001025C024C023C044C021C020C01FC01EC0AE
S11300201DC01CC01BC011241FBECFE5D4E0DEBF21
S1130030CDBF10E0A0E6B0E0ECE5FBE002C0059027
S11300400D92AC3FB107D9F721E0ACEFB0E001C0AD
S11300501D92A233B207E1F79ED07EC5D1CF8DE2C7
S113006087BB18BA14BA15BA80EC81BB88E082BB8E
S113007008951FBC8BE08EBD1DBC1CBC17BC16BCF8
S11300801BBC8CE78ABD19BC18BC81E189BF0895EB
S11300908BB7806C8BBF8AE085BF80EC8ABF0895E4
S11300A01F920F920FB60F9211240F900FBE0F9054
S11300B01F9018951F920F920FB60F9211242F9331
S11300C03F934F935F936F937F938F939F93AF93DC
S11300D0BF93EF93FF93FCD1FF91EF91BF91AF9149
S11300E09F918F917F916F915F914F913F912F914C
S11300F00F900FBE0F901F9018951F920F920FB67E
S11301000F9211248F939F93AF93BF93809100011B
S1130110811113C081E080930001809101019091CD
S11301200201A0910301B09104018093FC0090931B
S1130130FD00A093FE00B093FF00BF91AF919F918B
S11301408F910F900FBE0F901F9018951F920F92D2
S11301500FB60F9211248F939F93AF93BF93809107
S1130160010190910201A0910301B0910401019653
S1130170A11DB11D8093010190930201A09303017D
S1130180B0930401BF91AF919F918F910F900FBED7
S11301900F901F9018957CDF62DF6BDFC1D188E080
S11301A090E0D0D155D1789486E690E0DCD180E01F
S11301B0A5D080930A011F928F938CE690E09F93C1
S11301C08F93CBE0D1E0DF93CF93EED1CE01CBD1AF
S11301D081E094D080930A011F928F938BE790E083
S11301E09F938F93DF93CF93DFD1CE01BCD182E075
S11301F085D080930A011F928F9389E890E09F93A2
S11302008F93DF93CF93D0D1CE01ADD187E076D059
S113021080930A011F928F938BE990E09F938F93B1
S1130220DF93CF93C1D1CE019ED186E067D0809376
S11302300A011F928F938AEA90E09F938F93DF9332
S1130240CF93B2D1CE018FD143E065E071E080E17C
S113025082D005E011E0F8012281918180811F9212
S11302602F931F929F931F928F938BEB90E09F93FA
S11302708F93DF93CF9398D18DB79EB788960FB69F
S1130280F8949EBF0FBE8DBFCE016DD143E0B8017F
S11302908BE061D0F8012281918180811F922F939C
S11302A01F929F931F928F938BED90E09F938F9358
S11302B0DF93CF9379D1CE0156D18DB79EB70A96ED
S11302C00FB6F8949EBF0FBE8DBF9FEFE0E7F2E03C
S11302D09150E040F040E1F700C0000082B3806438
S11302E082BB2FEF80E792E0215080409040E1F7FD
S11302F000C0000082B38F7B82BBE7CFCF93C82FAF
S113030082B38F7782BB8C2F18D1C73011F08FEF57
S113031014D192B3906892BBCF910895CF93C62F16
S113032092B39F7792BB806204D18C2F02D182B3A7
S1130330806882BBCF91089582B38F7782BB80E5BA
S1130340F8D082E08A95F1F700C083E7F2D082B357
S1130350806882BB0895CF92DF92FF920F931F9320
S1130360CF93DF93D82F6B01F42E82B38F7782BBA8
S11303708D2FDFD0C0E008C086010C0F111D8D2F1A
S1130380DCD0F8018083CF5FCF15B0F382B38068EF
S113039082BBDF91CF911F910F91FF90DF90CF909F
S11303A008950F931F93CF93DF938B01D42F92B3B0
S11303B09F7792BB8062BDD082E08A95F1F700C03E
S11303C0C0E006C0F801EC0FF11D8081B2D0CF5F10
S11303D0CD17C0F382B3806882BBDF91CF911F91A8
S11303E00F91089582B38F7782BB82EEA2D082E010
S11303F08A95F1F700C082B3806882BB089582B306
S11304008F7782BB81EE95D082E08A95F1F700C0A8
S113041082B3806882BB089580E070DF682F6360D8
S113042080E07CDF43E060E670E080E1BADF43E037
S113043060E670E08AE0B5DF88B3816088BB8BE258
S113044091E00197F1F700C00000CCDFD8DF0895F8
S113045088B38E7F88BB8FE097E20197F1F700C0E5
S113046000006AE080E05ADF8FE097E20197F1F73D
S113047000C0000061E081E051DF61E082E04EDF16
S113048061E083E04BDF6FE584E048DF55DF60E047
S11304908DE144DF60E08CE141DF60E787E03EDF2F
S11304A06CE485E03BDF66E086E038DF43E063E64A
S11304B070E080E176DF43E063E670E08BE071DFBB
S11304C065E081E12BDFA8DF82B38F7B82BB0895D7
S11304D0CF938AE18A95F1F700C087E00FDFC82F38
S11304E086FF0BC045E06DE271E081E634DF60E435
S11304F087E014DF81E080932C01C5FF08C060E22F
S113050087E00CDF89DF81E080932B0107C0C4FF03
S113051005C060E187E002DF72DF7EDFCF910895DE
S113052087B38C6287BB88B3837D88BB80E58DB934
S113053008958FB9779BFECF08958FB9779BFECF2F
S11305408FB1089590BD89B988E18AB98AB180686C
S11305508AB98BB182608BB98EE880BD08955D9BAA
S1130560FECF8CB908950F931F93CF93DF938C0123
S1130570C0E0D0E006C0F801EC0FFD1F8081EFDF82
S11305802196F80101900020E9F73197E01BF10B67
S1130590CE17DF0780F38DE0E2DF8AE0E0DFDF9152
S11305A0CF911F910F910895AEE0B0E0E9EDF2E034
S11305B0AAC20D891E8986E08C831A8309838FEF72
S11305C09FE79E838D83AE01475E5F4F6F89788D71
S11305D0CE01019608D0EF81F885E00FF11F10825B
S11305E02E96E4E0ACC2ABE0B0E0E8EFF2E07DC20E
S11305F06C017B018A01FC0117821682838181FFD1
S1130600BFC1CE0101963C01F6019381F70193FD30
S1130610859193FF81917F01882309F4ADC18532CF
S113062039F493FD859193FF81917F01853221F403
S1130630B60190E0C0D1E8CF912C212C312CFFE100
S1130640F315D8F08B3279F038F4803279F08332B4
S1130650A1F4232D20611DC08D3261F0803369F433
S1130660232D216016C0832D8260382EE32DE46093
S11306703E2E2AC0F32DF8601DC037FC2DC020ED9E
S1130680280F2A3040F08E32B9F436FC75C1232D80
S11306902064322E19C036FE06C08AE0989E200DD2
S11306A01124922E11C0EAE02E9E200D1124222E38
S11306B0F32DF0623F2E08C08C3621F4832D806820
S11306C0382E02C0883641F4F70193FD859193FFDB
S11306D081917F018111B3CF982F9F7D95549330E1
S11306E028F40C5F1F4F9FE399830DC0833631F0CC
S11306F0833771F0833509F055C020C0F80180813B
S113070089830E5F1F4F88248394912C530112C058
S11307102801F2E04F0E511CF801A080B18036FE92
S113072003C0692D70E002C06FEF7FEFC50138D1BF
S11307304C018201F32DFF773F2E15C0280122E0E2
S1130740420E511CF801A080B18036FE03C0692D11
S113075070E002C06FEF7FEFC50117D14C01F32D9C
S1130760F0683F2E820133FC19C0822D90E0881678
S11307709906A0F4B60180E290E01DD12A94F5CF49
S1130780F50137FC859137FE81915F01B60190E058
S113079012D121102A9421E0821A91088114910423
S11307A079F7E1C0843611F0893639F5F80137FE5E
S11307B007C060817181828193810C5F1F4F08C0E3
S11307C060817181072E000C880B990B0E5F1F4FFF
S11307D0F32DFF763F2E97FF09C090958095709575
S11307E061957F4F8F4F9F4FF0683F2E2AE030E096
S11307F0A3011DD1882E861844C0853731F4232DDA
S11308002F7EB22E2AE030E025C0932D997FB92E99
S11308108F36C1F018F4883579F0AEC0803719F0FE
S1130820883721F0A9C0E92FE061BE2EB4FE0DC0C7
S1130830FB2DF460BF2E09C034FE0AC0292F2660A8
S1130840B22E06C028E030E005C020E130E002C04E
S113085020E132E0F801B7FE07C060817181828136
S113086093810C5F1F4F06C06081718180E090E02E
S11308700E5F1F4FA301DBD0882E8618FB2DFF7758
S11308803F2E36FE0DC0232D2E7FA22E891458F440
S113089034FE0BC032FC09C0832D8E7EA82E05C009
S11308A0B82CA32C03C0B82C01C0B92CA4FE0FC0D3
S11308B0FE01E80DF11D8081803321F49A2D997E8B
S11308C0A92E09C0A2FE06C0B394B39404C08A2D15
S11308D0867809F0B394A3FC10C0A0FE06C0B2143D
S11308E080F4280C922C9B180DC0B21458F4B60155
S11308F080E290E060D0B394F8CFB21418F42B18CF
S113090002C0982C212CA4FE0FC0B60180E390E015
S113091052D0A2FE16C0A1FC03C088E790E002C03A
S113092088E590E0B6010CC08A2D867851F0A1FECE
S113093002C08BE201C080E2A7FC8DE2B60190E028
S11309403AD0891430F4B60180E390E034D09A941C
S1130950F8CF8A94F301E80DF11D8081B60190E08F
S11309602AD08110F6CF222009F44ECEB60180E2BF
S113097090E021D02A94F7CFF6018681978102C0B6
S11309808FEF9FEF2B96E2E1CCC0FC010590615004
S113099070400110D8F7809590958E0F9F1F089591
S11309A0FC016150704001900110D8F7809590953A
S11309B08E0F9F1F08950F931F93CF93DF93FB0117
S11309C0238121FD03C08FEF9FEF2CC022FF16C0AF
S11309D046815781248135814217530744F4A0810D
S11309E0B1819D012F5F3F4F318320838C932681FA
S11309F037812F5F3F4F3783268314C08B01EC016F
S1130A00FB010084F185E02D0995892BE1F6D801DD
S1130A1016968D919C911797019617969C938E9399
S1130A201697CE01DF91CF911F910F910895FA018E
S1130A30AA27283051F1203181F1E8946F936E7F19
S1130A406E5F7F4F8F4F9F4FAF4FB1E03ED0B4E00A
S1130A503CD0670F781F891F9A1FA11D680F791F4B
S1130A608A1F911DA11D6A0F711D811D911DA11D5C
S1130A7020D009F468943F912AE0269F112430196C
S1130A80305D3193DEF6CF010895462F4770405D07
S1130A904193B3E00FD0C9F7F6CF462F4F70405DB6
S1130AA04A3318F0495D31FD4052419302D0A9F711
S1130AB0EACFB4E0A6959795879577956795BA950B
S1130AC0C9F700976105710508959B01AC010A2ED1
S1130AD006945795479537952795BA95C9F7620FA8
S1130AE0731F841F951FA01D08952F923F924F924C
S1130AF05F926F927F928F929F92AF92BF92CF92AA
S1130B00DF92EF92FF920F931F93CF93DF93CDB7B2
S1130B10DEB7CA1BDB0B0FB6F894DEBF0FBECDBF2A
S1130B2009942A88398848885F846E847D848C84FB
S1130B309B84AA84B984C884DF80EE80FD800C8104
S1130B401B81AA81B981CE0FD11D0FB6F894DEBFE7
S10F0B500FBECDBFED010895F894FFCF57
S1130B5CB7B5A1B5B5A1737461727400434F4E4619
S1130B6C49473A2030782530325800454E5F414190
S1130B7C3A2030782530325800454E5F5258414463
S1130B8C44523A203078253032580053544154554D
S1130B9C533A203078253032580052465F5345542E
S1130BAC55503A203078253032580054585F41441F
S1130BBC44523A203078253032582C203078253065
S1130BCC32582C203078253032580052585F41442A
S1130BDC44523A203078253032582C203078253045
S10F0BEC32582C2030782530325800009C
S9030000FC
