:1000000012C059C07BC02AC029C028C0A0C026C0C9
:1000100025C024C023C045C021C020C01FC01EC0B1
:100020001DC01CC01BC011241FBECFE5D4E0DEBF25
:10003000CDBF10E0A0E6B0E0E6EAFCE002C005902B
:100040000D92AC3FB107D9F721E0ACEFB0E001C0B1
:100050001D92A733B207E1F79FD023C6D1CF8DE21F
:1000600087BB81E088BB14BA15BA80EC81BB88E8F5
:1000700082BB08951FBC8BE08EBD1DBC1CBC17BC91
:1000800016BC1BBC8CE78ABD19BC18BC81E189BFBA
:1000900008958BB7806C8BBF8AE085BF80EC8ABFE8
:1000A00008951F920F920FB60F9211240F900FBE5A
:1000B0000F901F9018951F920F920FB60F92112458
:1000C0002F933F934F935F936F937F938F939F9360
:1000D000AF93BF93EF93FF93A0D2FF91EF91BF91A6
:1000E000AF919F918F917F916F915F914F913F91D0
:1000F0002F910F900FBE0F901F9018951F920F9287
:100100000FB60F9211248F939F93AF93BF9380915B
:100110000001811113C081E08093000180910101F1
:1001200090910201A0910301B09104018093FC0021
:100130009093FD00A093FE00B093FF00BF91AF919C
:100140009F918F910F900FBE0F901F9018951F9247
:100150000F920FB60F9211248F939F93AF93BF937B
:100160008091010190910201A0910301B0910401DD
:100170000196A11DB11D8093010190930201A093EE
:100180000301B0930401BF91AF919F918F910F90A4
:100190000FBE0F901F9018957CDF61DF6BDF65D27B
:1001A00088E090E074D2F9D1789486E690E080D22D
:1001B00080E08ED080930A011F928F938CE690E0AE
:1001C0009F938F93CBE0D1E0DF93CF9392D2CE0178
:1001D0006FD281E07DD080930A011F928F938BE7CD
:1001E00090E09F938F93DF93CF9383D2CE0160D221
:1001F00082E06ED080930A011F928F9389E890E08D
:100200009F938F93DF93CF9374D2CE0151D287E027
:100210005FD080930A011F928F938BE990E09F93A8
:100220008F93DF93CF9365D2CE0142D286E050D038
:1002300080930A011F928F938AEA90E09F938F9395
:10024000DF93CF9356D2CE0133D243E065E071E025
:1002500080E16DD005E011E0F8012281918180817B
:100260001F922F931F929F931F928F938BEB90E07F
:100270009F938F93DF93CF933CD2EDB7FEB7B896A1
:100280000FB6F894FEBF0FBEEDBFCE0111D243E012
:10029000B8018BE04CD0F8012281918180811F92BE
:1002A0002F931F929F931F928F938BED90E09F93BC
:1002B0008F93DF93CF931DD2CE01FAD1EDB7FEB766
:1002C0003A960FB6F894FEBF0FBEEDBF05D1FECF34
:1002D000CF93C82F82B38F7782BB8C2FD3D1C730F7
:1002E00021F08FEFCBD18FEFCDD192B3906892BB3D
:1002F000CF910895CF93C62F92B39F7792BB806220
:10030000BDD18C2FBBD182B3806882BBCF910895C1
:1003100082B38F7782BB80E5B1D182E08A95F1F715
:1003200000C083E7ABD182B3806882BB0895CF92CF
:10033000DF92FF920F931F93CF93DF93D82F6B0120
:10034000F42E82B38F7782BB8D2F98D1C0E008C086
:1003500086010C0F111D8D2F95D1F8018083CF5F81
:10036000CF15B0F382B3806882BBDF91CF911F912C
:100370000F91FF90DF90CF9008950F931F93CF932D
:10038000DF938B01D42F92B39F7792BB806276D19B
:1003900082E08A95F1F700C0C0E006C0F801EC0FDA
:1003A000F11D80816BD1CF5FCD17C0F382B3806820
:1003B00082BBDF91CF911F910F91089582B38F7708
:1003C00082BB82EE5BD182E08A95F1F700C082B3F6
:1003D000806882BB089582B38F7782BB81EE4ED155
:1003E00082E08A95F1F700C082B3806882BB0895ED
:1003F00080E06EDF682F636080E07CDF43E060E6D2
:1004000070E080E1BADF43E060E670E08AE0B5DFEB
:1004100088B3816088BB8BE291E00197F1F700C05F
:100420000000CCDFD8DF089543E063E670E080E1B0
:10043000A4DF43E063E670E08AE09FDF88B38E7F4D
:1004400088BBBCDFC8DF08950F931F93CF93DF9362
:100450008B01D42F98B39E7F98BB92B39F7792BBAA
:100460000DD182E08A95F1F700C0C0E006C0F80126
:10047000EC0FF11D808102D1CF5FCD17C0F382B3A5
:10048000806882BB88B3816088BBDF91CF911F9168
:100490000F910895CF93DF93EC01C6DF80E018DF62
:1004A0008E7F682F626080E025DF8BE291E001970C
:1004B000F1F700C0000045E0BE0180EAC5DF88B367
:1004C000816088BB98E29A95F1F788B38E7F88BBEC
:1004D00080E0DF91CF91089580912C01813009F067
:1004E0005BC010922C01809132018F3FA9F41092D1
:1004F00000011092FC001092FD001092FE0010927C
:10050000FF0010920101109202011092030110925B
:10051000040182B38F7B82BB809132018430E1F58C
:10052000809100018823B1F0EDE2F1E084E0808366
:100530008091FC009091FD00A091FE00B091FF0021
:1005400081839283A383B48388EC8A95F1F7CF01EA
:10055000A1DF10C0EDE2F1E084E080838FEF9FEF38
:10056000DC0181839283A383B48388EC8A95F1F7BD
:10057000CF0190DF80913301813071F4809134019B
:10058000813019F482B3806482BB8091340181117F
:1005900003C082B38F7B82BB089588B38E7F88BBF4
:1005A0008FE097E20197F1F700C000006AE080E079
:1005B000A1DE8FE097E20197F1F700C0000061E053
:1005C00081E098DE61E082E095DE61E083E092DE2A
:1005D0006FE584E08FDE9CDE60E08DE18BDE60E025
:1005E0008CE188DE60E787E085DE6CE485E082DE12
:1005F00066E086E07FDE43E063E670E080E1BDDE3A
:1006000043E063E670E08BE0B8DE65E081E172DE36
:10061000EFDE82B38F7B82BB0895CF938AE18A9508
:10062000F1F700C087E054DEC82F86FF0BC045E01D
:1006300062E371E081E67BDE60E487E05BDE81E01F
:1006400080932C01C5FF08C060E287E053DED0DE56
:1006500081E080932B0107C0C4FF05C060E187E003
:1006600049DEB9DEC5DECF91089587B38C6287BBC2
:1006700088B3837D88BB80E58DB908958FB9779B5A
:10068000FECF08958FB9779BFECF8FB1089590BDAF
:1006900089B988E18AB98AB180688AB98BB18260E8
:1006A0008BB98EE880BD08955D9BFECF8CB908950F
:1006B0000F931F93CF93DF938C01C0E0D0E006C06F
:1006C000F801EC0FFD1F8081EFDF2196F80101900A
:1006D0000020E9F73197E01BF10BCE17DF0780F31D
:1006E0008DE0E2DF8AE0E0DFDF91CF911F910F9193
:1006F0000895AEE0B0E0EEE7F3E0AAC20D891E89EE
:1007000086E08C831A8309838FEF9FE79E838D8316
:10071000AE01475E5F4F6F89788DCE01019608D09C
:10072000EF81F885E00FF11F10822E96E4E0ACC255
:10073000ABE0B0E0EDE9F3E07DC26C017B018A0142
:10074000FC0117821682838181FFBFC1CE01019611
:100750003C01F6019381F70193FD859193FF81910F
:100760007F01882309F4ADC1853239F493FD859169
:1007700093FF81917F01853221F4B60190E0C0D1D1
:10078000E8CF912C212C312CFFE1F315D8F08B32DE
:1007900079F038F4803279F08332A1F4232D20618E
:1007A0001DC08D3261F0803369F4232D216016C0A5
:1007B000832D8260382EE32DE4603E2E2AC0F32D77
:1007C000F8601DC037FC2DC020ED280F2A3040F006
:1007D0008E32B9F436FC75C1232D2064322E19C037
:1007E00036FE06C08AE0989E200D1124922E11C07C
:1007F000EAE02E9E200D1124222EF32DF0623F2ED2
:1008000008C08C3621F4832D8068382E02C08836CB
:1008100041F4F70193FD859193FF81917F0181114F
:10082000B3CF982F9F7D9554933028F40C5F1F4FC2
:100830009FE399830DC0833631F0833771F08335A0
:1008400009F055C020C0F801808189830E5F1F4FD9
:1008500088248394912C530112C02801F2E04F0E9A
:10086000511CF801A080B18036FE03C0692D70E0F4
:1008700002C06FEF7FEFC50138D14C018201F32D2B
:10088000FF773F2E15C0280122E0420E511CF801CF
:10089000A080B18036FE03C0692D70E002C06FEF0A
:1008A0007FEFC50117D14C01F32DF0683F2E820177
:1008B00033FC19C0822D90E088169906A0F4B60189
:1008C00080E290E01DD12A94F5CFF50137FC8591A7
:1008D00037FE81915F01B60190E012D121102A9478
:1008E00021E0821A91088114910479F7E1C08436DD
:1008F00011F0893639F5F80137FE07C06081718142
:10090000828193810C5F1F4F08C060817181072E27
:10091000000C880B990B0E5F1F4FF32DFF763F2EB7
:1009200097FF09C090958095709561957F4F8F4F87
:100930009F4FF0683F2E2AE030E0A3011DD1882EA2
:10094000861844C0853731F4232D2F7EB22E2AE03D
:1009500030E025C0932D997FB92E8F36C1F018F461
:10096000883579F0AEC0803719F0883721F0A9C0FA
:10097000E92FE061BE2EB4FE0DC0FB2DF460BF2E4A
:1009800009C034FE0AC0292F2660B22E06C028E016
:1009900030E005C020E130E002C020E132E0F801A3
:1009A000B7FE07C060817181828193810C5F1F4F08
:1009B00006C06081718180E090E00E5F1F4FA3014F
:1009C000DBD0882E8618FB2DFF773F2E36FE0DC01C
:1009D000232D2E7FA22E891458F434FE0BC032FC36
:1009E00009C0832D8E7EA82E05C0B82CA32C03C071
:1009F000B82C01C0B92CA4FE0FC0FE01E80DF11DFA
:100A00008081803321F49A2D997EA92E09C0A2FEFF
:100A100006C0B394B39404C08A2D867809F0B394C9
:100A2000A3FC10C0A0FE06C0B21480F4280C922CC7
:100A30009B180DC0B21458F4B60180E290E060D06B
:100A4000B394F8CFB21418F42B1802C0982C212CB0
:100A5000A4FE0FC0B60180E390E052D0A2FE16C003
:100A6000A1FC03C088E790E002C088E590E0B601F1
:100A70000CC08A2D867851F0A1FE02C08BE201C025
:100A800080E2A7FC8DE2B60190E03AD0891430F400
:100A9000B60180E390E034D09A94F8CF8A94F301C1
:100AA000E80DF11D8081B60190E02AD08110F6CFCB
:100AB000222009F44ECEB60180E290E021D02A94A3
:100AC000F7CFF6018681978102C08FEF9FEF2B96BB
:100AD000E2E1CCC0FC010590615070400110D8F7F4
:100AE000809590958E0F9F1F0895FC016150704076
:100AF00001900110D8F7809590958E0F9F1F089553
:100B00000F931F93CF93DF93FB01238121FD03C03C
:100B10008FEF9FEF2CC022FF16C0468157812481A2
:100B200035814217530744F4A081B1819D012F5FA5
:100B30003F4F318320838C93268137812F5F3F4F36
:100B40003783268314C08B01EC01FB010084F185FF
:100B5000E02D0995892BE1F6D80116968D919C918F
:100B60001797019617969C938E931697CE01DF9157
:100B7000CF911F910F910895FA01AA27283051F1C2
:100B8000203181F1E8946F936E7F6E5F7F4F8F4FBE
:100B90009F4FAF4FB1E03ED0B4E03CD0670F781F1D
:100BA000891F9A1FA11D680F791F8A1F911DA11D02
:100BB0006A0F711D811D911DA11D20D009F468943B
:100BC0003F912AE0269F11243019305D3193DEF6E3
:100BD000CF010895462F4770405D4193B3E00FD099
:100BE000C9F7F6CF462F4F70405D4A3318F0495D84
:100BF00031FD4052419302D0A9F7EACFB4E0A69567
:100C00009795879577956795BA95C9F70097610588
:100C1000710508959B01AC010A2E069457954795DE
:100C200037952795BA95C9F7620F731F841F951FD3
:100C3000A01D08952F923F924F925F926F927F92E4
:100C40008F929F92AF92BF92CF92DF92EF92FF92DC
:100C50000F931F93CF93DF93CDB7DEB7CA1BDB0B88
:100C60000FB6F894DEBF0FBECDBF09942A8839882D
:100C700048885F846E847D848C849B84AA84B98434
:100C8000C884DF80EE80FD800C811B81AA81B98140
:100C9000CE0FD11D0FB6F894DEBF0FBECDBFED0154
:060CA0000895F894FFCF57
:100CA600B7B5A1B5B5A1737461727400434F4E46D2
:100CB60049473A2030782530325800454E5F414149
:100CC6003A2030782530325800454E5F525841441C
:100CD60044523A2030782530325800535441545506
:100CE600533A203078253032580052465F534554E7
:100CF60055503A203078253032580054585F4144D8
:100D060044523A203078253032582C20307825301D
:100D160032582C203078253032580052585F4144E2
:100D260044523A203078253032582C2030782530FD
:0C0D360032582C20307825303258000054
:00000001FF
