:020000040800F2
:100000008806002035020008EB090008D10300082B
:10001000E909000865030008CD0F00080000000092
:10002000000000000000000000000000A10E000819
:1000300067030008000000009F0E0008A30E0008E0
:100040004F0200084F0200084F0200084F0200084C
:100050004F0200084F02000891030008B103000896
:100060004F0200084F0200084F0200084F0200082C
:100070004F0200084F0200084F0200084F0200081C
:100080004F0200084F0200084F0200080000000065
:100090000000000000000000000000004F02000807
:1000A0004F020008C90F00084F0200084F02000865
:1000B0004F0200084F0200084F0200084F020008DC
:1000C0004F0200084F0200084F0200084F020008CC
:1000D0004F0200084F0200084F0200080000000015
:1000E0004F0200084F0200084F0200080000000005
:1000F0000000000000000000000000004F020008A7
:10010000000000004F0200084F0200084F020008E4
:1001100000000000000000000000000000000000DF
:100120004F0200084F0200084F0200084F0200086B
:100130004F02000800000000000000000000000066
:100140000000000000000000000000004F02000856
:100150004F0200084F0200084F0200084F0200083B
:100160004F0200084F0200080000000000000000DD
:10017000000000000000000000000000000000007F
:10018000000000004F020008000000000000000016
:100190004F02000800F002F800F03CF80AA090E8D6
:1001A000000C82448344AAF10107DA4501D100F032
:1001B00031F8AFF2090EBAE80F0013F0010F18BFC3
:1001C000FB1A43F001031847140F0000340F00001E
:1001D000103A24BF78C878C1FAD8520724BF30C873
:1001E00030C144BF04680C60704700000023002445
:1001F00000250026103A28BF78C1FBD8520728BF37
:1002000030C148BF0B6070471FB500F061FF1FBDD4
:1002100010B510BD00F058F81146FFF7F5FF00F0DB
:10022000FBFE00F076F803B4FFF7F2FF03BC00F02A
:100230007DF800000948804709480047FEE7FEE7CF
:10024000FEE7FEE7FEE7FEE7FEE7FEE7FEE7FEE786
:1002500004480549054A064B70470000950F000801
:1002600095010008880000208806002088020020F0
:10027000880200204FF0000200B5134694469646CF
:10028000203922BFA0E80C50A0E80C50B1F12001A9
:10029000BFF4F7AF090728BFA0E80C5048BF0CC057
:1002A0005DF804EB890028BF40F8042B08BF7047B5
:1002B00048BF20F8022B11F0804F18BF00F8012B27
:1002C0007047704770477047754600F02BF8AE4690
:1002D00005006946534620F00700854618B020B552
:1002E000FFF7B6FFBDE820404FF000064FF00007D3
:1002F0004FF000084FF0000B21F00701AC46ACE8CE
:10030000C009ACE8C009ACE8C009ACE8C0098D463A
:10031000704710B50446AFF300802046BDE810409A
:10032000FFF781BF004870472400002001491820D2
:10033000ABBEFEE72600020070470000074901201F
:10034000096988434FF0010106D005480278002A68
:1003500002D10170416881607047000000000240D6
:1003600014000020FEE7704701B507480749006800
:10037000B0FBF1F0009948430090411E009101D379
:100380000846FAE708BD000020000020405489001C
:1003900010B5012000F0B6F8FF2806D0034901206F
:1003A0000860BDE81040FFF7C9BF10BD143C014014
:1003B00010B5022000F0A6F8FF2806D0034902205D
:1003C0000860BDE8104000F005B810BD143C0140C5
:1003D000FEE7000070B50A20FFF7C6FF072000F017
:1003E000E7FB0446124D40064FF001060AD50522F0
:1003F00005F10801612000F001FC4021072000F018
:1004000089FC2E70A00607D52021072000F082FC71
:1004100000F0ECFA6E7070BDE006FCD510210720EC
:1004200000F078FC00F0A4FBBDE8704000F0DEBAFC
:1004300000000020044908B50A6802430A60096800
:100440000140009108BD000030380240044908B561
:100450000A6802430A6009680140009108BD000073
:100460004438024030B5264A002405790168131F3C
:1004700085B371B345798DB1012D17D0022D18D0F8
:10048000012483792BB31E4908310A1F012B18D090
:10049000022B20D0032B22D0012428E015688D43A5
:1004A000156001681A680A431A60EAE71D688D43FF
:1004B00001E01D680D431D60016813680B43136064
:1004C000DFE703680D689D430D6000681168014314
:1004D00011600CE00DE0036815689D4302E00368BD
:1004E00015681D43156000680A6802430A602046CB
:1004F00030BD1D688D431D60006811688143E7E7CA
:10050000043C014003490968884301D0002070473A
:1005100001207047143C0140F0B50A680F2692FA9A
:10052000A2F2B2FA82F303248AE001279F4015EA7F
:1005300007027DD04D68012D01D0022D1BD18D68A1
:10054000876892FAA2FCBCFA8CFC4FEA4C0C04FAC5
:100550000CFC27EA0C0792FAA2FCBCFA8CFC4FEACE
:100560004C0C05FA0CF52F438760CD68476855435E
:1005700097432F4347600F69D0F80CC092FAA2F559
:10058000B5FA85F54FEA450E04FA0EF52CEA050C8E
:1005900092FAA2F5B5FA85F56D00AF404CEA070C6A
:1005A000C0F80CC04D68022D33D192FAA2F5B5FA0D
:1005B00085F5082D15D2D1F814C0056A92FAA2F774
:1005C000B7FA87F7BF0006FA07F7BD4392FAA2F71A
:1005D000B7FA87F7BF000CFA07FC45EA0C0505627D
:1005E00017E0D1F814E0476A150A95FAA5FCBCFAA1
:1005F0008CFC4FEA8C0C06FA0CFC95FAA5F5B5FAC2
:1006000085F5AD0027EA0C070EFA05FE47EA0E074E
:1006100047624D68076892FAA2FCBCFA8CFC4FEA6C
:100620004C0C04FA0CFE27EA0E0792FAA2F200E044
:1006300005E0B2FA82F2520095402F4307605B1C3E
:100640000A681546DA407FF470AF0020F0BD30B57F
:10065000036891FAA1F4B4FA84F465000324AC4071
:1006600091FAA1F1B1FA81F14900A3438A40134301
:10067000036030BD30B5C36891FAA1F4B4FA84F4D4
:1006800065000324AC4091FAA1F1B1FA81F149006F
:10069000A3438A401343C36030BD4FF47A71B0FB6B
:1006A000F1F14FF0E020491E4161002181610521F7
:1006B0000161704710B503680122C3F380132BBB9F
:1006C000D1E900231A43D1E9023423431A430B69C9
:1006D0001A434B691A438B691A43CB691A430B6A55
:1006E0001A4303684FF6BF74A3431A43026042687B
:1006F0004B6922F0040242EA134242600A6AB2F5F0
:10070000005F02D1898C89B201610022C16921F4A4
:100710000061C161104610BD0A06930D074A1A44D4
:10072000D2F8083823EA1143090C91FAA1F1B1FA81
:1007300081F188400343C2F8083870470030014017
:10074000014908607047000020000020F0B50268F1
:100750001D4B1E4C9F031E4D1E4E984207D0B842A3
:1007600005D0A04203D0A84201D0B04205D1D1F8B3
:1007700004C022F0700242EA0C02984210D0B84243
:100780000ED0A0420CD0A8420AD0B04208D0124CE1
:10079000A04205D0114CA04202D0114CA04203D17E
:1007A000CC6822F44072224302608A68C2620A88DE
:1007B0008262984201D109690163416941F00101F6
:1007C00041610020F0BD0000000001400004004035
:1007D00000080040000C004000400140004401407F
:1007E00000480140F0B589B00024069418216846FD
:1007F0000794FFF73FFD0420FFF71CFE8020FFF762
:1008000019FE0120FFF716FE0220FFF713FE3648FF
:100810004FF400510A048261344F4FF4C012BA61A0
:1008200000910125CDE90154039469460494FFF732
:1008300073FE18200090CDE90154039469463846B0
:100840000494FFF769FE4FF470210020FFF764FF66
:100850004FF470010120FFF75FFF8DF81C508DF8F9
:100860001D40022606958DF81E6006A8FFF7FAFDCA
:100870008DF81C508DF81D4006968DF81E6006A858
:10088000FFF7F0FD012211463846FFF7F3FE184C42
:10089000002202212046FFF7EDFE0022012138460A
:1008A000FFF7D5FE002202212046FFF7D0FE00F020
:1008B0009BFB0022114600F0D9FA0146062000F009
:1008C0009BFB062000F083FB00F08EFB002211460C
:1008D00000F0CCFA0146072000F08EFB072000F064
:1008E00076FB09B0F0BD00000008024000000240A5
:1008F0000004024010B590B028216846FFF7BAFC0A
:1009000018210AA8FFF7B6FC4FF48050FFF79EFDB0
:100910000120FFF78FFDE0200A9002200B900320BA
:100920000024CDE90C040520CDE90E400AA90F48AA
:10093000FFF7F2FD4FF48270CDE900404FF40070F4
:10094000CDE9044002941820CDE9060403940A205E
:10095000CDE90840064C69462046FFF7ABFE6068CB
:1009600020F01000606010B010BD000000000240D8
:100970000030014010B586B014216846FFF77AFCBC
:100980000120FFF763FD00F02FFB0022114600F06D
:100990006DFA0146192000F02FFB192000F017FB1B
:1009A0000120ADF80000002048F6A041CDE901018A
:1009B0000C4C0390049069462046FFF7C7FE206860
:1009C00020F080002060A06844F207018843A06006
:1009D000606820F070006060A06820F08000A06077
:1009E00006B010BD00000140FEE7FEE710B5002094
:1009F00000F0DEF840F00301002000F08BF9032244
:100A00000A49102000F0ACF9032208490A2000F03E
:100A1000A7F90749082088619620FFF7A5FC00F098
:100A200087F8BDE8104000F0A3B8000005000020E2
:100A30000000024070B51B49087801282DD1002024
:100A4000087001F10804184A23781849184E4FF429
:100A50000055FF2B08D0042B1FD113780422601DF2
:100A6000027033B1096806E010700860114908602F
:100A700012E04FF0FF31C0F801106320FFF774FC63
:100A800008480D3000F018F86078012805D1A078EA
:100A9000012803D0002800D1B56170BD4FF000508F
:100AA000B06170BD00000020140000201C00002078
:100AB000000802401800002010B5044600F01EF89F
:100AC000002000F075F820F0010040F00201002045
:100AD00000F020F99620FFF747FC05222146A020D0
:100AE00000F0E2F8044C0820A0610F20FFF73CFC66
:100AF000A000A061002010BD0000024010B503223C
:100B00000949102000F02CF9032207490A2000F0BF
:100B100027F906494FF40020886100F009F8BDE884
:100B2000104000F025B80000020000200000024044
:100B300010B50CA00C4C01684FF48010A0610B485C
:100B40008268C2F34002002AFAD00173816811F072
:100B5000010FFBD0C0680120FFF706FC1020A06148
:100B600010BD0000E2000000000002400030014023
:100B700010B50CA00C4C01684FF48010A0610B481C
:100B80008268C2F34002002AFAD00173816811F032
:100B9000010FFBD0C0680120FFF7E6FB1020A06129
:100BA00010BD0000E10000000000024000300140E4
:100BB000104B4FF4801199610F498A68C2F34002CB
:100BC000002AFAD008738A6812F0010FFBD00A7B62
:100BD00007280BD0FF208A68C2F34002002AFAD00F
:100BE0000873886810F0010FFBD00A7B1020986111
:100BF00010467047000002400030014070B5124DB1
:100C00004FF48013AB61114B9C68C4F34004002C7B
:100C1000FAD018739C6814F0010FFBD0DC68002434
:100C20000DE09E68C6F34006002EFAD018739E6849
:100C300016F0010FFBD01E7B0E55641CE4B29442EB
:100C4000EFD31020A86170BD0000024000300140C9
:100C500070B512A0124D00684FF48011A961114CBB
:100C6000A168C1F340010029FAD02073A06810F0F8
:100C7000010FFBD0E0680120FFF776FB7320A1682D
:100C8000C1F340010029FAD02073A06810F0010FD1
:100C9000FBD0E0681020A86170BD0000500000008B
:100CA00000000240003001402DE9F041174D0F4691
:100CB0004FF400211646A9614900A961144CA168AE
:100CC000C1F340010029FAD02073A06810F0010F91
:100CD000FBD0E0680120FFF747FB00200DE0A16892
:100CE000C1F340010029FAD0395C2173A16811F0E9
:100CF000010FFBD0E168401CC0B2B042EFD310201E
:100D0000A8610820A861BDE8F08100000000024051
:100D100000300140104B10B540F020024FF480101D
:100D200098610E488468C4F34004002CFAD0027322
:100D3000826812F0010FFBD0C2688268C2F34002E1
:100D4000002AFAD00173816811F0010FFBD0C0684E
:100D50001020986110BD00000000024000300140EA
:100D60002DE9F041164E0F464FF48011154640F024
:100D70002000B161134CA168C1F340010029FAD0F1
:100D80002073A06810F0010FFBD0E0680120FFF78E
:100D9000EBFA00200DE0A168C1F340010029FAD070
:100DA000395C2173A16811F0010FFBD0E168401C90
:100DB000C0B2A842EFD31020B061BDE8F0810000BE
:100DC0000000024000300140254910B54FF40020DA
:100DD000886141F288342046FFF7C6FA0A210020D4
:100DE000FFF798FF2046FFF7BFFA01210846FFF7FB
:100DF00091FF01210220FFF78DFF01210320FFF762
:100E000089FF5F210420FFF785FFFFF721FF002105
:100E10001D20FFF77FFF00211C20FFF77BFF7021C3
:100E20000720FFF777FF4C210520FFF773FF06210E
:100E30000846FFF76FFF03220A491020FFF790FFD3
:100E4000032208490B20FFF78BFF05211120FFF734
:100E500061FFFFF7CBFD04494FF40050886110BDDE
:100E600000000240020000200008024030B500F0FF
:100E70000703C3F10704042C00D90424181D072814
:100E800001D2002300E0DB1E012505FA04F0401E1C
:100E9000084098409D406D1E1540284330BD704766
:100EA00070477047364810B5016821F0070141F0DE
:100EB00002010160016801F007010229FAD13148FD
:100EC000016821F4404141F4004101602E4801686D
:100ED00021F0F80141F080010160016841F0010159
:100EE00001600168C1F340010029FAD0264974313C
:100EF0000A6842F001020A600A68C2F34002002A4E
:100F0000FAD0214941F20822091D0B681F4C2340E9
:100F10001A430A600A6822F440320A60016841F00C
:100F2000807101600168C1F340610029FAD0164860
:100F30000830016821F0F0010160016821F4E051FE
:100F400041F480510160016821F460410160016851
:100F500021F0030141F002010160016801F00C0180
:100F60000829FAD10A4C2046FFF797FB2046FFF7E5
:100F7000E7FB05488C30016821F08071016010BDED
:100F8000003C024000700040003802400080BFFF7B
:100F900000A24A040248016841F4700101607047F0
:100FA00088ED00E00648016911F0010F06D06FF0EE
:100FB0000101016103484168491C4160704700001C
:100FC0000000014014000020FFF7ECBFFEE70028FE
:100FD00009DB00F01F02012191404009800000F16F
:100FE000E020C0F80011704702480068C0F30220FA
:100FF000704700000CED00E00907090E002804DB33
:1010000000F1E02080F80014704700F00F0000F1BC
:10101000E02080F8141D704708B54FF48040FFF7BA
:1010200015FA2548016841F08051016000682349A4
:1010300000F08050009008684FF6FF021040204AF0
:1010400040F4407010430860FFF7CEFF00220F21EC
:10105000FFF70CFF01464FF0FF30FFF7CDFFFFF722
:1010600021FFFFF7BFFB174C4CF6CC40206045F248
:101070005550206000206060A015A060E0688007E7
:10108000FCD14AF6AA252560FFF734FCFFF772FC75
:101090000D48016841F001010160C16841F00101A2
:1010A000C1600A48016841F040010160FFF78CFE11
:1010B000FFF7C0FC2560FBE7403802400CED00E084
:1010C0000000FA05003000400000014000300140FF
:1010D0004FF04070E1EE100A70470000FC1000086D
:1010E0000000002024000000D001000820110008AA
:1010F0002400002064060000EC0100080000B5B5E3
:10110000A1B7B5A100000000000000000000000031
:101110000000000000000000000000000024F400B7
:040000050800019559
:00000001FF
