:020000040800F2
:10000000D807002039020008770F000815080008FB
:10001000750F0008B5070008011600080000000071
:100020000000000000000000000000003114000883
:10003000B707000800000000A913000833140008E7
:10004000530200085302000853020008530200083C
:10005000530200085302000853020008530200082C
:100060005302000853020008E10700085302000889
:10007000530200085302000853020008530200080C
:1000800053020008530200085302000853020008FC
:10009000530200085302000853020008F907000841
:1000A00053020008530200085302000853020008DC
:1000B00053020008530200085302000853020008CC
:1000C00053020008530200085302000853020008BC
:1000D00053020008291500085302000853020008C3
:1000E000530200085302000853020008530200089C
:1000F000530200085302000853020008530200088C
:10010000530200085302000853020008530200087B
:10011000530200085302000853020008530200086B
:10012000530200085302000853020008530200085B
:10013000530200085302000853020008530200084B
:10014000530200085302000853020008530200083B
:10015000530200085302000853020008530200082B
:10016000530200085302000853020008530200081B
:100170005302000853020008530200080000000068
:10018000530200085302000800F002F800F044F89F
:100190000AA090E8000C82448344AAF10107DA45E2
:1001A00001D100F039F8AFF2090EBAE80F0013F0F0
:1001B000010F18BFFB1A43F001031847EC1B0000A6
:1001C0000C1C0000103A24BF78C878C1FAD8520736
:1001D00024BF30C830C144BF04680C6070470000C1
:1001E0000023002400250026103A28BF78C1FBD840
:1001F000520728BF30C148BF0B607047752900F017
:10020000EF80782900F02881002070471FB501F0A9
:100210009DFD1FBD10B510BD00F07FFA1146FFF720
:10022000F5FF01F0F5F900F09DFA03B4FFF7F2FFD6
:1002300003BC00F0A5FA00000948804709480047C0
:10024000FEE7FEE7FEE7FEE7FEE7FEE7FEE7FEE786
:10025000FEE7FEE704480549054A064B70470000E3
:100260001915000889010008D8010020D8070020CE
:10027000D8030020D803002053EA020C00F0698064
:100280002DE9F04B4FF00006002B1FBFB3FA83F5AA
:1002900003FA05F424FA05F65E4012BF1643B2FADB
:1002A00082F502FA05F4C5F120051EBF22FA05FC0D
:1002B00044EA0C04203556EA044C4FEA144418BFB3
:1002C000641C4FF000084FF00009904271EB030CE2
:1002D00039D3002919BFB1FA81F701FA07F6B0FA4C
:1002E00080F700FA07F6C7F120071EBF20FA07FCC7
:1002F00046EA0C062037B6FBF4FCA7EB0507103FD7
:1003000007F01F0BCBF120060CFA0BFB2CFA06F6BC
:1003100044BFB3460026202FA4BF5E464FF0000B1B
:100320005BEA060C08BF4FF0010B19EB0B09ABFBA6
:10033000027C48EB0608C01B06FB02CC0BFB03CC7F
:1003400071EB0C01C1E70B46024641464846BDE849
:10035000F08B13B54FF000004FF00001AFF30080B9
:10036000BDE81C40704700000FB41CB5074B06AA3F
:100370007B4469460090059800F0B7F90020694673
:1003800000F0C6F91CBC5DF814FB00009D030000E2
:1003900070B5044685690068C10601D5302600E0C5
:1003A0002026C00707D070BDD4E901213046904710
:1003B000206A401C20626D1EF6D570BD70B50446E3
:1003C00085690078C00707D170BDD4E901212020DC
:1003D0009047206A401C20626D1EF6D570BD00005B
:1003E0002DE9F0410646002410687529314616A50E
:1003F00010D0AFF30080002802DA404213A507E0D6
:1004000031688A0701D512A502E0490704D511A574
:10041000012401E0AFF3008000210A2206F1240745
:1004200009E0B0FBF2FCB0FBF2F302FB1C00303041
:1004300078541846491C0028F3D123462A463046F2
:10044000BDE8F04100F0F2B8000000002D0000000F
:100450002B0000002000000070B504460D46214628
:100460001068AFF300802188090502D50F4A7A444D
:1004700002E00E4A7A440E32002104F1240305E022
:1004800000F00F060009965D5E54491C0028F7D164
:1004900020780023000704D5702D02D009B1022373
:1004A00011322046BDE8704000F0C0B8FC180000D2
:1004B0002DE9F05F894604464FF0000ADFF824B1C9
:1004C000FB44C0F820A02046E168884700287DD082
:1004D000252806D0D4E901219047206A401C2062DB
:1004E000F1E700255F462046E16888472028064658
:1004F00007DB312E05D2B81910F8200C08B10543DE
:10050000F1E7A80701D525F00405C4F81CA00027D1
:10051000C4F818A02A2E09D0304601F072F838B37A
:1005200004EB8708303EC8F8186019E059F8041B3E
:10053000204604EB87029161E1688847012F064657
:1005400018D1E069002820DA25F020051DE0D8F850
:10055000180000EB800006EB40003038C8F81800A7
:100560002046E1688847064601F04BF80028EED1A6
:10057000012F0AD02E2E08D12046E16888477F1C23
:100580000646022F45F02005C4DBA069002803DAE7
:10059000404245F00105A061E80701D025F01005B3
:1005A000A6B1A6F14100192802D8203645F400650D
:1005B0004A463146204625604D46FFF71FFE60B192
:1005C000012807D0ED1D25F0070000E007E000F14D
:1005D000080978E705F1040975E730467AE7206AEB
:1005E000BDE8F09FD218000010B5431C02E010F8DF
:1005F000011B71B18107FAD14FF0013202C88C1A88
:100600008C4314EAC211F9D0C01A0A0603D0C01EE6
:1006100010BDC01A10BD0A0401D0801E10BD090211
:10062000FCD0401E10BD7047704770472DE9F04761
:100630000D4699469246044600F124080168880652
:1006400004D5E06921F01001216000E00120A842FA
:1006500001DD471B00E00027A1697A1902EB0900C0
:10066000081AA0612078C00602D42046FFF790FE49
:10067000002608E0D4E901211AF806009047206A14
:10068000401C761C20624E45F4DB2078C0060AD55B
:100690002046FFF77DFE06E0D4E901213020904797
:1006A000206A401C2062381EA7F10107F4DC07E035
:1006B000D4E9012118F805009047206A401C206207
:1006C000281EA5F10105F3DC2046FFF777FE207810
:1006D000000602D50220BDE8F0870120FBE70000FC
:1006E00001694A1C02610878704700B58FB0CDE9F6
:1006F00001310021059105497944CDE903101146E6
:100700006846FFF7D5FE0FB000BD0000E5FFFFFF14
:100710000A6802F8010B0A607047754600F02CF871
:10072000AE4605006946534620F00700854618B0DE
:1007300020B5FFF78FFDBDE820404FF000064FF0D9
:1007400000074FF000084FF0000B21F00701AC4606
:10075000ACE8C009ACE8C009ACE8C009ACE8C00925
:100760008D46704710B50446AFF300802046BDE8C3
:100770001040FFF75ABD0000004870477401002088
:1007800001491820ABBEFEE7260002007047002298
:10079000002998BF7047835CA3F1300CBCF1090FAE
:1007A00092BF00F802C0373B8354521CD2B28A4237
:1007B000F1D37047FEE7704701B407480749006866
:1007C000B0FBF1F0009948430090411E009128BF12
:1007D0000846FAD201B070479C00002040548900BE
:1007E000044910200A68904318BF70471020086021
:1007F00000F010BE143C014005494FF480700A68B7
:10080000904318BF70474FF48070086000F004B840
:10081000143C0140FEE7000010B50A20FFF7CCFFB2
:10082000072000F035FC044610F0400F0BD02022CA
:100830001849612000F054FC4021072000F0ECFC36
:1008400015490120087014F0200F08BF10BD2021A9
:10085000072000F0E1FC002000F01AFC40F003014A
:10086000002000F0D9FC03220C49102000F0FAFC13
:1008700003220A490A2000F0F5FC0949402088615A
:100880009620FFF799FF00F0C3FBBDE8104000F091
:10089000DFBB0000A00000200000002004000020BA
:1008A0000004024010B40279DFF8DCC000230168C4
:1008B000ACF10404002A5DD0002958D04279A2B1DD
:1008C000012A1DD0022A18BF012324D081790029D2
:1008D0004DD02E4A0129A2F1040C26D0022930D095
:1008E000032918BF012338D041E0DCF8002022EAB8
:1008F0000101CCF800100168226811432160E5E78E
:10090000226822EA010121600168DCF8002011431D
:10091000CCF80010DAE72268114321600168DCF8A6
:1009200000201143CCF80010D0E70168146824EAD5
:10093000010111600068DCF800100843CCF80000E9
:1009400015E00168DCF8004024EA0101CCF8001051
:10095000006811680843106009E00168DCF8004095
:100960002143CCF80010006811680843106010BCE7
:1009700018467047226822EA010121600068DCF80D
:10098000001021EA0000D9E7043C01400C3C014082
:100990002DE9F0030A6892FAA2F3B3FA83F3DA407E
:1009A00073D001260F2503240A6806FA03FC12EA15
:1009B0000C026BD0D1F804C0BCF1010F18BFBCF120
:1009C000020F23D1D1F808C0876892FAA2F8B8FACA
:1009D00088F84FEA480804FA08F827EA080792FA64
:1009E000A2F8B8FA88F84FEA48080CFA08FC47EA77
:1009F0000C0CC0F808C0D1F80CC0476802FB0CFC16
:100A000027EA020747EA0C0CC0F804C0D1F810C06E
:100A1000C76892FAA2F8B8FA88F84FEA480804FAC8
:100A200008F827EA080792FAA2F8B8FA88F84FEA15
:100A300048080CFA08FC47EA0C0CC0F80CC0D1F8C6
:100A400004C0BCF1020F3DD192FAA2FCBCFA8CFCAE
:100A5000BCF1080F1BD2D1F814C0076A92FAA2F8B1
:100A6000B8FA88F84FEA880805FA08F827EA08076C
:100A700092FAA2F8B8FA88F84FEA88080CFA08FC4B
:100A800047EA0C0CC0F820C01CE036E030E04F69AB
:100A9000D0F824804FEA122C9CFAACF9B9FA89F903
:100AA0009CFAACFC4FEA8909BCFA8CFC05FA09F9FE
:100AB0004FEA8C0C28EA090807FA0CFC48EA0C0CEF
:100AC000C0F824C0D1F804C0076892FAA2F8B8FAB6
:100AD00088F84FEA480804FA08F892FAA2F2B2FA43
:100AE00082F2520027EA08070CFA02F23A43026047
:100AF0000A685B1CDA407FF457AFBDE8F0030020C2
:100B000070474FF47A71B0FBF1F0411E4FF0E020D6
:100B100041610021816105210161704710B50446E2
:100B200000F044FC0E4B206019680E4A01F0F00101
:100B30000909515CC8406060196801F4E0520A4933
:100B400001EB9222127820FA02F2A2601A6802F4F3
:100B5000604201EB52310978C840E06010BD0000EE
:100B600008380240561D0008661D0008036801226F
:100B7000C3F380133BBBD1E900231A43D1E9023C04
:100B800043EA0C031A430B691A434B691A438B69F6
:100B90001A43CB691A430B6A1A43036823F0BF0355
:100BA00023F47F431A43026042684B6922F0040237
:100BB00042EA134242600A6AB2F5005F02D1898CB0
:100BC00089B201610022C16921F40061C16110464E
:100BD0007047000001490860704700009C00002039
:100BE000F0B50446C06885B00D460126C0F340301C
:100BF00000286CD1E9686868AA690843296911432B
:100C00000843E16821F4037121F414410843E060D2
:100C1000A868216921F4405108432061686961692D
:100C200021F44071084360616846FFF777FFA4F143
:100C30008040B0F5883019D0A4F18040B0F58840EC
:100C40001CBFA4F18040B0F5904011D0A4F18040C9
:100C5000B0F58A300AD0A4F18040B0F598401CBFAE
:100C6000A4F18040B0F5A04002D030E0039800E04D
:100C7000029800281CBF2968002928D0AA694FF0D3
:100C80000006244D33464FF0190C4FF03207B2F5F1
:100C9000004F1FD08B0F8A00A0FB0C01FFF7ECFA6E
:100CA0000146A5FB012040096FF01802424301EB09
:100CB000820107EB0111A5FB0121490901F0F002B6
:100CC00002EB001001F00F01084480B2A06005B0F3
:100CD0003046F0BD4A18A0FB0C015B41FFF7CCFA8F
:100CE0000346A5FB0310410918460A016FF01803DB
:100CF000594300EB810007EBC000A5FB0010400941
:100D000000F0F80102EB410100F00700084480B256
:100D1000A060DCE71F85EB514FF0E02181B00A694C
:100D20000092B0F1FF3F18BF401C0A6912F4803FE7
:100D300018BF401E0028F8D101B070472DE9F043DC
:100D400089B0002483480694079401940294039484
:100D500004940594016841F010010160016801F0FC
:100D600010010891016841F080010160016801F003
:100D700080010891016841F001010160016801F002
:100D800001010891016841F00201016000687249A7
:100D900000F0020008904FF4400088616F498861BC
:100DA0000820DFF8BC81009069464046FFF7F0FD5F
:100DB000C02000900125CDE901540394694666489E
:100DC0000494FFF7E5FDC0200090CDE901540394A1
:100DD000694662480494FFF7DBFD62490422D1F8BA
:100DE000080820F00F030F2090FAA0FCBCFA8CFC3E
:100DF00002FA0CF21A43C1F80828091D4FF0020943
:100E0000D1F8082890FAA0F0B0FA80F022F00F0292
:100E100005FA00F01043C1F808088DF81C501026A0
:100E20008DF81D4006968DF81E9006A8FFF73AFD36
:100E30008DF81C502F028DF81D4006978DF81E90DE
:100E400006A8FFF72FFDD8F80C1096FAA6F0B0FA16
:100E500080F04200032000FA02F2914396FAA6F2D3
:100E6000B2FA82F2520005FA02F21143C8F80C10ED
:100E70003A49C96897FAA7F2B2FA82F2520000FA28
:100E800002F2914397FAA7F2B2FA82F2520004FA00
:100E900002F21143314AD160D8F8001096FAA6F256
:100EA000B2FA82F2520000FA02F2914396FAA6F2E6
:100EB000B2FA82F2520004FA02F21143C8F80010AA
:100EC0002649096897FAA7F2B2FA82F252009040D6
:100ED00021EA000097FAA7F1B1FA81F1490004FA7A
:100EE00001F108431D4908601F4A1068C0F3022041
:100EF000C0F10701042988BF0421031D072B34BF5B
:100F00000020C01E012303FA01F1491E01F0010176
:100F100001FA00F0154B0021000183F800044FF0A6
:100F2000E0234FF48060C3F800011068C0F3022092
:100F3000021D072A34BF0020C01E01FA00F00C4930
:100F4000000181F800044FF40000C3F8000109B06B
:100F5000BDE8F08330380240000002400004024047
:100F600000100240043001400CED00E00AE000E017
:100F700017E000E0FEE7FEE72DE9F0474FF0E0253F
:100F80004FF480668146C5F8806105F5C075BFF3F2
:100F90004F8FBFF36F8F77032F60BFF34F8FBFF378
:100FA0006F8F03221849102000F05CF903221649C4
:100FB0000A2000F057F9154C4FF48008C4F8188047
:100FC00000F026F800F044F8002000F061F820F06E
:100FD000010040F00201002000F01EF99620FFF70A
:100FE000EBFB20224946A02000F0DEF84020A06163
:100FF0000F20FFF7E1FBC4F8188045F8806C45F836
:10100000807C0020BDE8F087010000200004024041
:1010100010B50CA00C4C02684FF40000A0610B4806
:101020008168C1F340010029FAD00273816811F090
:10103000010FFBD0C0680120FFF7BEFB8020A0613C
:1010400010BD0000E200000000040240003001403A
:1010500010B50CA00C4C02684FF40000A0610B48C6
:101060008168C1F340010029FAD00273816811F050
:10107000010FFBD0C0680120FFF79EFB8020A0611C
:1010800010BD0000E10000000004024000300140FB
:10109000114B4FF40001996110498A68C2F3400274
:1010A000002AFAD008738A6812F0010FFBD00A7B7D
:1010B000072818BFFF220AD08868C0F34000002824
:1010C000FAD00A73886810F0010FFBD00A7B8020E9
:1010D0009861104670470000000402400030014053
:1010E0002DE9F041DFF8608005464FF40000164618
:1010F0000F46C8F81800154CA068C0F3400000283F
:10110000FAD02573A06810F0010FFBD0E068012031
:10111000FFF752FB0023002E10D9A068C0F3400057
:10112000002818BF2573F8D0A06810F0010FFBD07D
:10113000207BF854581CC3B29E42EED88020C8F8D9
:101140001800BDE8F08100000004024000300140BA
:1011500070B512A0124D01684FF40000A861114C47
:10116000A068C0F340000028FAD02173A06810F0F6
:10117000010FFBD0E0680120FFF71EFB7321A06880
:10118000C0F340000028FAD02173A06810F0010FCE
:10119000FBD0E0688020A86170BD00005000000016
:1011A00000040240003001402DE9F041184F0E4686
:1011B0004FF480011546B9614900B961154CA16829
:1011C000C1F340010029FAD02073A06810F0010F8C
:1011D000FBD0E0680120FFF7EFFA0020002D10D9C6
:1011E000A168C1F3400100291CBF315C2173F7D015
:1011F000A36813F0010FFBD0E168401CC0B2854228
:10120000EED88020B8614020B861BDE8F0810000D0
:101210000004024000300140104B40F0200C4FF41D
:10122000000098610E488268C2F34002002AFAD09A
:1012300080F80CC0826812F0010FFBD0C26882688F
:10124000C2F34002002AFAD00173816811F0010F45
:10125000FBD0C06880209861704700000004024005
:10126000003001402DE9F0410E46174F40F02001BB
:101270004FF400001546B861144CA068C0F340005C
:101280000028FAD02173A06810F0010FFBD0E068AD
:101290000120FFF791FA0020002D10D9A168C1F3B9
:1012A000400100291CBF315C2173F7D0A36813F003
:1012B000010FFBD0E168401CC0B28542EED880200F
:1012C000B861BDE8F0810000000402400030014038
:1012D00010B5314C4FF48000A06141F28830FFF727
:1012E0006BFA0A210020FFF797FF41F28830FFF7E1
:1012F00063FA00210120FFF78FFF01210220FFF791
:101300008BFF01210320FFF787FF00210420FFF757
:1013100083FFFFF71DFF07211D20FFF77DFF002141
:101320001C20FFF779FF70210720FFF775FF4C2184
:101330000520FFF771FF06210846FFF76DFF032226
:1013400016491020FFF78EFF032214490B20FFF7E8
:1013500089FF20211120FFF75FFF0020FFF798FE93
:1013600040F003010020FFF757FF03220C49102033
:10137000FFF778FF03220A490A20FFF773FF402096
:10138000A0619620FFF718FAFFF742FEFFF760FE14
:1013900004494020886110BD000402400100002083
:1013A000040000200000024070470000154800685B
:1013B00010F00C01144808BF7047144B042904BFF7
:1013C00018467047082918BF7047114A116811F470
:1013D000800103D0B1F5800F08BF1846116801F0F5
:1013E0003F01B0FBF1F11068C0F388104143106871
:1013F000012200F4403002EB10404000B1FBF0F05D
:1014000070470000083802400024F40000127A00FF
:1014100004380240044910200969884308BF704716
:101420000120024948707047001002400800002067
:10143000704770472F4810B5016821F0070141F04F
:1014400002010160016801F007010229FAD12A486E
:10145000016841F4804101602848016841F480310D
:1014600001600168C1F340410029FAD024490A68AB
:1014700042F001020A600A68C2F34002002AFAD070
:101480002149204A0B68DFF884C003EA0C031A43A1
:101490000A600A6822F440320A60016841F08071F3
:1014A00001600168C1F340610029FAD01848016861
:1014B00021F0F0010160016821F4E05141F4805114
:1014C0000160016821F460410160016821F00301BD
:1014D00041F002010160016801F00C010829FAD114
:1014E0000C4C2046FFF70DFB2046BDE81040FFF7EF
:1014F00071BB0000003C0240007000400038024018
:101500007438024004124000043802400080BFFFDB
:101510000838024000A24A040248016841F4700100
:101520000160704788ED00E018B4274B1868C0F3DD
:101530004010002832D0D868C0F34010002818BFEF
:1015400003F10C002AD050E8001F21F0200140E8F0
:101550000012002AF7D158681C49C0B23A2808BFC7
:101560000A700FD0DFF868C00C780CF804000C7813
:10157000641C0C703B2805D108780CF800200A7018
:101580000120487003F10C0050E8001F41F02001D9
:1015900040E80012002AF7D118BC70471868C0F361
:1015A000C00028B1186800905868009018BC7047B7
:1015B0001868C0F340000028F4D11868C0F3800018
:1015C0000028EFD118BC70470010014094000020A3
:1015D00034010020002200298CBFDFF820C07047B2
:1015E000DCF80030C3F3C013002BF9D0835CCCF8D7
:1015F0000430521C92B28A42F2D37047001001406C
:10160000FEE730380A2801D20120704700207047D9
:1016100092B0C14D286840F480402860286800F4EA
:1016200080400090281F016841F0805101600068EF
:10163000BA4F00F08050009038684FF6FF01084024
:1016400040F4407040F0FD7040F0806038603868D1
:10165000C0F30220C0F10701042988BF0421021D44
:10166000072A34BF0020C01E4FF0010808FA01F11C
:10167000491E01FA00F0AA490001002481F8140D66
:10168000FFF7D8FEFFF75AFB0394049400940194EB
:101690000294089409940594069407940D940E946A
:1016A000286840F48050286028689E4E00F48050DE
:1016B0001090306840F00200306030684FF0020A4D
:1016C00000F0020010903820CDE90A0A05200F90A2
:1016D0000AA9CDF830A09448FFF75AF94FF4827068
:1016E000CDE900407015CDE9044002941820CDE901
:1016F000060403940A20CDE90840DFF830926946D9
:101700004846FFF733FAD9F8040020F01000C9F872
:1017100004000194009402940694039404940594A4
:101720000B940C94286840F010002860286800F0A2
:1017300010000790306840F00100306030687C4D48
:1017400000F0010007904FF4C060CDE9080A0320C3
:101750000A9007200D9008A92846FFF719F9386864
:10176000C0F30220C0F10701042988BF0421021D33
:10177000072A34BF0020C01E08FA01F1491E01F0FB
:10178000010101FA00F06B49000181F800046A4987
:101790002020C1F800014FF4E130CDE900040C2015
:1017A0000294CDE9034005940694644C69462046B2
:1017B000FFF716FA206920F490402061606920F05C
:1017C0002A006061E06840F40050E060D9F8000051
:1017D00040F04000C9F8000004F10C0050E8001F80
:1017E00041F0200140E80012002AF7D1E06840F4FF
:1017F0000050E060FFF76CFD51A15448FEF7B4FDC6
:101800005248FEF7F1FE81B25048FFF7E3FE002098
:10181000FFF73EFC4E4C02464EA120704B48FEF7AF
:10182000A3FD4A48FEF7E0FE81B24848FFF7D2FE2A
:101830000120FFF72DFC207002464BA14348FEF724
:1018400093FD4248FEF7D0FE81B24048FFF7C2FE4A
:101850000220FFF71DFC2070024647A13B48FEF71F
:1018600083FD3A48FEF7C0FE81B23848FFF7B2FE6A
:101870000720FFF70DFC2070024644A13348FEF715
:1018800073FD3248FEF7B0FE81B23048FFF7A2FE8A
:101890000620FFF7FDFB2070024641A12B48FEF712
:1018A00063FD2A48FEF7A0FE81B22848FFF792FEAA
:1018B000032204F118011020FFF712FC18343DA197
:1018C000A0780090637822782048FEF74DFD1F48ED
:1018D000FEF78AFE81B21D48FFF77CFE03222146F7
:1018E0000B20FFF7FDFBA0780090637822783AA1E7
:1018F0001648FEF739FD1548FEF776FE81B213480B
:10190000FFF768FE4020A8613C49FF20086000F016
:1019100097F800F075F8FAE7443802400CED00E063
:101920000FE000E030380240000402400030014087
:101930000000024025E000E004E000E0001001406B
:101940000D0A53544152540D0A0D0A00C0000020E4
:1019500008000020434F4E4649473A203078253052
:1019600032580D0A00000000454E5F41413A2030D8
:1019700078253032580D0A00454E5F525841444494
:10198000523A203078253032580D0A0053544154D1
:1019900055533A203078253032580D0A00000000A7
:1019A00052465F53455455503A20307825303258CE
:1019B0000D0A000054585F414444523A20307825C3
:1019C0003032582C203078253032582C2030782571
:1019D0003032580D0A00000052585F414444523AD8
:1019E000203078253032582C203078253032582C51
:1019F000203078253032580D0A0000009800002071
:101A00000B490878012818BF70470A480278072A4E
:101A10000AD140780122572808BF074803D04E2832
:101A200008BF064800D1027000200870704700000F
:101A300000000020A00000200F0000201000002067
:101A40002DE9F05FDFF8D0A29AF80000DFF8CC9221
:101A50000026DFF8CC824FF0070B002800F0308121
:101A600098F80400AF4D00281CBF0020AE4F00F0D6
:101A70000F81295C3954401CC0B20828F9D30821D1
:101A8000A948FEF784FE7878397800EB0110C2B2DD
:101A900088F8092078793979BB7800EB0110F9785A
:101AA000090201EB0331084481B24FEA510CA8F856
:101AB0000EC0F879BB7900EB03104FF0080303EB7D
:101AC0004203DCB210F0FF0002EB010303EB112133
:101AD00088F80A00014488F8061008D0042808BFD6
:101AE000082066D005285ED001287DD0BFE089F8A7
:101AF00000B0462089F8010089F80220082089F802
:101B000003C0082C07D9295C3B18401CC0B203F85D
:101B1000081C8442F7D85006010E8348FEF737FEB2
:101B200098F809200020B0EB420F12D23B18395C24
:101B30005B7843EA0111395409EB5003801C197199
:101B400098F80630C0B2194488F80610B0EB420F7E
:101B5000ECD398F80600C043401C88F80600285DC6
:101B6000387028194078787002216F48FEF70FFE10
:101B70007878397800EB0110C0B288F80B0098F83B
:101B80000610814252D198F8080028B9FFF738FFB3
:101B900098F808000028F9D06048FFF7EDF988F8B8
:101BA000086088F80660B8F80C00401CA8F80C0023
:101BB0005DE0295C3A18401CC0B202F8081C0C28F1
:101BC000F7D304215848FEF7E2FD397878780A0700
:101BD000BB7842EA006242EA0353FA78084443EAD7
:101BE000024300EB420000E026E0C8F8143098F809
:101BF00006100844C043401C88F806000C20295CED
:101C00003A18401CC0B202F80C1C0E28F7D302216F
:101C10004548FEF7BCFD7878397800EB0110C0B27A
:101C200088F80B0098F806108142BAD0B8F80C007A
:101C3000401EA8F80C00B4E73CA13E48FEF794FB18
:101C40003C48FEF7D1FC81B23A48FFF7C3FC8AF862
:101C500000606420FFF760F889F800B04A2089F836
:101C600001002E48FFF788F96420FFF755F89AF82D
:101C7000000018B3B8F80C202FA12E48FEF774FB13
:101C80002C48FEF7B1FC81B22A48FFF7A3FC15E00F
:101C900098F805000028287806D0212804BF0120E4
:101CA00088F80400E6D009E0212807D189F800B0BF
:101CB000572089F801001948FFF75EF98AF800609B
:101CC00098F80700002808BFBDE8F09F1DA119483B
:101CD000FEF74AFB6420FFF71FF81648FEF784FC66
:101CE00081B21448FFF776FC012488F8054088F893
:101CF00007606420FFF710F889F800B0452089F8E4
:101D000001000648FFF738F96420FFF705F888F866
:101D10000840BDE8F09F0000950000200001002071
:101D2000080000203401002025000020414F4B21F5
:101D300000000000C00000205A4E532530357521A8
:101D40000000000052544C21000000004FF0407091
:101D5000E1EE100A704700000000000000000102E0
:101D600003040607080900000000010203043031E3
:101D700032333435363738394142434445464030B2
:101D80005800303132333435363738396162636464
:101D90006566403078000400000800000000000084
:101DA0000002000100001000C81D00080000002013
:101DB000A0000000C4010008681E0008A000002068
:101DC00038070000E001000800B7B5A1B5B5A100D3
:101DD0000000000000000000000000000000000003
:101DE000FFFFFFFF000000000000000000000000F7
:101DF00000000000000100000000000000000000E2
:101E0000000000000000000000000000FFFFFFFFD6
:101E100000000000000000000000000000000000C2
:101E200000000000000000000000000000000000B2
:101E300000000000000000000000000000000000A2
:101E40000000000000000000000000000000000092
:101E50000000000000000000000000000000000082
:081E6000000000000024F40062
:040000050800018965
:00000001FF
