:020000040800F2
:10000000F00700203D020008CB0F00086908000837
:10001000C90F0008090800088D160008000000003C
:10002000000000000000000000000000851400082F
:100030000B08000800000000FD13000887140008EA
:10004000570200085702000857020008570200082C
:10005000570200085702000857020008570200081C
:100060005702000857020008350800085702000828
:1000700057020008570200085702000857020008FC
:1000800057020008570200085702000857020008EC
:100090005702000857020008570200084D080008E0
:1000A00057020008570200085702000857020008CC
:1000B00057020008570200085702000857020008BC
:1000C00057020008570200085702000857020008AC
:1000D000570200087D150008570200085702000863
:1000E000570200085702000857020008570200088C
:1000F000570200085702000857020008570200087C
:10010000570200085702000857020008570200086B
:10011000570200085702000857020008570200085B
:10012000570200085702000857020008570200084B
:10013000570200085702000857020008570200083B
:10014000570200085702000857020008570200082B
:10015000570200085702000857020008570200081B
:10016000570200085702000857020008570200080B
:10017000570200085702000857020008000000005C
:10018000570200085702000800F002F800F047F894
:100190000AA090E8000C82448344AAF10107DA45E2
:1001A00001D100F03CF8AFF2090EBAE80F0013F0ED
:1001B000010F18BFFB1A43F001031847781E000017
:1001C000981E0000103A24BF78C878C1FAD85207A8
:1001D00024BF30C830C144BF04680C6070470000C1
:1001E0000023002400250026103A28BF78C1FBD840
:1001F000520728BF30C148BF0B607047642900F028
:10020000F180752900F0EE80782900F02781002028
:1002100070471FB501F0E0FE1FBD10B510BD00F026
:10022000A6FA1146FFF7F5FF01F038FA00F0C4FA1C
:1002300003B4FFF7F2FF03BC00F0CCFA0948804793
:1002400009480047FEE7FEE7FEE7FEE7FEE7FEE7B8
:10025000FEE7FEE7FEE7FEE704480549054A064BD0
:10026000704700006D15000889010008F0010020AA
:10027000F0070020F0030020F003002053EA020CF6
:1002800000F069802DE9F04B4FF00006002B1FBFF6
:10029000B3FA83F503FA05F424FA05F65E4012BFBB
:1002A0001643B2FA82F502FA05F4C5F120051EBF25
:1002B00022FA05FC44EA0C04203556EA044C4FEAC5
:1002C000144418BF641C4FF000084FF0000990421E
:1002D00071EB030C39D3002919BFB1FA81F701FA88
:1002E00007F6B0FA80F700FA07F6C7F120071EBF3D
:1002F00020FA07FC46EA0C062037B6FBF4FCA7EB15
:100300000507103F07F01F0BCBF120060CFA0BFB83
:100310002CFA06F644BFB3460026202FA4BF5E4643
:100320004FF0000B5BEA060C08BF4FF0010B19EB16
:100330000B09ABFB027C48EB0608C01B06FB02CC9A
:100340000BFB03CC71EB0C01C1E70B4602464146A7
:100350004846BDE8F08B13B54FF000004FF00001A8
:10036000AFF30080BDE81C40704700000FB41CB51F
:10037000074B06AA7B4469460090059800F0DFF918
:100380000020694600F0EEF91CBC5DF814FB00008B
:10039000ED03000070B5044685690068C10601D50B
:1003A000302600E02026C00707D070BDD4E9012127
:1003B00030469047206A401C20626D1EF6D570BD05
:1003C00070B5044685690078C00707D170BDD4E9CF
:1003D000012120209047206A401C20626D1EF6D526
:1003E00070BD00002DE9F041064600241068752913
:1003F000314616A510D0AFF30080002802DA404243
:1004000013A507E031688A0701D512A502E0490764
:1004100004D511A5012401E0AFF3008000210A22D8
:1004200006F1240709E0B0FBF2FCB0FBF2F302FB9B
:100430001C00303078541846491C0028F3D123465C
:100440002A463046BDE8F04100F01AB9000000002D
:100450002D0000002B0000002000000070B50446B5
:100460000D4621461068AFF300802188090502D5AA
:100470000F4A7A4402E00E4A7A440E32002104F117
:10048000240305E000F00F060009965D5E54491C48
:100490000028F7D120780023000704D5702D02D062
:1004A00009B1022311322046BDE8704000F0E8B8DF
:1004B000841B00002DE9F05F894604464FF0000AD6
:1004C000DFF874B1FB44C0F820A02046E1688847FB
:1004D000002874D0252806D0D4E901219047206A4D
:1004E000401C2062F1E700265F462046E16888470D
:1004F0002028054607DB312D05D2781910F8200C8D
:1005000008B10643F1E7B00701D526F00406C4F8A8
:100510001CA00027C4F818A02A2D09D0284601F0F5
:10052000B6F838B304EB8708303DC8F8185019E026
:1005300059F8041B204604EB87029161E168884763
:10054000012F054618D1E069002820DA26F02006A0
:100550001DE0D8F8180000EB800005EB40003038B3
:10056000C8F818002046E1688847054601F08FF872
:100570000028EED1012F0AD02E2D08D12046E168A7
:1005800088477F1C0546022F46F02006C4DBA06981
:10059000002803DA404246F00106A061F00701D0CE
:1005A00026F010066C2D0BD0682D09D04C2D39D0BB
:1005B0006A2D35D0742D35D07A2D33D016E038E041
:1005C000E1682F4620468847B842054609D16C2F7E
:1005D00026D04FF48060E1680643204688470546F0
:1005E00004E06C2F1AD04FF4807006430DB3A5F1D0
:1005F0004100192802D8203546F400664A462946AB
:10060000204626604E46FFF7F9FD80B101280BD049
:10061000F61D26F0070000F1080956E74020E4E740
:100620008020D8E70020D6E706F104094DE72846E8
:1006300052E7206ABDE8F09F5A1B000010B5431C2A
:1006400002E010F8011B71B18107FAD14FF00132BD
:1006500002C88C1A8C4314EAC211F9D0C01A0A06D7
:1006600003D0C01E10BDC01A10BD0A0401D0801EE8
:1006700010BD0902FCD0401E10BD70477047704786
:100680002DE9F0470D4699469246044600F12408AC
:100690000168880604D5E06921F01001216000E0BE
:1006A0000120A84201DD471B00E00027A1697A195B
:1006B00002EB0900081AA0612078C00602D4204687
:1006C000FFF768FE002608E0D4E901211AF80600C9
:1006D0009047206A401C761C20624E45F4DB20784F
:1006E000C0060AD52046FFF755FE06E0D4E90121F1
:1006F00030209047206A401C2062381EA7F1010775
:10070000F4DC07E0D4E9012118F805009047206ADD
:10071000401C2062281EA5F10105F3DC2046FFF7EE
:100720004FFE2078000602D50220BDE8F0870120A8
:10073000FBE7000001694A1C02610878704700B5B8
:100740008FB0CDE901310021059105497944CDE90A
:10075000031011466846FFF7ADFE0FB000BD000064
:10076000E5FFFFFF0A6802F8010B0A607047754653
:1007700000F02CF8AE4605006946534620F007000D
:10078000854618B020B5FFF767FDBDE820404FF063
:1007900000064FF000074FF000084FF0000B21F06B
:1007A0000701AC46ACE8C009ACE8C009ACE8C00938
:1007B000ACE8C0098D46704710B50446AFF3008021
:1007C0002046BDE81040FFF733BD000000487047E9
:1007D0008C01002001491820ABBEFEE72600020074
:1007E00070470022002998BF7047835CA3F1300C4A
:1007F000BCF1090F92BF00F802C0373B8354521C72
:10080000D2B28A42F1D37047FEE7704701B407487D
:1008100007490068B0FBF1F0009948430090411E81
:10082000009128BF0846FAD201B07047B4000020FA
:1008300040548900044910200A68904318BF70474B
:100840001020086000F010BE143C014005494FF430
:1008500080700A68904318BF70474FF4807008603A
:1008600000F004B8143C0140FEE7000010B50A2077
:10087000FFF7CCFF072000F035FC044610F0400FD6
:100880000BD020221849612000F054FC40210720A1
:1008900000F0ECFC15490120087014F0200F08BF8F
:1008A00010BD2021072000F0E1FC002000F01AFC20
:1008B00040F00301002000F0D9FC03220C49102075
:1008C00000F0FAFC03220A490A2000F0F5FC09496D
:1008D000402088619620FFF799FF00F0C3FBBDE838
:1008E000104000F0DFBB0000B80000200000002036
:1008F000040000200004024010B40279DFF8DCC0DC
:1009000000230168ACF10404002A5DD0002958D00E
:100910004279A2B1012A1DD0022A18BF012324D096
:10092000817900294DD02E4A0129A2F1040C26D04C
:10093000022930D0032918BF012338D041E0DCF868
:10094000002022EA0101CCF800100168226811435E
:100950002160E5E7226822EA010121600168DCF8F4
:1009600000201143CCF80010DAE72268114321601F
:100970000168DCF800201143CCF80010D0E70168D2
:10098000146824EA010111600068DCF800100843D3
:10099000CCF8000015E00168DCF8004024EA010111
:1009A000CCF80010006811680843106009E0016885
:1009B000DCF800402143CCF80010006811680843BF
:1009C000106010BC18467047226822EA01012160BD
:1009D0000068DCF8001021EA0000D9E7043C01407F
:1009E0000C3C01402DE9F0030A6892FAA2F3B3FA35
:1009F00083F3DA4073D001260F2503240A6806FA30
:100A000003FC12EA0C026BD0D1F804C0BCF1010F58
:100A100018BFBCF1020F23D1D1F808C0876892FA41
:100A2000A2F8B8FA88F84FEA480804FA08F827EA62
:100A3000080792FAA2F8B8FA88F84FEA48080CFAC0
:100A400008FC47EA0C0CC0F808C0D1F80CC0476895
:100A500002FB0CFC27EA020747EA0C0CC0F804C0B2
:100A6000D1F810C0C76892FAA2F8B8FA88F84FEA2D
:100A7000480804FA08F827EA080792FAA2F8B8FA30
:100A800088F84FEA48080CFA08FC47EA0C0CC0F852
:100A90000CC0D1F804C0BCF1020F3DD192FAA2FC07
:100AA000BCFA8CFCBCF1080F1BD2D1F814C0076A49
:100AB00092FAA2F8B8FA88F84FEA880805FA08F816
:100AC00027EA080792FAA2F8B8FA88F84FEA8808E5
:100AD0000CFA08FC47EA0C0CC0F820C01CE036E019
:100AE00030E04F69D0F824804FEA122C9CFAACF920
:100AF000B9FA89F99CFAACFC4FEA8909BCFA8CFC7A
:100B000005FA09F94FEA8C0C28EA090807FA0CFCE7
:100B100048EA0C0CC0F824C0D1F804C0076892FA67
:100B2000A2F8B8FA88F84FEA480804FA08F892FAE6
:100B3000A2F2B2FA82F2520027EA08070CFA02F295
:100B40003A4302600A685B1CDA407FF457AFBDE8A5
:100B5000F003002070474FF47A71B0FBF1F0411EB2
:100B60004FF0E02041610021816105210161704762
:100B700010B5044600F044FC0E4B206019680E4A84
:100B800001F0F0010909515CC8406060196801F486
:100B9000E0520A4901EB9222127820FA02F2A26096
:100BA0001A6802F4604201EB52310978C840E060F3
:100BB00010BD000008380240E21F0008F21F0008C4
:100BC00003680122C3F380133BBBD1E900231A431E
:100BD000D1E9023C43EA0C031A430B691A434B69FF
:100BE0001A438B691A43CB691A430B6A1A43036889
:100BF00023F0BF0323F47F431A43026042684B692A
:100C000022F0040242EA134242600A6AB2F5005F2F
:100C100002D1898C89B201610022C16921F400618D
:100C2000C16110467047000001490860704700002C
:100C3000B4000020F0B50446C06885B00D4601261A
:100C4000C0F3403000286CD1E9686868AA6908439D
:100C5000296911430843E16821F4037121F4144127
:100C60000843E060A868216921F4405108432061ED
:100C70006869616921F44071084360616846FFF763
:100C800077FFA4F18040B0F5883019D0A4F18040FE
:100C9000B0F588401CBFA4F18040B0F5904011D061
:100CA000A4F18040B0F58A300AD0A4F18040B0F5BC
:100CB00098401CBFA4F18040B0F5A04002D030E0C5
:100CC000039800E0029800281CBF2968002928D05A
:100CD000AA694FF00006244D33464FF0190C4FF02F
:100CE0003207B2F5004F1FD08B0F8A00A0FB0C011A
:100CF000FFF7C4FA0146A5FB012040096FF0180276
:100D0000424301EB820107EB0111A5FB01214909D7
:100D100001F0F00202EB001001F00F01084480B274
:100D2000A06005B03046F0BD4A18A0FB0C015B4145
:100D3000FFF7A4FA0346A5FB0310410918460A0170
:100D40006FF01803594300EB810007EBC000A5FBCF
:100D50000010400900F0F80102EB410100F007002B
:100D6000084480B2A060DCE71F85EB514FF0E02122
:100D700081B00A690092B0F1FF3F18BF401C0A69B8
:100D800012F4803F18BF401E0028F8D101B0704710
:100D90002DE9F04389B00024834806940794019418
:100DA0000294039404940594016841F010010160D9
:100DB000016801F010010891016841F080010160B3
:100DC000016801F080010891016841F001010160B2
:100DD000016801F001010891016841F00201016020
:100DE0000068724900F0020008904FF440008861EA
:100DF0006F4988610820DFF8BC8100906946404651
:100E0000FFF7F0FDC02000900125CDE901540394C7
:100E1000694666480494FFF7E5FDC0200090CDE9DF
:100E200001540394694662480494FFF7DBFD62496C
:100E30000422D1F8080820F00F030F2090FAA0FC3C
:100E4000BCFA8CFC02FA0CF21A43C1F80828091DFE
:100E50004FF00209D1F8082890FAA0F0B0FA80F01B
:100E600022F00F0205FA00F01043C1F808088DF8CF
:100E70001C5010268DF81D4006968DF81E9006A871
:100E8000FFF73AFD8DF81C502F028DF81D40069794
:100E90008DF81E9006A8FFF72FFDD8F80C1096FAD3
:100EA000A6F0B0FA80F04200032000FA02F291436B
:100EB00096FAA6F2B2FA82F2520005FA02F2114351
:100EC000C8F80C103A49C96897FAA7F2B2FA82F248
:100ED000520000FA02F2914397FAA7F2B2FA82F2B4
:100EE000520004FA02F21143314AD160D8F80010DE
:100EF00096FAA6F2B2FA82F2520000FA02F2914396
:100F000096FAA6F2B2FA82F2520004FA02F2114301
:100F1000C8F800102649096897FAA7F2B2FA82F2D7
:100F20005200904021EA000097FAA7F1B1FA81F14E
:100F3000490004FA01F108431D4908601F4A10687E
:100F4000C0F30220C0F10701042988BF0421031D5A
:100F5000072B34BF0020C01E012303FA01F1491EF4
:100F600001F0010101FA00F0154B0021000183F8A6
:100F700000044FF0E0234FF48060C3F800011068D4
:100F8000C0F30220021D072A34BF0020C01E01FA50
:100F900000F00C49000181F800044FF40000C3F890
:100FA000000109B0BDE8F083303802400000024083
:100FB0000004024000100240043001400CED00E04B
:100FC0000AE000E017E000E0FEE7FEE72DE9F04769
:100FD0004FF0E0254FF480668146C5F8806105F545
:100FE000C075BFF34F8FBFF36F8F77032F60BFF3D1
:100FF0004F8FBFF36F8F03221849102000F05CF968
:10100000032216490A2000F057F9154C4FF48008C6
:10101000C4F8188000F026F800F044F8002000F032
:1010200061F820F0010040F00201002000F01EF9FC
:101030009620FFF7EBFB20224946A02000F0DEF8C7
:101040004020A0610F20FFF7E1FBC4F8188045F8AD
:10105000806C45F8807C0020BDE8F087010000200E
:101060000004024010B50CA00C4C02684FF40000C4
:10107000A0610B488168C1F340010029FAD00273D6
:10108000816811F0010FFBD0C0680120FFF7BEFBA3
:101090008020A06110BD0000E200000000040240BA
:1010A0000030014010B50CA00C4C02684FF4000059
:1010B000A0610B488168C1F340010029FAD0027396
:1010C000816811F0010FFBD0C0680120FFF79EFB83
:1010D0008020A06110BD0000E1000000000402407B
:1010E00000300140114B4FF40001996110498A68AA
:1010F000C2F34002002AFAD008738A6812F0010F86
:10110000FBD00A7B072818BFFF220AD08868C0F3EB
:1011100040000028FAD00A73886810F0010FFBD055
:101120000A7B80209861104670470000000402404E
:10113000003001402DE9F041DFF8608005464FF4B2
:10114000000016460F46C8F81800154CA068C0F3FA
:1011500040000028FAD02573A06810F0010FFBD0E2
:10116000E0680120FFF752FB0023002E10D9A06891
:10117000C0F34000002818BF2573F8D0A06810F015
:10118000010FFBD0207BF854581CC3B29E42EED80E
:101190008020C8F81800BDE8F0810000000402407B
:1011A0000030014070B512A0124D01684FF40000EC
:1011B000A861114CA068C0F340000028FAD0217348
:1011C000A06810F0010FFBD0E0680120FFF71EFBC4
:1011D0007321A068C0F340000028FAD02173A068F2
:1011E00010F0010FFBD0E0688020A86170BD000006
:1011F0005000000000040240003001402DE9F041A1
:10120000184F0E464FF480011546B9614900B96187
:10121000154CA168C1F340010029FAD02073A068E1
:1012200010F0010FFBD0E0680120FFF7EFFA00207B
:10123000002D10D9A168C1F3400100291CBF315C09
:101240002173F7D0A36813F0010FFBD0E168401CB5
:10125000C0B28542EED88020B8614020B861BDE8B8
:10126000F08100000004024000300140104B40F0CB
:10127000200C4FF4000098610E488268C2F34002CF
:10128000002AFAD080F80CC0826812F0010FFBD05F
:10129000C2688268C2F34002002AFAD001738168F2
:1012A00011F0010FFBD0C0688020986170470000EA
:1012B00000040240003001402DE9F0410E46174F76
:1012C00040F020014FF400001546B861144CA068AE
:1012D000C0F340000028FAD02173A06810F0010F7D
:1012E000FBD0E0680120FFF791FA0020002D10D913
:1012F000A168C1F3400100291CBF315C2173F7D004
:10130000A36813F0010FFBD0E168401CC0B2854216
:10131000EED88020B861BDE8F081000000040240F2
:101320000030014010B5314C4FF48000A06141F213
:101330008830FFF76BFA0A210020FFF797FF41F290
:101340008830FFF763FA00210120FFF78FFF0121AA
:101350000220FFF78BFF01210320FFF787FF002109
:101360000420FFF783FFFFF71DFF07211D20FFF774
:101370007DFF00211C20FFF779FF70210720FFF778
:1013800075FF4C210520FFF771FF06210846FFF786
:101390006DFF032216491020FFF78EFF0322144928
:1013A0000B20FFF789FF20211120FFF75FFF0020AE
:1013B000FFF798FE40F003010020FFF757FF0322DC
:1013C0000C491020FFF778FF03220A490A20FFF793
:1013D00073FF4020A0619620FFF718FAFFF742FE46
:1013E000FFF760FE04494020886110BD0004024000
:1013F00001000020040000200000024070470000AF
:101400001548006810F00C01144808BF7047144BD1
:10141000042904BF18467047082918BF7047114AAD
:10142000116811F4800103D0B1F5800F08BF184690
:10143000116801F03F01B0FBF1F11068C0F38810B2
:1014400041431068012200F4403002EB104040009C
:10145000B1FBF0F070470000083802400024F400AF
:1014600000127A00043802400449102009698843B8
:1014700008BF704701200249887070470010024081
:1014800008000020704770472F4810B5016821F010
:10149000070141F002010160016801F00701022922
:1014A000FAD12A48016841F4804101602848016866
:1014B00041F4803101600168C1F340410029FAD054
:1014C00024490A6842F001020A600A68C2F3400235
:1014D000002AFAD02149204A0B68DFF884C003EAC9
:1014E0000C031A430A600A6822F440320A60016859
:1014F00041F0807101600168C1F340610029FAD0B8
:101500001848016821F0F0010160016821F4E05100
:1015100041F480510160016821F46041016001687B
:1015200021F0030141F002010160016801F00C01AA
:101530000829FAD10C4C2046FFF70DFB2046BDE8E8
:101540001040FFF771BB0000003C024000700040FB
:10155000003802407438024004124000043802404F
:101560000080BFFF0838024000A24A040248016818
:1015700041F470010160704788ED00E038B52F4CF0
:101580002068C0F34010002844D0E068C0F3401049
:10159000002818BF04F10C003CD050E8001F21F0D7
:1015A000200140E80012002AF7D160680023C0B291
:1015B000012223493A280DD0224D91F800C005F8A8
:1015C0000C0091F800C00CF1010C81F800C03B2820
:1015D00011D014E00B701C48017881B902701BA176
:1015E0001E48FEF7C3FE1D48FFF728F881B21B48CE
:1015F00000F036F803E008782B540B704A7004F1C1
:101600000C0050E8001F41F0200140E80012002AC1
:10161000F7D138BD2068C0F3C00020B12068009029
:101620006068009038BD2068C0F340000028F5D104
:101630002068C0F380000028F0D138BD00100140C0
:10164000AC0000204C010020120000207570646185
:101650007465206D6F64652100000000D8000020D3
:10166000002200298CBFDFF820C07047DCF8003072
:10167000C3F3C013002BF9D0835CCCF80430521CA8
:1016800092B28A42F2D3704700100140FEE7303830
:101690000A2801D2012070470020704792B0F84C10
:1016A000206840F480402060206800F48040009072
:1016B000201F016841F0805101600068DFF8C4A379
:1016C00000F080500090DAF800004FF6FF0108406B
:1016D00040F4407040F0FD7040F08060CAF80000B7
:1016E000DAF80000C0F30220C0F10701042988BF26
:1016F0000421021D072A34BF0020C01E012707FA5B
:1017000001F1491E01FA00F0DF490001002681F8CD
:10171000140DFFF7B9FEFFF73BFB03960496009606
:1017200001960296089609960596069607960D96D6
:101730000E96206840F4805020602068D34D00F45D
:1017400080501090286840F00200286028684FF010
:10175000020900F0020010903820CDE90A090520A6
:101760000F900AA9CDF83090C948FFF73BF94FF424
:101770008270CDE900606815CDE9046002961820FA
:10178000CDE9060603960A20CDE90860DFF8048358
:1017900069464046FFF714FAD8F8040020F010001C
:1017A000C8F80400019600960296069603960496E1
:1017B00005960B960C96206840F01000206020687B
:1017C00000F010000790286840F0010028602868A9
:1017D000B14D00F0010007904FF4C060CDE9080959
:1017E00003200A9007200D9008A92846FFF7FAF871
:1017F000DAF80000C0F30220C0F10701042988BF15
:101800000421021D072A34BF0020C01E07FA01F17F
:10181000491E01F0010101FA00F0A049000181F820
:1018200000049F492020C1F800014FF4E130CDE9C8
:1018300000060C200296CDE903609A4C0596694695
:1018400020460696FFF7F6F9206920F490402061C3
:10185000606920F02A006061E06840F40050E060B8
:10186000D8F8000040F04000C8F8000004F10C0077
:1018700050E8001F41F0200140E80012002AF7D193
:10188000E06840F40050E060FFF74CFD86A1894815
:10189000FEF76CFD8748FEF7D1FE81B28548FFF761
:1018A000DFFE0020FFF71EFC834C024683A1207060
:1018B0008048FEF75BFD7F48FEF7C0FE81B27D48A1
:1018C000FFF7CEFE0120FFF70DFC2070024680A13D
:1018D0007848FEF74BFD7748FEF7B0FE81B27548B9
:1018E000FFF7BEFE0220FFF7FDFB207002467CA141
:1018F0007048FEF73BFD6F48FEF7A0FE81B26D48D1
:10190000FFF7AEFE0720FFF7EDFB2070024679A13E
:101910006848FEF72BFD6748FEF790FE81B26548E8
:10192000FFF79EFE0620FFF7DDFB2070024676A142
:101930006048FEF71BFD5F48FEF780FE81B25D4800
:10194000FFF78EFE032204F11C011020FFF7F2FBCB
:1019500004F11C0871A198F80200009098F8013079
:1019600098F800205348FEF701FD5248FEF766FE46
:1019700081B25048FFF774FE032204F11C010B20D2
:10198000FFF7D8FB98F80200009098F8013098F81B
:1019900000206BA14748FEF7E9FC4648FEF74EFEE3
:1019A00081B24448FFF75CFE4020A861DFF8B4B183
:1019B000FF20CBF80000DFF8B0914FF0FF3504F1C5
:1019C000400804F1290AA07A20B100F079F900F06A
:1019D000D1F8F8E700F0CEF8A078C8B9DBF800003D
:1019E000FF2815D0614960780A5C61490A701AF8CD
:1019F00000204A7019F8000088700846FFF7E6FAE0
:101A00006078401CC0B26070142808BF667016E091
:101A10005748FF21017047708670FFF7D7FA002002
:101A20000AF8007009F8006048F82050401CC0B265
:101A30001428F5D36561CBF80060A670E67000202D
:101A400058F820104B1C76F10002A8BF09F800607E
:101A500005DA6269914202D261612071E770401C2F
:101A6000C0B21428ECD3E07828B1207909F80070CE
:101A70000AF80070E6700520FFF778F9A3E7000088
:101A8000443802400CED00E00FE000E03038024046
:101A900000040240003001400000024025E000E068
:101AA00004E000E0001001400D0A53544152540D6F
:101AB0000A0D0A00D800002008000020434F4E46BF
:101AC00049473A203078253032580D0A000000008E
:101AD000454E5F41413A203078253032580D0A009A
:101AE000454E5F5258414444523A203078253032B6
:101AF000580D0A005354415455533A20307825303C
:101B000032580D0A0000000052465F5345545550AC
:101B10003A203078253032580D0A000054585F4181
:101B20004444523A203078253032582C20307825E1
:101B30003032582C203078253032580D0A00000001
:101B400052585F414444523A203078253032582C64
:101B5000203078253032582C203078253032580DFE
:101B60000A000000B000002038010020980000208A
:101B7000180100202DE9F041414F3878012818BFA5
:101B8000BDE8F0813F48DFF80081007898F8002038
:101B900090B1072A18BFBDE8F08198F80100012133
:101BA000572808BF394804D04E280CBF3848BDE834
:101BB000F0810170BDE8F081D8F80100354E364C57
:101BC000B0F1FF3F35D035A13648FEF7CFFB3548A1
:101BD000FEF734FD81B23348FFF742FDD8F80150DB
:101BE00031A12A462F48FEF7C1FB2E48FEF726FDFD
:101BF00081B22C48FFF734FD98F805202CA1294824
:101C0000FEF7B4FB2748FEF719FD81B22548FFF720
:101C100027FD98F800100020325C914208BF44F87C
:101C20002050401CC0B21428F6D300203870BDE804
:101C3000F08121A11B48FEF799FB1A48FEF7FEFC34
:101C400081B21848FFF70CFD98F8052018A1154837
:101C5000FEF78CFB1348FEF7F1FC81B21148FFF749
:101C6000FFFC002098F80010421E335C994208BF28
:101C700044F82020401CC0B21428F6D3D5E7000059
:101C80000000002012000020B800002010000020FA
:101C9000110000209800002048000020202558094D
:101CA00000000000D8000020256C7509000000002D
:101CB00025640D0A000000002558096E7009000017
:101CC0002DE9F04FB74DB84CDFF8E0A26879002756
:101CD000DFF8DC8291B04FF00709002800F0128194
:101CE0009AF80000002800F0FD802046FEF7A6FCD0
:101CF0000097C01E0197029703970497059710F06D
:101D0000FF0606970797089709970A970B970C976E
:101D10000D970E973846EB460F9706D0215C0BF8CF
:101D20000010401CC0B28642F8D831465846FEF733
:101D300058FD0020B31E002B0FDD0BEB00011BF83C
:101D40000020497841EA02110BF80010EA79801C62
:101D50001144C0B2E9718342EFDCE8790BEB060174
:101D6000C043401CC0B2E87111F8012C11F8021CEC
:101D700002EB0111C9B26973884273D1EF71E8892E
:101D80008C4E401CE8810020215C3154401CC0B2C4
:101D90000828F9D308218748FEF723FD70783178A9
:101DA00000EB0110C1B2E97270793279B37800EBBF
:101DB0000210F278120202EB03321044C0F34F0219
:101DC0002A82F079B37900EB03104FF0080310F08A
:101DD000FF0003EB41032873DBB208D0042808BFDF
:101DE000082040D0052857D0012859D077E088F83E
:101DF0000090462088F8010088F8021088F8032037
:101E0000100A88F804000820082B08D9225C06EB89
:101E1000000C401CC0B20CF8082C8342F6D84806CF
:101E2000010E6448FEF7DDFCEA7A0020B0EB420FB9
:101E30000DD23318315C5B7843EA0111315408EB61
:101E40005003801CC0B25971B0EB420FF1D3687AD5
:101E500020B9FFF78FFE687A0028FAD05448FFF7C0
:101E6000B5F86F723BE0215C3218401CC0B202F83A
:101E7000081C0C28F7D304214E48FEF7B2FC30783A
:101E80007178000740EA0160B17840EA0150F178CA
:101E900040EA0140A86122E0E889401CE8811EE098
:101EA00045A14748FEF762FA4548FEF7C7FB81B2F5
:101EB0004348FFF7D5FB8AF800706F71AF71EF816F
:101EC000AF726420FEF752FF88F800904A2088F82D
:101ED00001003748FFF77AF86420FEF747FFEF71FB
:101EE0008AF800700A20FEF741FFEA8935A13448DC
:101EF000FEF73CFA3248FEF7A1FB81B23048FFF70B
:101F0000AFFB26E0A879A0B19AF8000008B32078CA
:101F100021281ED101206871EA892AA12848FEF7EC
:101F200025FA2748FEF78AFB81B22548FFF798FB80
:101F30000DE0207821280CD19AF8000048B188F8EB
:101F40000090572088F801001948FFF73FF88AF8F9
:101F50000070287A002804BF11B0BDE8F08F1CA1E2
:101F60001748FEF703FA6420FEF700FF1448FEF757
:101F700065FB81B21248FFF773FB0124AC712F722D
:101F80006420FEF7F3FE88F80090452088F80100F1
:101F90000748FFF71BF86420FEF7E8FE6C7211B0EB
:101FA000BDE8F08F080000204C010020AD000020AB
:101FB0001801002029000020414F4B2100000000A3
:101FC000D80000205A4E53253035752100000000FE
:101FD00052544C21000000004FF04070E1EE100A16
:101FE0007047000000000000000001020304060723
:101FF0000809000000000102030430313233343597
:102000003637383941424344454640305800303134
:10201000323334353637383961626364656640304F
:102020007800040000080000000000000002000129
:10203000000010005420000800000020B80000003C
:10204000C40100080C210008B80000203807000077
:10205000E001000800B7B5A1B5B5A100000000007F
:102060000000000000000000000000000000000070
:10207000FFFFFFFF00000000000000000000000064
:10208000000000000001000000000000000000004F
:10209000000000000000000000000000FFFFFFFF44
:1020A0000000000000000000000000000000000030
:1020B0000000000000000000000000000000000020
:1020C0000000000000000000000000000000000010
:1020D0000000000000000000000000000000000000
:1020E00000000000000000000000000001020304E6
:1020F00005060708090A0B0C0D0E0F101112131418
:0C21000000000000000000000024F400BB
:040000050800018965
:00000001FF
