S00F000062735F6D3332382E73726563D7
S11300000C9434000C948B000C94AF000C945100AD
S11300100C9451000C9451000C9451000C94510018
S11300200C9451000C9451000C9451000C94D80081
S11300300C9451000C9451000C9451000C945100F8
S11300400C9451000C9451000C9481000C945100B8
S11300500C9451000C9451000C9451000C945100D8
S11300600C9451000C94510011241FBECFEFD8E022
S1130070DEBFCDBF11E0A0E0B1E0E0EDF6E002C0EC
S113008005900D92AC30B107D9F721E0ACE0B1E0B6
S113009001C01D92A132B207E1F70E94FD000C9449
S11300A066030C9400008DE284B981E085B917B829
S11300B018B880EC8AB988E88BB90895109280004A
S11300C08BE080938100109285001092840010923E
S11300D0870010928600109289008CE78093880034
S11300E010928B0010928A0008958AE08093690030
S11300F083E08DBB8CBB1092680082E080936F001C
S113010008951F920F920FB60F9211240F900FBEF5
S11301100F901F9018951F920F920FB60F921124F3
S11301202F933F934F935F936F937F938F939F93FB
S1130130AF93BF93EF93FF930E94E302FF91EF917C
S1130140BF91AF919F918F917F916F915F914F91EB
S11301503F912F910F900FBE0F901F9018951F92F3
S11301600F920FB60F9211248F939F93AF93BF9367
S113017080911001811113C081E08093100180915E
S1130180110190911201A0911301B0911401809377
S11301900C0190930D01A0930E01B0930F01BF9138
S11301A0AF919F918F910F900FBE0F901F90189554
S11301B01F920F920FB60F9211248F939F93AF93B8
S11301C0BF938091110190911201A0911301B091FC
S11301D014010196A11DB11D809311019093120188
S11301E0A0931301B0931401BF91AF919F918F918C
S11301F00F900FBE0F901F9018950E9475000E94DB
S113020053000E945E000E94130388E090E00E9465
S113021027030E949402789486E091E00E944203AE
S11302200E943102FDCFCF93C82F8BB18F778BB94A
S11302308C2F0E942103C73019F08FEF0E942103F5
S11302409BB190689BB9CF910895CF93C62F9BB172
S11302509F779BB980620E941C038C2F0E941C0311
S11302608BB180688BB9CF9108958BB18F778BB99F
S113027080E50E941C0382E08A95F1F700C083E7C1
S11302800E941C038BB180688BB90895CF92DF92D2
S1130290FF920F931F93CF93DF93D82F6B01F42E0C
S11302A08BB18F778BB98D2F0E941C03C0E009C0DE
S11302B086010C0F111D8D2F0E942103F8018083EC
S11302C0CF5FCF15A8F38BB180688BB9DF91CF9145
S11302D01F910F91FF90DF90CF9008950F931F937C
S11302E0CF93DF938B01D42F9BB19F779BB980620F
S11302F00E941C0382E08A95F1F700C0C0E007C0A9
S1130300F801EC0FF11D80810E941C03CF5FCD1713
S1130310B8F38BB180688BB9DF91CF911F910F91A6
S113032008958BB18F778BB982EE0E941C0382E013
S11303308A95F1F700C08BB180688BB908958BB1B1
S11303408F778BB981EE0E941C0382E08A95F1F7C6
S113035000C08BB180688BB9089580E00E941301BE
S1130360682F636080E00E94250143E060E071E053
S113037080E10E946E0143E060E071E08AE00E9447
S11303806E0185B1816085B98BE291E00197F1F747
S113039000C000000E9491010E949F01089543E063
S11303A063E071E080E10E946E0143E063E071E08C
S11303B08AE00E946E0185B18E7F85B90E94910109
S11303C00E949F0108950F931F93CF93DF938B0196
S11303D0D42F95B19E7F95B99BB19F779BB90E940D
S11303E01C0382E08A95F1F700C0C0E007C0F80161
S11303F0EC0FF11D80810E941C03CF5FCD17B8F371
S11304008BB180688BB985B1816085B9DF91CF915B
S11304101F910F910895CF93DF93EC010E94CF01B8
S113042080E00E9413018E7F682F626080E00E944A
S113043025018BE291E00197F1F700C0000045E04F
S1130440BE0180EA0E94E30185B1816085B998E22A
S11304509A95F1F785B18E7F85B980E0DF91CF91D0
S1130460089580911601813009F05DC01092160143
S113047080911C018F3FA9F41092100110920C017D
S113048010920D0110920E0110920F0110921101A1
S11304901092120110921301109214018BB18F7BF0
S11304A08BB980911C018930F1F58091100188236A
S11304B0B9F0E7E1F1E089E0808380910C0190914B
S11304C00D01A0910E01B0910F0181839283A3834A
S11304D0B48388EC8A95F1F7CF010E940B0211C016
S11304E0E7E1F1E089E080838FEF9FEFDC01818316
S11304F09283A383B48388EC8A95F1F7CF010E9499
S11305000B0280911D01813071F480911E018130B4
S113051019F48BB180648BB980911E01811103C0E1
S11305208BB18F7B8BB9089585B18E7F85B98FE0B0
S113053097E20197F1F700C000006AE080E00E94B2
S113054025018FE097E20197F1F700C0000061E018
S113055081E00E94250161E082E00E94250161E0C2
S113056083E00E9425016FE584E00E9425010E943A
S1130570350160E08DE10E94250160E08CE10E947C
S1130580250160E787E00E9425016CE485E00E9474
S1130590250166E086E00E94250143E063E071E006
S11305A080E10E946E0143E063E071E08BE00E9411
S11305B06E0165E081E10E9425010E94AD018BB1CD
S11305C08F7B8BB90895CF938AE18A95F1F700C0A8
S11305D087E00E941301C82F86FF0DC045E06CE13F
S11305E071E081E60E94460160E487E00E942501F3
S11305F081E080931601C5FF0AC060E287E00E9493
S113060025010E94AD0181E0809315010AC0C4FF59
S113061008C060E187E00E9425010E949F010E94BA
S1130620AD01CF91089584B18C6284B985B1837D85
S113063085B980E58CBD08958EBD0DB407FEFDCF50
S113064008958EBD0DB407FEFDCF8EB50895909329
S1130650C5008093C400E1ECF0E088E180838081F0
S113066080688083E0ECF0E08081826080838EE0AB
S11306708093C20008959091C00095FFFCCF8093B1
S1130680C60008950F931F93CF93DF938C01C0E0AE
S1130690D0E007C0F801EC0FFD1F80810E943B03EE
S11306A02196F80101900020E9F73197E01BF10B46
S11306B0CE17DF0778F38DE00E943B038AE00E94A7
S11306C03B03DF91CF911F910F910895F894FFCFD1
S10F06D0B7B5A1B5B5A1737461727400D4
S9030000FC
